:100000000C94B4010C94E8010C94E8010C94E80100
:100010000C94E8010C94E8010C94E8010C94E801BC
:100020000C94E8010C94E8010C94280B0C94A50B9B
:100030000C94E8010C94E8010C94E8010C94E8019C
:100040000C94E8010C94E8010C94E8010C94E8018C
:100050000C94E8010C94E8010C94E8010C94DE0A7D
:100060000C94E8010C94E8010C94E8010C94E8016C
:100070000C94E8010C94E8010C94E8010C94E8015C
:100080000C94E8010C94E8010C94E8010C94E8014C
:100090000C94E8010C94E8010C94E8010C94E8013C
:1000A0000C94E8010C94E8010C94E80105A84CCDEF
:1000B000B2D44EB93836A9020C50B9918688083CA2
:1000C000A6AAAA2ABE000000803F05010902A101DC
:1000D0000901A1008504050919012903150025015D
:1000E00075019503810275059501810305010930AC
:1000F000093109381581257F750895038106C0C02F
:1001000005010905A1018503093009311601802681
:10011000FF7F75109502810205091901291015004C
:100120002501750195108102C04F4B0043464700E1
:1001300050494E5300080B0002020200000904005F
:100140000001020200000524001001052401010144
:10015000042402060524060001070581031000405F
:1001600009040100020A0000000705020240000025
:10017000070583024000000403090412010002EF96
:10018000020140091203000001010203014A532D3C
:100190004B6579706164004A532D4B6579706164D9
:1001A00000444941472000535441544520004F4BDF
:1001B000004552520045525200455252004F4B00EA
:1001C000455252004552520045525200455252008B
:1001D0004F4B004D4F444520004F4B0045525200BD
:1001E000524F5420004F4B00455252005350442070
:1001F00000444556204A532D4B4559504144005622
:10020000455220004F4B00455252004F4B004F4B80
:1002100000535449434B20004F4B00455252004974
:100220004E562000070605040100080A0B0C0D09B4
:1002300000000000240027002A002D0030000000EC
:1002400000002300260029002C002F0000000000E1
:10025000250028002B002E003100040404040403B0
:100260000405020202020403020202020606060656
:10027000060604040202020404040802011040807D
:10028000401020408040800802040180402010027D
:1002900001108010204040200000000200090F00E3
:1002A00000030401000C000000000000000000003A
:1002B0000000000000000000000000000000002A14
:1002C0002B280000000000000000000000000000DB
:1002D000000000000000002C9EB4A0A1A2A434A63F
:1002E000A7A5AE362D3738271E1F2021222324250F
:1002F00026B333B62EB7B89F8485868788898A8BC4
:100300008C8D8E8F909192939495969798999A9BB5
:100310009C9D2F3130A3AD350405060708090A0B53
:100320000C0D0E0F101112131415161718191A1B95
:100330001C1DAFB1B0B50005010906A1018502057C
:100340000719E029E7150025017501950881029537
:1003500001750881039506750815002573050719B1
:100360000029738100C03E0E11241FBECFEFDAE0DA
:10037000DEBFCDBF14BE0FB6F894A8958091600083
:10038000886180936000109260000FBE23E0A2E1BC
:10039000B2E001C01D92AE3FB207E1F712E0A0E06B
:1003A000B1E0EEECF6E402C005900D92A231B10787
:1003B000D9F711E0C4EBD1E004C02197FE010E94FF
:1003C0001123C33BD107C9F70E948B0E0C94652300
:1003D0000C94000083E08093E9008091F200882370
:1003E00019F08AE38093E8000895FC01809174037A
:1003F000882311F13FB7F89482E08093E9002091BF
:10040000F200822F90E01816190614F481E090E0B3
:10041000882339F0289844E6409373034091F10013
:100420004083222339F02091F200211103C02BE6F2
:100430002093E8003FBF08958FEF9FEF089581500C
:100440008F3008F047C0E82FF0E0E75DFD4F0C94D7
:10045000112346024A0238023E0242026A026A023E
:100460006A024D02530257025B0261026A02650290
:10047000809180008F778093800008958091800024
:100480008F7DF9CF80918000877FF5CF84B58F77FE
:1004900084BD089584B58F7DFBCF809190008F77C8
:1004A000809390000895809190008F7DF9CF809186
:1004B0009000877FF5CF8091C0008F778093C00038
:1004C00008958091C0008F7DF9CF8091C200877F11
:1004D0008093C20008951F93CF93DF93EAE9F2E07F
:1004E0009491EBE7F2E0D491ECE5F2E0C491CC23F7
:1004F000B9F0182F992319F0892F0E941F02EC2FB1
:10050000F0E0EE0FFF1FE45BFD4FA591B4918FB7B4
:10051000F894EC91111108C0D095DE23DC938FBFC5
:10052000DF91CF911F910895DE2BF8CFCF93DF930A
:10053000282F30E0F901E856FD4F8491F901E75882
:10054000FD4FD491F901E65AFD4FC491CC23A1F09F
:1005500081110E941F02EC2FF0E0EE0FFF1FE25C02
:10056000FD4FA591B491EC91ED2381E090E009F469
:1005700080E0DF91CF91089580E090E0FACF80E1B4
:100580000E949602892B19F08EE00C94960290E05E
:1005900080E00895CF93DF9390E0FC01E758FD4F92
:1005A0002491865A9D4FFC0184918823D1F090E0DC
:1005B000880F991FFC01E05DFD4FA591B491FC01EE
:1005C000E45BFD4FC591D491623071F49FB7F8940C
:1005D0003C91822F809583238C93E8812E2B288356
:1005E0009FBFDF91CF9108958FB7F894EC912E2B98
:1005F0002C938FBFF6CF8251E82FF0E0EC5DFD4FDA
:10060000E49190917B008E2F880F880F80729F7DE0
:10061000892B80937B00E770E064E0937C008091FD
:100620007A00806480937A0080917A0086FDFCCF06
:10063000809178009091790008953FB7F894809167
:100640006F0390917003A0917103B091720326B56E
:10065000A89B05C02F3F19F00196A11DB11D3FBFFA
:10066000BA2FA92F982F8827BC01CD01620F711DC9
:10067000811D911D42E0660F771F881F991F4A95C3
:10068000D1F708958F929F92AF92BF92CF92DF924F
:10069000EF92FF924B015C010E941D036B017C01F4
:1006A0000E941D036C197D098E099F09683E7340E5
:1006B00081059105A8F321E0821A9108A108B108EB
:1006C00088EEC80E83E0D81EE11CF11C8114910451
:1006D000A104B10429F7FF90EF90DF90CF90BF9075
:1006E000AF909F908F9008952FB7F89460916B030F
:1006F00070916C0380916D0390916E032FBF0895EC
:10070000409155025091560220915302309154026B
:1007100042175307B4F49091E8009570E1F390917B
:10072000E80092FD19C08093F100809155029091EC
:10073000560201968F739927892B19F48EEF8093B7
:10074000E8008091550290915602019690935602CE
:100750008093550281E0089580E00895EF92FF9222
:100760000F931F93CF93DF93F82E192FE62E042FAC
:1007700081E0860F880F0E94800383E00E9480033F
:10078000CF2DD12FEC0EFD2EF11CCE15DF05B9F0CB
:1007900007FF13C0FE0184910E948003182F80E0A0
:1007A0000E948003812321968111EFCFDF91CF91A9
:1007B0001F910F91FF90EF9008958881EDCF81E018
:1007C000F5CFDF92EF92FF920F931F93CF93DF93BA
:1007D000D82E8A01EB017B01E40EF51ECE15DF0554
:1007E00059F0D7FE12C0FE0184910E948003219629
:1007F0008111F4CF0FEF1FEFC801DF91CF911F914F
:100800000F91FF90EF90DF9008958881EECF2FB782
:10081000F89487708093E9009091E800892F8072A6
:1008200095FF04C09091F20080E4891B2FBF0895CA
:100830007F928F929F92AF92BF92CF92DF92EF9270
:10084000FF920F931F93CF93DF93C82E8B017A01F2
:1008500080917403811110C08FEF9FEFDF91CF91D2
:100860001F910F91FF90EF90DF90CF90BF90AF90CE
:100870009F908F907F9008958091590280FF05C0CE
:100880008091E00082608093E000CE2DDF2DD12C9E
:100890008AEFB82E8C2D8770982E8C2D8072882E22
:1008A0008C2D8074782E9AE3A92E209719F4DD20E0
:1008B00009F452C08C2D0E94070481110AC0BA9419
:1008C000BB2051F261E070E080E090E00E944203C2
:1008D000ECCF8C171D0611F00CF08C2F9FB7F894FD
:1008E0009092E9002091E80025FD02C09FBFDDCF76
:1008F000282F30E0C21BD30B882029F08150A0F0B4
:100900001092F100FBCFF801C7FC0AC0815050F0F3
:1009100041914093F100FACF44914093F100319618
:100920008150D0F7020F131FDD2021F0A092E800C4
:10093000D12CDCCF8091E80085FD07C0A092E800B3
:10094000DD24D394209791F2F3CF209779F6772086
:1009500069F2A092E800CACF5D9884E680935802BD
:10096000C7017CCF615030F02091F100FC01208361
:100970000196F8CF289884E68093730308958091B8
:100980004B0281110DC082E08093470284E0809386
:10099000480210924A021092490281E080934B0271
:1009A00087E492E008950F931F93CF93DF931F92F4
:1009B000CDB7DEB782E0898342E450E065E371E0C1
:1009C00080E80E94E1030E94BF04DC0112960D91B1
:1009D0001C910115110589F0D801ED91FC9102805F
:1009E000F381E02DBE016F5F7F4FC801099597FD30
:1009F00004C0F80100851185ECCF89810F90DF914B
:100A0000CF911F910F910895CF93DF93EC018091C7
:100A10001201882331F083E00E9418041816190689
:100A200034F081E090E09B838A8380E090E0DF9166
:100A3000CF910895CF93DF931F92CDB7DEB769832F
:100A4000DC01ED91FC910280F381E02D41E050E06A
:100A5000BE016F5F7F4F09950F90DF91CF91089591
:100A6000682F8FE893E00C941A050F931F93CF9390
:100A7000DF938C01D0E0C0E0F801EC0FFD1F649122
:100A8000662341F08FE893E00E941A05892B11F04C
:100A90002196F2CFCE01DF91CF911F910F91089552
:100AA0000C94EA0183E00E94070490E00895CF933C
:100AB000DF931F92CDB7DEB7FC018485958597FD46
:100AC00008C02FEF3FEF358724870F90DF91CF913C
:100AD0000895CE0101960E94F501019719F48981CC
:100AE00090E0F3CF8FEF9FEFF0CF0F931F93CF9353
:100AF000DF931F92CDB7DEB78C01FC01848595850D
:100B000097FF0BC0CE0101960E94F501019771F489
:100B1000898190E0F80195878487F801848595851F
:100B20000F90DF91CF911F910F9108958FEF9FEF5D
:100B3000F1CFFC018485958597FD0BC09FB7F89494
:100B400082E08093E9008091F2009FBF90E00196DF
:100B500008959FB7F89482E08093E9008091F200B5
:100B60009FBF90E00895DC01FB0112962C91129733
:100B7000848195812817190641F491818081813AF9
:100B800031F49D7F81E0913009F080E00895813259
:100B9000E1F79B3029F482811F968C9381E00895C0
:100BA0009A3099F7828150968C93F8CFAF92BF928A
:100BB000CF92DF92EF92FF920F931F93CF93DF9329
:100BC0001F92CDB7DEB77C0169836A01590141E00C
:100BD00050E0BE016F5F7F4FFC0183810E941804CB
:100BE0008C0197FD0BC0F7018381A501B6018064DC
:100BF0000E941804080F191F97FD8C01C8010F905F
:100C0000DF91CF911F910F91FF90EF90DF90CF90E8
:100C1000BF90AF900895DC01FB0188E4808389E4F4
:100C2000818384E482831D969C911D979F709F5BB6
:100C300093831D968D919C9124E0969587952A9596
:100C4000E1F78F708F5B848385E00895EF92FF92C8
:100C50000F931F93CF93DF93FB012081213871F510
:100C60002381223259F5DC0112964C912481358181
:100C70004217130619F5EC010B851C85F12CE12CAC
:100C80000115110589F0F801448155816281738154
:100C900080E80E94E1038F3F980749F0E80EF91EB3
:100CA000D8010D911C91ECCF81E08F87C701DF91B6
:100CB000CF911F910F91FF90EF90089590E080E009
:100CC000F6CFCF93DF93CDB7DEB769970FB6F89421
:100CD000DEBF0FBECDBFFC01DB018C918F5F8C931B
:100CE0009E012D5F3F4F8DE0D9011D928A95E9F756
:100CF00029E0298384E08A8391E09D8383E08E83C9
:100D00002A8721E22B879C879D879F8722E2288B59
:100D100027E02B8B25E02C8B8E8B20E430E0388F66
:100D20002F8B998F82818B8395858685998B8A8B72
:100D3000838180688D8B49E150E0BE016F5F7F4FFA
:100D400080E00E94E10369960FB6F894DEBF0FBE03
:100D5000CDBFDF91CF910895CF93DF9380913F0274
:100D6000811167C081E0809332028093330228E3CF
:100D700032E0309335022093340210923702109201
:100D800036022AE231E030932F0220932E02109295
:100D90003A021092390210923C0210923B02809368
:100DA0003D0280933E0281EC809338020E94BF0492
:100DB000FC01818190913202482F490F5527551F20
:100DC000483051059CF5A281B381109709F52EE2B8
:100DD00032E03383228320812093300280933102DA
:100DE00080913302820F808320913402A22FB09130
:100DF00035028A2F821B8917C8F481813D91C82F43
:100E0000D0E0C050DF4F38838F5F8183F2CFD901AC
:100E100018962D913C91199721153105C1F72EE2B5
:100E200032E019963C932E931897D5CF81E08093AA
:100E30003F028EE292E0DF91CF910895CF92DF9250
:100E4000EF92FF920F931F93CF93DF936C01EB010F
:100E50007B01E40EF51E10E000E0CE15DF0581F009
:100E600069916D30D1F3D601ED91FC910190F08143
:100E7000E02DC6010995892B19F00F5F1F4FEDCFAB
:100E8000C801DF91CF911F910F91FF90EF90DF90FC
:100E9000CF900895CF93DF93EC016838E0F0685865
:100EA000FE0186E0662321F09681961301C016822A
:100EB000815031968111F6CF0E94AC06AE014C5F95
:100EC0005F4F28E030E062E00E94D60581E090E0CC
:100ED000DF91CF910895862F90E067FF0FC0FC014E
:100EE000E058F10981E090E001C0880FEA95EAF747
:100EF00080959C8189238C8360E0D2CFEC85FD8531
:100F0000E80FF91F649190E080E0662309F3862FD3
:100F1000807C803C49F48C818F7B8C836F7362333F
:100F200009F0BECF64E6BCCF67FFF9CF8C818D7F1F
:100F30008C836F77F4CFCF93DF93EC01683858F14F
:100F400068588E818617D1F08F818617B9F0888511
:100F50008617A1F08985861789F08A85861771F032
:100F60008B85861759F0FE01369690E080E021913E
:100F7000211147C08C0F9D1FFC0166830E94AC06A7
:100F8000AE014C5F5F4F28E030E062E00E94D60582
:100F900081E090E01FC0862F90E067FF0EC0FC014B
:100FA000E058F10921E030E001C0220FEA95EAF7AC
:100FB0008C81822B8C8360E0C4CFEC85FD85E80FAB
:100FC000F91F6491611109C081E090E09B838A83DD
:100FD00090E080E0DF91CF910895862F807C803C67
:100FE00049F48C8180648C836F73623309F0A9CFDC
:100FF00064E6A7CF67FFF9CF8C8182608C836F771F
:10100000F4CF01968630910509F0B1CFDDCFEF9294
:10101000FF921F93CF93DF93EC01162F0E949B0743
:101020007C01612FCE010E944A07C7019927DF91F9
:10103000CF911F91FF90EF900895089590E080E088
:1010400008958F929F92AF92BF92CF92DF92EF92CC
:10105000FF92CF93DF939C012553334F27393941BA
:10106000D0F1BC0197FF04C066277727681B790B76
:10107000EC016C5C7C40072E000C880B990B0E94E5
:10108000BD2020E036E646EE56E40E9413206B01B8
:101090007C016091130170E090E080E00E94BD202F
:1010A0004B015C01A7019601C701B6010E94B12165
:1010B0009B01AC01C501B4010E94B121D7FD90583C
:1010C000DF91CF91FF90EF90DF90CF90BF90AF90E6
:1010D0009F908F90089560E070E0CB01F1CF262FB4
:1010E000FC01E051FD4F30813617A9F06083845A2E
:1010F0009D4FFC01628190E2960F983038F4605663
:10110000222351F08DEE93E00C949B079CEF960FF9
:1011100068579437A8F308958DEE93E00C944A072E
:10112000CF92DF92EF92FF92CF93DF93EC01A091E9
:1011300070026B01770FEE08FF08FC01E051FD4FD4
:1011400080818823E1F0AF50BB0B2FEF3FE70E9477
:10115000262324E630E040E050E00E94F22261E0E5
:101160002C153D054E055F050CF060E0CE01DF91CA
:10117000CF91FF90EF90DF90CF900C946F082A2FC3
:1011800030E0AFEFBFE70E941723E3CFCF93DF93A9
:10119000D0E0C0E060E0CE010E946F082196C2312D
:1011A000D105C1F7DF91CF910895DC0123E53AE441
:1011B0002D933D9326E0E0E2F1E001900D922A9517
:1011C000E1F726E0E0E2F1E0DC01189601900D92F3
:1011D0002A95E1F70895FC0101900020E9F7319785
:1011E000AF01481B590BBC018FE893E00C94040538
:1011F00085E891E00C94EB08CF93DF930E943505CE
:10120000EC010E94F8088C0F9D1FDF91CF9108958B
:101210008F929F92AF92BF920F931F93CF93DF93C2
:10122000CDB7DEB7A1970FB6F894DEBF0FBECDBF26
:1012300019A2423008F44AE08E010F5D1F4F842E40
:10124000912CB12CA12CA50194010E94D022E62F53
:10125000B901CA01EA30F4F4E05DD801EE938D01E2
:10126000232B242B252B79F790E080E0109719F0A1
:10127000CD010E94EB08A1960FB6F894DEBF0FBE19
:10128000CDBFDF91CF911F910F91BF90AF909F90F5
:101290008F900895E95CE1CFCF93DF93682F70E0E2
:1012A00090E080E04AE00E940809EC010E94F80802
:1012B0008C0F9D1FDF91CF910895CF92DF92EF9217
:1012C000FF92CF93DF936C01990FEE08FF08F7FEB2
:1012D00017C08DE20E943005EC0166277727CB010D
:1012E0006C197D098E099F094AE00E9408098C0F3C
:1012F0009D1FDF91CF91FF90EF90DF90CF900895E9
:101300004AE0C701B601DF91CF91FF90EF90DF90E7
:10131000CF900C940809CF93DF9380E391E00E9473
:101320003505C2E8D3E080E20E943005699170E0A3
:1013300090E080E04AE00E94080983E0CF38D807B7
:1013400091F7DF91CF910C94F808CF93DF938CE263
:1013500091E00E943505CEE5D2E080E20E943005A2
:10136000699170E090E080E04AE00E94080982E024
:10137000C037D80791F780E20E9430058091700253
:10138000DF91CF910C944C09EF92FF920F931F9332
:10139000CF93DF937C018C01D0E0C0E0CE010E94AE
:1013A000861FF80181938F012196CE30D105B1F7C8
:1013B000C701DF91CF911F910F91FF90EF9008959A
:1013C0000C94861FCF92DF92EF92FF92809371026E
:1013D000682F880F770B880B990B0E94BD202BED8F
:1013E0003FE049E450E40E94B12120E030E044E3D2
:1013F00053E40E9413206B017C010E940E20609335
:101400001B0170931C0180931D0190931E01C70165
:10141000B6010E941E22609344037093450380939B
:10142000460390934703FF90EF90DF90CF9008958D
:10143000FF920F931F93CF93DF93EC01F62E088159
:101440001981C8010E94861FF81621F06F2DC8016E
:101450000E948E1FCE01DF91CF911F910F91FF90BF
:101460000895CF93DF9300D0CDB7DEB79A838983F9
:10147000CE0101960E94180A0F900F90DF91CF9134
:101480000895AF92BF92CF92DF92FF920F931F9376
:10149000CF93DF93D82FC92F0E94C6080D2F1C2F82
:1014A00082E8A82E83E0B82E95E7C92E93E0D92EC6
:1014B000C8E6D0E0F801F1908F01F501F1925F01EB
:1014C00062E08F2D0E94CA02F60111926F016F2D0A
:1014D000CE010E94310A2196C537D10559F76AE538
:1014E00087E690E0DF91CF911F910F91FF90DF9001
:1014F000CF90BF90AF900C94310AD82FC62F0E9486
:10150000C6086D2F80E690E00E94310ACC2331F0AE
:1015100089E291E00E94FC080E94EA0164E670E022
:1015200080E090E00E94420368EC70E080E090E090
:101530000E94420310920108109200081092FF0AC4
:101540001092FE0A88E198E00FB6F894A89580936F
:1015500060000FBE90936000FFCFEF92FF920F9359
:101560001F93CF93DF9300D0CDB7DEB78C010E94DD
:10157000C60885E1F801ACE5B2E001900D928A95CC
:10158000E1F78CE5E82E82E0F82E00E410E01A8303
:101590000983F70161917F01CE0101960E94180A2B
:1015A0000F5F1F4F0535110591F70F900F90DF91D9
:1015B000CF911F910F91FF90EF9008951F920F927E
:1015C0000FB60F9211242F933F938F939F93AF9356
:1015D000BF9380916B0390916C03A0916D03B091C8
:1015E0006E0330916A0323E0230F2D3758F50196DF
:1015F000A11DB11D20936A0380936B0390936C032C
:10160000A0936D03B0936E0380916F03909170036C
:10161000A0917103B09172030196A11DB11D809339
:101620006F0390937003A0937103B0937203BF9103
:10163000AF919F918F913F912F910F900FBE0F907F
:101640001F90189526E8230F0296A11DB11DD2CF39
:101650001F920F920FB60F9211242F933F934F9327
:101660005F936F937F938F939F93AF93BF93CF932A
:10167000EF93FF93C091E1008091E100837F80931D
:10168000E100C3FF0FC01092E90081E08093EB00FE
:101690001092EC0082E38093ED001092740388E0D6
:1016A0008093F000C2FF1AC00E94EA0180915802A4
:1016B000882341F080915802815080935802811113
:1016C00001C05D9A80917303882341F08091730378
:1016D000815080937303811101C0289AC4FF23C0F5
:1016E0008091E2008E7E81608093E2008091E10033
:1016F0008F7E8093E100809159028E7E806180937D
:101700005902FF91EF91CF91BF91AF919F918F912E
:101710007F916F915F914F913F912F910F900FBEED
:101720000F901F901895C0FFECCF8091E2008E7E45
:1017300080618093E2008091E1008E7E8093E100E1
:10174000809159028E7E8160DACF1F920F920FB680
:101750000F921124CF92DF92EF92FF920F931F937B
:101760002F933F934F935F936F937F938F939F93A9
:10177000AF93BF93EF93FF93CF93DF93CDB7DEB7D4
:101780006C97DEBFCDBF1092E9008091E80083FF27
:1017900025C068E0CE0145960E94B20482EF809396
:1017A000E8008D8987FF39C09091E80090FFFCCF59
:1017B000982F907609F034C19E894F89588D2F89D2
:1017C000F88C911131C0803861F580915A02809374
:1017D000F1001092F1008EEF8093E8006C960FB646
:1017E000F894DEBF0FBECDBFDF91CF91FF91EF9197
:1017F000BF91AF919F918F917F916F915F914F9129
:101800003F912F911F910F91FF90EF90DF90CF901C
:101810000F900FBE0F901F9018959EEF9093E800C9
:10182000C7CF1092F100D5CF913059F48111D3CFA9
:101830004130510581F680915A028D7F80935A0282
:10184000CACF933049F48111C6CF4130510519F602
:1018500080915A028260F2CF953041F48091E80085
:1018600080FFFCCF20682093E300B5CF963009F0CD
:10187000A9C00B8D1C8D22E01092E9001092560237
:1018800010925502F2122EC010925402109253027E
:101890000E94D3041F8299E09983FA8291E09E838B
:1018A00090EA98879AEF99872091550230915602D5
:1018B000275F3F4F3C832B838D831092E90010926A
:1018C000560210925502109354020093530249E0BD
:1018D00050E0BE016F5F7F4F80E00E94E1030E94F5
:1018E000D30479CF10935402009353020E94BF0493
:1018F000DC0112960D911C910115110509F451C1DD
:10190000D801ED91FC910480F581E02DBE016B5E64
:101910007F4FC8010995009709F03EC1F801008585
:101920001185EACFF3E0FF120EC08F89882309F4F6
:1019300040C0823061F440E869E087E991E00E94AC
:10194000AE03811148CF81E28093EB0047CF813015
:1019500029F440E869E08DE891E0F1CF833099F710
:101960000E94BF04DC011296ED90FC908E010F5F87
:101970001F4F6801E114F10479F0D701ED91FC915A
:101980000680F781E02DB801C7010995080F111DE8
:10199000F701E084F184EECFD8011C92F6010190AA
:1019A0000020E9F73197BF016C197D0940E0C601BD
:1019B000C6CF67E771E0FB01449150E080E80E94E8
:1019C000E10309CF973009F4BECF983021F481E0CC
:1019D0008093F10000CF993009F0FDCE837009F0BB
:1019E000B2CFE1E0F1E081E031E096E32191222302
:1019F00071F08093E9003093EB00DF0111972C9197
:101A00002093EC009093ED008F5F873079F78EE79D
:101A10008093EA001092EA008F8980937403DBCEF2
:101A20008B8D9C8D1092E9001092560210925502F7
:101A30009093540280935302898D811192C08E89B4
:101A40009D89913A49F4813209F07DCF47E050E019
:101A50006BE071E080E0B3CF913209F074CF833254
:101A600069F48F89988DB0E0A0E08093070190938E
:101A70000801A0930901B0930A01ADCE803269F448
:101A80008091E80082FFFCCF67E08BE091E00E944C
:101A9000B2048BEF8093E8009ECE823209F09BCE99
:101AA0008F8980931201EEEFFFE7859194918B3F30
:101AB0009C4D51F1E0E0F8E080910B0190910C0118
:101AC000A0910D01B0910E01803B9440A105B1059C
:101AD000F1F48091120180FD1AC0EE3F8AE0F80710
:101AE00089F587E797E791838083809160008093F1
:101AF000570288E19BE00FB6F894A89580936000A8
:101B00000FBE9093600067CEEEEFFAE0D5CF8081F4
:101B100091818737974709F05ECEA8958091600044
:101B20008861809360008091570280936000EE3F4F
:101B30002AE0F20789F08091FE0A9091FF0A9183D2
:101B4000808349CE808191818737980751F29093A5
:101B5000FF0A8093FE0AC5CF1092FF0A1092FE0A78
:101B60003ACE0E94BF04DC0112960D911C91011522
:101B7000110509F4E8CED801ED91FC910190F081B6
:101B8000E02DBE016B5E7F4FC8010995811123CE08
:101B9000F80100851185EBCF181619060CF41BCE41
:101BA000D2CEF1E0FF12BECE6BE771E004CFFC01B4
:101BB000A385B485109771F47487638785859685AE
:101BC000DB0114962D913C91820F931F9687858798
:101BD0000895DC018D919C9111970097D1F76D9339
:101BE0007C93ECCFCF93DF93EC0180E690E00E94F2
:101BF000E0099FEF980F923020F01882DF91CF918B
:101C0000089588838130F1F490912602911112C0D9
:101C1000109221021092200220E031E03093230242
:101C20002093220229E230E03093250220932402FF
:101C3000809326020E94AC0660E272E0DF91CF91B1
:101C40000C94D70D80911802811113C010921302C9
:101C5000109212028AEC90E0909315028093140285
:101C600086E390E0909317028093160281E08093C0
:101C700018020E94AC0662E172E0E0CF109292037B
:101C80001092910388EE93E0A0E0B0E0809393037C
:101C900090939403A0939503B09396038BE691E001
:101CA0009093900380938F038FEF9FEF90939C030B
:101CB00080939B031092F0031092EF038DE791E065
:101CC0009093EE038093ED038091E503811113C09F
:101CD0001092E0031092DF0387E393E09093E20316
:101CE0008093E1038FE290E09093E4038093E30319
:101CF00081E08093E5030E94AC066FED73E00E94E3
:101D0000D70D87EB92E09093FA038093F9038BEF62
:101D100093E00C94F20DCF93DF93CDB7DEB7C95F9C
:101D2000D1090FB6F894DEBF0FBECDBF789484B54D
:101D3000826084BD84B5816084BD85B5826085BDC7
:101D400085B5816085BD80916E00816080936E0055
:101D50001092810080918100826080938100809147
:101D600081008160809381008091800081608093F8
:101D70008000809191008260809391008091910019
:101D800081608093910080919000816080939000A9
:101D90008091C10084608093C1008091C100826005
:101DA0008093C1008091C10081608093C1008091C7
:101DB000C30081608093C3008091C00082608093E3
:101DC000C0008091C20081608093C20080917A003F
:101DD000846080937A0080917A00826080937A0098
:101DE00080917A00816080937A0080917A00806887
:101DF00080937A001092740310925A021092590242
:101E00008091D70081608093D70080EA8093D800CA
:101E100089B5806189BD89B5826089BD09B400FE3C
:101E2000FDCF61E070E080E090E00E94420380918D
:101E3000D8008F7C80618093D8008091E000807F03
:101E40008093E0008091E1008E7E8093E1008DE040
:101E50008093E200559A209A62E08EE00E94CA02C6
:101E600062E080E10E94CA0262E370E080E090E0FC
:101E70000E9442030E94BF02892B39F50E9474031D
:101E80006B017C010E94BF02892BE1F40E94740364
:101E90006C197D098E099F09683B7B40810591057E
:101EA00088F387E797E7909301088093000888E11B
:101EB0009BE00FB6F894A895809360000FBE9093B6
:101EC0006000FFCF81E080935B0262E08EE00E94C1
:101ED000CA0262E080E10E94CA0201E411E022E34A
:101EE00031E0CE50DF4F39832883C25FD04062E0BB
:101EF000CE50DF4FA881B981C25FD0408D91CE50C6
:101F0000DF4FB983A883C25FD0400E94CA02CE507F
:101F1000DF4F88809980C25FD0400815190539F7D6
:101F200087E690E00E94E00991E08A3509F090E0B0
:101F300002E8E02E03E0F02E08E610E0911191C2D5
:101F40008DE0EAE5F1E0A2E8B3E001900D928A9518
:101F5000E1F702E813E062E0F80181918F010E944D
:101F6000CA02F3E00F381F07B1F785E690E00E9440
:101F7000E00991E0811101C090E090931F0186E695
:101F800090E00E94E009C853DF4F8883C85CD040CE
:101F9000843028F0C853DF4F1882C85CD040C85343
:101FA000DF4F8880C85CD0408092480361E082E0C7
:101FB0000E94CA0280E00E946B0282E690E00E94CA
:101FC000E009182F83E690E00E94E009853A21F4A9
:101FD000163A14F01B350CF010E0812F0E94E20934
:101FE00084E690E00E94E0099FEF980F943108F09A
:101FF00088E0809313011CE5C12E12E0D12E00E48D
:1020000010E0C8010E94861FD6018D936D010F5FFD
:102010001F4F05351105A9F780915C0290915D0273
:102020008C34904529F48091700284518C3448F0AE
:1020300085E1E5E4F1E0ACE5B2E001900D928A952E
:10204000E1F7CE014D960E94C4098EE0FE017D9617
:10205000DE01AE55BF4F01900D928A95E1F78D8D4F
:102060009E8D83359A4409F018C2CC55DF4F888085
:102070009980C45AD040C653DF4F99828882CA5C87
:10208000D040CA55DF4F08811981C65AD040C85583
:10209000DF4FA880B980C85AD040CE52DF4FB982F6
:1020A000A882C25DD040C655DF4FC880D980CA5AC9
:1020B000D040C453DF4FD982C882CC5CD040C455D5
:1020C000DF4F28803980CC5AD040C255DF4FE8809E
:1020D000F980CE5AD040C253DF4FF982E882CE5CFD
:1020E000D040B8E0CB2ED12C812C912C5401412C26
:1020F000512C320183E10E94FB02092E000CAA0B35
:10210000BB0B480E591E6A1E7B1E82E10E94FB0219
:10211000092E000CAA0BBB0B880E991EAA1EBB1E13
:1021200065E070E080E090E00E94420321E0C21A86
:10213000D10801F7A8E0CA2ED12CE12CF12CC30163
:10214000B201A70196010E94F222C801012E000CE3
:10215000AA0BBB0B29013A01481A590A6A0A7B0AE1
:10216000C501B401A70196010E94F222C101032C0E
:10217000000CAA0BBB0B4C015D01821A930AA40A46
:10218000B50AB501A401C853DF4F9880C85CD040A0
:1021900090FE08C07094609450944094411C511C6F
:1021A000611C711CC853DF4FA880C85CD040A1FEE1
:1021B00007C070956095509541955F4F6F4F7F4F69
:1021C000CE52DF4F88819981C25DD040801B910B38
:1021D000C653DF4FC880D980CA5CD0400C191D0996
:1021E000081719070CF48C016801110FEE08FF089D
:1021F000C253DF4F28813981CE5CD0402219330988
:10220000C101C453DF4F08811981CC5CD040801BD1
:10221000910B821793070CF4C901092E000CAA0B2D
:10222000BB0B1AE7C116D104E104F1040CF45EC142
:102230009701860135952795179507958A3791055A
:10224000A105B1050CF457C1B595A795979587954C
:1022500084179507A607B7078CF47301620177FE10
:1022600007C0CC24DD247601C418D508E608F70899
:10227000C416D506E606F7060CF442C1CC24DD24CC
:102280007601C41AD50AE60AF70A8C159D05AE0533
:10229000BF05ACF477FF02C0B701A601D301C201AC
:1022A00077FE07C088279927DC0184199509A609BC
:1022B000B70984179507A607B7070CF423C10415BF
:1022C0001505260537050CF41FC180915B02882394
:1022D00069F08091FB0390E0019663E070E00E945A
:1022E000BC229091FB0360E09813DBC38FEF9FEF5C
:1022F00090939C0380939B0387EB92E09093FA0367
:102300008093F9031E0125E5220E311C809169039B
:10231000811180C0C1010E94C4098EE0F101DE017B
:10232000A858BF4F01900D928A95E1F78EE0FE010B
:10233000E858FF4FDE01A659BF4F01900D928A95D4
:10234000E1F7EA968EAD9FADEA9783353AE49307BD
:1023500009F0DCC0AC969FAF8EAFAC972EE0FE01CB
:10236000E659FF4FDE01AC56BF4F01900D922A9502
:10237000E1F7CC56DF4F99838883C459D0402EE0D3
:10238000FE01EC56FF4FDE01AA57BF4F01900D92A0
:102390002A95E1F72EE0FE01EA57FF4FDE01D996BC
:1023A00001900D922A95E1F79AAF89AF28961FAE5A
:1023B000289711E029961FAF29972A961FAE2A97D2
:1023C0002B961FAE2B972F961CAE1DAE1EAE1FAECA
:1023D0002F9760961FAE609761961FAE61976596C6
:1023E0001CAE1DAE1EAE1FAE65978CE1FE01F996C8
:1023F000ADE4B3E001900D928A95E1F70E941D03D0
:102400006093490370934A0380934B0390934C036A
:1024100010936903FF24F3948FE893E00E949905D9
:10242000181619060CF057C38FE893E00E94570561
:102430008D3091F32091D2023091D3028A3009F08D
:102440003AC32E583D4FD9011C9268E871E082E7EB
:1024500092E00E944E23892B09F064C00E94A509D6
:10246000C4C0C8010E94E009D7018D937D01E2E359
:10247000F1E09191891779F0B1E0E134FB07C9F7F8
:1024800090E00F5F1F4F0537110509F057CD9923D5
:1024900009F456CD5ECD91E0F4CFCE0101960E94B5
:1024A000D5080B811C81C653DF4F19830883CA5C92
:1024B000D0400D811E818F809884CE52DF4F99824B
:1024C0008882C25DD040A984BA84C453DF4FB982E8
:1024D000A882CC5CD0402B843C84CD84DE84C25363
:1024E000DF4FD982C882CE5CD040FBCD0CE310E038
:1024F00020E030E0A3CE8CE390E0A0E0B0E0A8CEF6
:1025000080E0EFCE82E0EDCE81E0EBCECE018C56C6
:102510009F4F0E94D508CC56DF4F88819981C459BE
:10252000D04027CF44E050E06CE871E082E792E0D1
:102530000E9457236C01892B09F04DC085E1ECE521
:10254000F2E0D10101900D928A95E1F7810186E7D1
:1025500092E0C114D10411F090E080E068EE71E0E7
:102560000E943D1F009729F488EC91E00E94FC082E
:102570003CC00E94161F6F3F71058105910521F037
:1025800018F084EC91E0F2CFB2E1CB16D104C9F09F
:10259000F8016283BFEFCB1ADB0A0F5F1F4FE3E145
:1025A000CE16D104A1F6D1018D919C918C34904529
:1025B00029F4F101848984518C3438F080EC91E065
:1025C000D5CFD10154966C93E5CFC1010E94AD0ADD
:1025D0008DEB91E0CBCF6CE971E082E792E00E9455
:1025E0004E23892B39F40E948B091092D30210924A
:1025F000D20212CF45E050E061E971E082E792E05B
:102600000E9457236C01892B09F04EC0810187E796
:1026100092E0C114D10411F090E080E068EE71E026
:102620000E943D1F009719F489EB91E09FCF0E9413
:10263000161F6F3F71058105910509F068F4262F7B
:10264000E2E3F1E03191231751F031E4832E31E0E0
:10265000932E8E169F06B1F785EB91E087CFF1019F
:102660009F01221933092C153D056CF42191822E0E
:10267000912CB12CA12C681579058A059B0581F751
:1026800081EB91E073CFD8016D938D01BFEFCB1A31
:10269000DB0AEDE0CE16D10409F0B9CFC1010E94EA
:1026A000410A8EEA91E062CF67E971E082E792E049
:1026B0000E944E23892B51F48AE591E00E94410A41
:1026C00060E087E690E00E94310A8DCF61EA71E018
:1026D00082E792E00E944E23892B49F48FE192E039
:1026E0000E943505809148030E944C097ECF44E04A
:1026F00050E065EA71E082E792E00E945723892B5F
:10270000A1F486E792E00E94F81E8430910518F04B
:102710008BE192E02BCF80934803682F86E690E010
:102720000E94310A88E192E021CF6AEA71E082E7F3
:1027300092E00E944E23892B51F481E192E00E94A5
:10274000350580911F0190E00E945D0973C060EB28
:1027500071E082E792E00E944E23892B41F068EB02
:1027600071E082E792E00E944E23892B79F461E0C8
:1027700080917802813309F060E060931F0185E663
:1027800090E00E94310A8EE092E0F0CE60EC71E0C1
:1027900082E792E00E944E23892B29F485E491E0A0
:1027A0000E94AD0A5BCE6AEC71E082E792E00E9483
:1027B0004E23892B09F043C087EA91E00E9435053A
:1027C00080914203909143030E945D0980E20E9440
:1027D000300580914003909141030E945D0980E2A1
:1027E0000E94300580913E0390913F030E945D0955
:1027F00080E20E94300580913C0390913D030E944D
:102800005D0980E20E94300580913B0390E00E94C8
:102810005D0980E20E94300500EF12E0D8018D9141
:102820008D01882351F081E30E943005B3E002302E
:102830001B07A1F70E94F808D8CE80E3F5CF60ED22
:1028400071E082E792E00E944E23892B29F4F092F6
:10285000D9028BE092E08ACE44E050E064ED71E072
:1028600082E792E00E945723892B01F586E792E0E8
:102870000E94F81E2091FB03213031F49C0121506D
:1028800031092431310518F087E092E06FCE809352
:1028900006030E9474036093020370930303809302
:1028A00004039093050384E092E060CE69ED71E04B
:1028B00082E792E00E944E23892B49F48FEF91E04A
:1028C0000E94350581E491E00E94EB08B3CF6DEDE5
:1028D00071E082E792E00E944E23892B19F481EF88
:1028E00091E044CE61EE71E082E792E00E944E23D7
:1028F000892B39F48CEE91E00E943505809113010B
:10290000F3CE44E050E065EE71E082E792E00E9491
:102910005723892BB9F486E792E00E94F81E9C01A8
:10292000215031092431310518F088EE91E01ECE96
:1029300080931301682F84E690E00E94310A85EEAF
:1029400091E014CE6AEE71E082E792E00E944E239D
:10295000892BE1F581EA91E00E94350582E10E9430
:10296000FB020E945D0980E20E94300583E10E9423
:10297000FB020E945D0980E20E94300502E311E043
:10298000D12CF801E1908F018E2D0E949602892BA7
:1029900071F4DD2019F08CE20E9430056E2D70E09C
:1029A00090E080E04AE00E940809DD24D394CE50F4
:1029B000DF4F88809980C25FD0400815190509F75C
:1029C000D11038CF8DE20E94300534CF6FEE71E028
:1029D00082E792E00E944E23892B51F480EE91E031
:1029E0000E94350580917102082E000C990BACCE27
:1029F00044E050E063EF71E082E792E00E945723E9
:102A0000892BE9F486E792E00E94F81E8C01865A31
:102A10009F4F853B910518F08CED91E0A7CD802F5D
:102A20000E94E209602F82E690E00E94310A65EA86
:102A300083E690E00E94310A89ED91E097CD68EF3E
:102A400071E082E792E00E944E23892B39F483EDF6
:102A500091E00E9435058091FB0346CE6DEF71E059
:102A600082E792E00E944E23892B81F064E072E0BD
:102A700082E792E00E944E23892B41F06BE072E0E6
:102A800082E792E00E944E23892B69F480917702BD
:102A900080539091FB03891303C080ED91E066CDD4
:102AA00061E00E947D0A80917202882309F49DCD25
:102AB0008CEC91E05BCD2F3531050CF0ADCCA9014C
:102AC0004F5F5F4F5093D3024093D2022E583D4F39
:102AD000D9018C93A1CC0E941D0300914903109150
:102AE0004A0320914B0330914C03AB01BC01401BC6
:102AF000510B620B730B77FDDFC7D901C8018851F9
:102B00009C4FAF4FBF4F8093490390934A03A093CC
:102B10004B03B0934C030E941D0300914903109195
:102B20004A0320914B0330914C03601B710B820BC5
:102B3000930B161617061806190674F40E941D0347
:102B400068517C4F8F4F9F4F6093490370934A03A6
:102B500080934B0390934C030E947403C852DF4F41
:102B6000688379838A839B83C85DD04083E10E9418
:102B7000FB02C853DF4F99838883C85CD04082E151
:102B80000E94FB02C453DF4F99838883CC5CD04002
:102B90000E94BF02BC018091D9028823A9F0109243
:102BA000D90281E08093D802C852DF4F8880998093
:102BB000AA80BB80C85DD0408092D4029092D5029A
:102BC000A092D602B092D7028091D8028823E9F071
:102BD0008091D4029091D502A091D602B091D702F3
:102BE000C852DF4FA880B980CA80DB80C85DD04062
:102BF000A81AB90ACA0ADB0AD601C50184369105AA
:102C0000A105B10510F01092D8023091D802C09001
:102C10004D03D0904E03CC50DF4FD982C882C45FA1
:102C2000D040E0904F03F0905003C452DF4FF98240
:102C3000E882CC5DD040E091510380915203009135
:102C4000530310915403CC52DF4F19830883C45DA2
:102C5000D0408090550390905603C252DF4F998226
:102C60008882CE5DD0405091570340915803A09088
:102C70005903B0905A03C253DF4FB982A882CE5C89
:102C8000D040B0905B03CE52DF4FB882C25DD040DF
:102C9000C0905C03C951DF4FC882C75ED040D0905E
:102CA0005D03CA51DF4FD882C65ED040E0905E031C
:102CB000C052DF4FE882C05ED04080905F039090AA
:102CC0006003A0906103B0906203C451DF4F88821B
:102CD0009982AA82BB82CC5ED04090906303C0519F
:102CE000DF4F9882C05FD04090916403A09065034D
:102CF000B0906603C0906703D0906803C851DF4F5F
:102D0000A882B982CA82DB82C85ED04021E0672BEC
:102D100009F020E0CA51DF4FB880C65ED0402B15C5
:102D2000A9F0CA51DF4F2883C65ED040C852DF4F9A
:102D3000C880D980EA80FB80C85DD040C451DF4F95
:102D4000C882D982EA82FB82CC5ED040C852DF4F73
:102D5000C880D980EA80FB80C85DD040C451DF4F75
:102D600088809980AA80BB80CC5ED040C818D908E2
:102D7000EA08FB080AE1C016D104E104F10428F0D6
:102D8000C052DF4F2883C05ED040C052DF4F188151
:102D9000C05ED040C653DF4F1883CA5CD040C051DC
:102DA000DF4F8880C05FD0403815A9F0C051DF4F99
:102DB0003883C05FD040C852DF4FA880B980CA8036
:102DC000DB80C85DD040C851DF4FA882B982CA827B
:102DD000DB82C85ED040C852DF4FC880D980EA800D
:102DE000FB80C85DD040C851DF4F88809980AA80A1
:102DF000BB80C85ED040C818D908EA08FB080AE1C1
:102E0000C016D104E104F10470F1CB51DF4F3883D7
:102E1000C55ED040CB51DF4F1881C55ED04021E068
:102E20009227111101C090E0C951DF4F8880C75E21
:102E3000D04081101EC0CB51DF4F9880C55ED0407E
:102E4000911006C001E0C951DF4F0883C75ED04032
:102E5000CE52DF4F1882C25DD040CF50DF4F188274
:102E6000C15FD04023C0CB51DF4F9883C55ED040B7
:102E7000D1CF992391F3CE52DF4F1881C25DD0405C
:102E8000112309F483C4CE52DF4F1882C25DD040B3
:102E900003E51AE4CC50DF4F19830883C45FD040A8
:102EA00011E0CF50DF4F1883C15FD040CC50DF4FCF
:102EB00088809980C45FD0409E8E8D8EC452DF4F33
:102EC000A880B980CC5DD040B8A2AF8EE9A38AA318
:102ED000CC52DF4FC880D980C45DD040DCA2CBA2E9
:102EE000C252DF4FE880F980CE5DD040FEA2EDA255
:102EF0005FA348A7C253DF4F08811981CE5CD04041
:102F00001AA709A7CE52DF4F1881C25DD0401BA778
:102F1000C951DF4F8880C75ED0408CA6CA51DF4FB1
:102F20009880C65ED0409DA6C052DF4FA880C05E8C
:102F3000D040AEA6C451DF4FC880D980EA80FB8064
:102F4000CC5ED040CFA6D8AAE9AAFAAAC051DF4FDA
:102F5000D880C05FD040DBAACB51DF4FE880C55E90
:102F6000D040ECAAC851DF4F88809980AA80BB80EE
:102F7000C85ED0408DAA9EAAAFAAB8AE112309F4AC
:102F8000C2C086E0FE017F96DE01AA54BF4F0190C9
:102F90000D928A95E1F7C452DF4FA880B980CC5DCD
:102FA000D040C853DF4FC880D980C85CD040CA1415
:102FB000DB0434F4C452DF4FD982C882CC5DD040E8
:102FC000CC52DF4FE880F980C45DD040C853DF4F5A
:102FD00008811981C85CD040E016F10634F4CC5267
:102FE000DF4F19830883C45DD040C452DF4F88800F
:102FF0009980CC5DD040CA54DF4F99828882C65BED
:10300000D040CC52DF4FA880B980C45DD040C654B8
:10301000DF4FB982A882CA5BD04086E0FE01EA5445
:10302000FF4FDE01A055BF4F01900D928A95E1F749
:1030300086E0FE01E055FF4FDE015F9601900D92A4
:103040008A95E1F786E0FE01B596DE01AE53BF4FEB
:1030500001900D928A95E1F7C252DF4FC880D98066
:10306000CE5DD040C453DF4FE880F980CC5CD040C7
:10307000EC14FD0434F4C252DF4FF982E882CE5DD5
:10308000D040C253DF4F08811981CE5CD040C45379
:10309000DF4F88809980CC5CD0400815190534F446
:1030A000C253DF4F99828882CE5CD040C252DF4F3C
:1030B000A880B980CE5DD040CE53DF4FB982A882C0
:1030C000C25CD040C253DF4FC880D980CE5CD040B4
:1030D000CA53DF4FD982C882C65CD04086E0FE0169
:1030E000EE53FF4FDE01A454BF4F01900D928A951D
:1030F000E1F786E0FE01E454FF4FDE019596019072
:103100000D928A95E1F7C452DF4FE880F980CC5DDB
:10311000D040F8A2EF8ECC52DF4F08811981C45DF8
:10312000D0401CA30BA3C252DF4F88809980CE5D94
:10313000D0409EA28DA2C253DF4FA880B980CE5C42
:10314000D040BAA6A9A68CE1FE017D96DE011196BB
:1031500001900D928A95E1F7CD80DE80CF51DF4F4F
:10316000D982C882C15ED040EB84FC84CD51DF4F50
:10317000F982E882C35ED040CE52DF4FF880C25D54
:10318000D040F110ECC3C853DF4F08811981C85CEF
:10319000D0400C151D050CF438C3CC52DF4F08810C
:1031A0001981C45DD0400C191D09101611060CF0D0
:1031B00073C3C853DF4F68817981C85CD0406C19F4
:1031C0007D09072E000C880B990B0E94BD206B0116
:1031D0007C01B801110F880B990B0E94BD209B0147
:1031E000AC01C701B6010E9413202B013C0120E075
:1031F00030E0A9010E94092087FD4EC320E030E0A5
:1032000040E85FE3C301B2010E94AC21181634F418
:10321000412C512C10E8612E1FE3712EC453DF4F57
:10322000C880D980CC5CD040CD51DF4FE880F98098
:10323000C35ED040CE14DF040CF439C3C253DF4F59
:1032400008811981CE5CD0400E191F091016110695
:103250000CF074C3B6016E197F09072E000C880BA1
:10326000990B0E94BD206B017C01B801110F880BE6
:10327000990B0E94BD209B01AC01C701B6010E94C1
:1032800013206B017C0120E030E0A9010E9409209D
:1032900087FD54C320E030E040E85FE3C701B6019A
:1032A0000E94AC21181634F4C12CD12CA0E8EA2ECF
:1032B000AFE3FA2EA3019201C301B2010E94B12132
:1032C0004B015C01A7019601C701B6010E94B12123
:1032D0009B01AC01C501B4010E949D1F0E942C22DC
:1032E000CA50DF4F688379838A839B83C65FD0404F
:1032F0002DEC3CEC4CE45DE30E94092018160CF028
:1033000028C32DEC3CEC4CE45DE3CA50DF4F6881F0
:1033100079818A819B81C65FD0400E949C1F23E3F4
:1033200033E343E75FE30E9413204B015C0120E09D
:1033300030E040E85FE30E94AC21181634F4812CA1
:10334000912CE0E8AE2EEFE3BE2ECA50DF4F28816D
:1033500039814A815B81C65FD040C501B4010E94BA
:1033600013204B015C01A30192010E94B1212B01AA
:103370003C01A7019601C501B4010E94B1214B0196
:103380005C0120E03EEF4FEF56E4C301B2010E9422
:10339000B1210E9485207B0120E03EEF4FEF56E4F3
:1033A000C501B4010E94B1210E9485208B01CC503F
:1033B000DF4FC880D980C45FD040D0924E03C09206
:1033C0004D03C452DF4F88809980CC5DD0409092ED
:1033D000500380924F03CF51DF4FA880B980C15E68
:1033E000D040B0925203A0925103CC52DF4FC8801C
:1033F000D980C45DD040D0925403C0925303C252CE
:10340000DF4F88809980CE5DD040909256038092A5
:103410005503CD51DF4FA880B980C35ED040B09234
:103420005803A0925703C253DF4FC880D980CE5CA7
:10343000D040D0925A03C0925903CE52DF4FD88069
:10344000C25DD040D0925B03C951DF4F8880C75E18
:10345000D04080925C03CA51DF4F9880C65ED04056
:1034600090925D03C052DF4FA880C05ED040A09212
:103470005E03C451DF4F88809980AA80BB80CC5EF8
:10348000D04080925F0390926003A0926103B0925B
:103490006203C051DF4F9880C05FD04090926303B9
:1034A000CB51DF4FA880C55ED040A0926403C851C5
:1034B000DF4F88809980AA80BB80C85ED040809210
:1034C000650390926603A0926703B09268038091AF
:1034D000480380FF03C0F194E194F10881FD03C02B
:1034E00011950195110980911F01811104C010E00F
:1034F00000E0F12CE12CB701FF0C880B990B0E9426
:10350000BD202B013C01A0901B01B0901C01C0907C
:103510001D01D0901E01C253DF4FA882B982CA821A
:10352000DB82CE5CD040B801110F880B990B0E9452
:10353000BD206B017C018090440390904503A090D6
:103540004603B0904703CC52DF4F88829982AA820B
:10355000BB82C45DD040C253DF4F288139814A818C
:103560005B81CE5CD040C301B2010E94B1214B010E
:103570005C01CC52DF4F288139814A815B81C45D77
:10358000D040C701B6010E94B1219B01AC01C50129
:10359000B4010E949D1F4B015C0120E03EEF4FEF04
:1035A00056E40E94AC210FEF1FE718168CF020E0C4
:1035B0003EEF4FEF56ECC501B4010E94092001E037
:1035C00010E887FD05C0C501B4010E9485208B016C
:1035D000A7019601C253DF4F688179818A819B815F
:1035E000CE5CD0400E94B1216B017C01CC52DF4FF8
:1035F000288139814A815B81C45DD040C301B20119
:103600000E94B1219B01AC01C701B6010E949C1F21
:103610006B017C0120E03EEF4FEF56E40E94AC21AD
:1036200018160CF4A1C120E03EEF4FEF56ECC70195
:10363000B6010E94092087FD9CC1C701B6010E9406
:1036400085207B0135E7C32E33E0D32E47E0842E5F
:1036500043E0942E52E8652E53E0752EB12CA12C38
:10366000D3018D913D010E94960221E0892B09F042
:1036700020E02601F6018081281729F1F4018081DC
:103680009181A281B381C852DF4F488159816A81FB
:103690007B81C85DD040481B590B6A0B7B0BDB015B
:1036A000CA010897A105B10570F0D6012C93C85244
:1036B000DF4F288139814A815B81C85DD0402083FA
:1036C000318342835383BFEFCB1ADB0AF20160815F
:1036D000C5010E946F08FFEFAF1ABF0A24E0820EF7
:1036E000911C3DE0A316B10409F0BACFC090FB03D2
:1036F00041E0C412F6C1C052DF4F8880C05ED040A6
:10370000882061F080915B03CC24C394D12C882362
:1037100039F0C653DF4F1882CA5CD040D12CC12C7F
:10372000B0900603BB2079F10E947403409002031D
:1037300050900303609004037090050364197509A9
:1037400086099709603971408105910508F0C1C16A
:1037500032E1B31609F4C0C13B1508F40FC141E1D1
:1037600090E080E021E030E8B41609F412C1AB2DFE
:10377000A150BB0B21E030E002C0220F331FAA95FD
:10378000E2F7C22AD32AC701980103C1C453DF4F0D
:1037900088809980CC5CD040C253DF4F9982888268
:1037A000CE5CD040C453DF4F5881CC5CD040C35373
:1037B000DF4F4881CD5CD040C252DF4F9982888272
:1037C000CE5DD040C853DF4FA880B980C85CD040E0
:1037D000CC52DF4FB982A882C45DD040C853DF4FBE
:1037E000E881C85CD040C753DF4F8881C95CD040B6
:1037F000C452DF4FB982A882CC5DD04001E0CE52E6
:10380000DF4F0883C25DD04028CBCF51DF4F088106
:103810001981C15ED040C452DF4F88809980CC5D51
:10382000D0400819190910161106B4F5C853DF4F16
:1038300068817981C85CD040CF51DF4FA880B980C2
:10384000C15ED0406A197B09072E000C880B990BCA
:103850000E94BD206B017C01B801110F880B990BF0
:103860000E94BD209B01AC01C701B6010E9413203C
:103870002B013C0120E030E040E85FEB0E94092092
:1038800087FD0EC020E030E0A901C301B2010E9413
:10389000AC2118160CF0C2CC412C512C3201BECCFC
:1038A000412C512CB0E86B2EBFEB7B2EB7CCCD5109
:1038B000DF4F08811981C35ED040C252DF4F88803C
:1038C0009980CE5DD0400819190910161106B4F57B
:1038D000C453DF4F68817981CC5CD040CD51DF4F3C
:1038E000A880B980C35ED0406A197B09072E000CFE
:1038F000880B990B0E94BD206B017C01B801110F50
:10390000880B990B0E94BD209B01AC01C701B60139
:103910000E9413206B017C0120E030E040E85FEB67
:103920000E94092087FD0EC020E030E0A901C701F8
:10393000B6010E94AC2118160CF0BCCCC12CD12CC5
:103940007601B8CCC12CD12CF0E8EF2EFFEBFF2E86
:10395000B1CC812C912C54012401350112CD10E001
:1039600000E0F12CE12C23CDEE24EA947FE7F72E42
:1039700069CEEE24E39460E8F62E64CE53E1B516EA
:1039800009F4A4C064E181E090E8B612F0CE30E022
:1039900020E041E08115B0E49B070CF440E0409347
:1039A000FD0241E08130E0EC9E070CF040E04093E6
:1039B000FE0241E02130F0EC3F070CF040E0409384
:1039C000FF0241E0211550E435070CF440E040933C
:1039D0000003C653DF4F8880CA5CD0408092010349
:1039E000D10111963C932E9391958195910913964F
:1039F0009C938E9312971596DC92CE92149746E084
:103A000050E065E171E0C1010E944123892B81F002
:103A100086E0F101A5E1B1E001900D928A95E1F710
:103A20000E94AC0626E030E0A10163E00E94D605CA
:103A3000CE52DF4F8881C25DD0400E946B02CF50D2
:103A4000DF4FA880C15FD040AA20B1F08DE4A82E3E
:103A500083E0B82ED12CC12CD101CD92DC92F5019E
:103A600061915F01C1010E94180AFFEFCF1ADF0ABE
:103A70002EE0C216D10481F7C853DF4F88809980A9
:103A8000C85CD0409092430380924203C453DF4FFE
:103A9000A880B980CC5CD040B0924103A092400392
:103AA00010933F0300933E03F0923D03E0923C03EA
:103AB00080915B0380933B0380E090E0892B11F4BD
:103AC0000C9486110E9400000C9486118FEF9FE7E2
:103AD0005ECF1092060357CE90E080E02FEF3FE7D5
:103AE00058CFB2E0CB1250C180915B03C052DF4F80
:103AF0008880C05ED040882061F0882361F0C65382
:103B0000DF4F1882CA5CD040D12CB12CA12C912C53
:103B100006C08111F9CFDE2CBF2CA02E912EC653EA
:103B2000DF4F8880CA5CD040809201030E947403FA
:103B30004090EC025090ED026090EE027090EF0227
:103B40009B01AC01241935094609570929013A019D
:103B500038E0431651046104710408F469CF60939E
:103B6000EC027093ED028093EE029093EF022091AD
:103B7000E302882009F4E7C021110BC06093DF0243
:103B80007093E0028093E1029093E20221E020939F
:103B9000DE02C653DF4F8880CA5CD0408092E302C9
:103BA000882009F12091DE022223C9F04090DF0233
:103BB0005090E0026090E1027090E2029B01AC0143
:103BC000241935094609570929013A0134EF4316EA
:103BD00031E053066104710410F01092DE0220916E
:103BE000DE022223A1F04090DA025090DB026090C6
:103BF000DC027090DD02461A570A680A790ACC2462
:103C0000C39414141504160417040CF0C12C8A2D47
:103C1000992D0E9421082091E8023091E9024091FB
:103C2000EA025091EB020E949D1F2B013C018D2D59
:103C30009B2D0E9421089B01AC016091E4027091D0
:103C4000E5028091E6029091E7020E949C1F4B01E1
:103C50005C01C301B2010E94852061384FEF7407F7
:103C60000CF48BC06038710514F06FE770E0C65338
:103C7000DF4F6883CA5CD040C501B4010E94852033
:103C800091E8D92E6138AFEF7A0734F060387105CA
:103C900014F06FE770E0D62EC653DF4FB881CA5CD0
:103CA000D0406B2FBB0F770B880B990B0E94BD2068
:103CB0009B01AC01C301B2010E949C1F6093E8020A
:103CC0007093E9028093EA029093EB026D2D0D2C24
:103CD000000C770B880B990B0E94BD209B01AC0157
:103CE000C501B4010E949C1F6093E4027093E50239
:103CF0008093E6029093E702C653DF4F8880CA5C48
:103D0000D040811007C0D11005C0809114018C15DE
:103D100009F48ECEC0921401D10113961C921E920A
:103D20001297CC92C653DF4F8880CA5CD040119660
:103D30008C9211971296DC920E94AC0624E030E03F
:103D4000A10164E073CE222309F423CF2091DE0287
:103D5000222309F41ECF2B013C014CE3440E511CDD
:103D6000611C711C4092DA025092DB026092DC020C
:103D70007092DD021092DE020CCF51E8C653DF4F85
:103D80005883CA5CD04078CFB80180E190E00E94AF
:103D9000900866277727601B710B8FE090E00E94E8
:103DA0009008B7018DE090E00E9490086627772781
:103DB0006E197F098EE090E00E949008C052DF4F9C
:103DC0009880C05ED040992049F090915B0381E0DB
:103DD0009827C653DF4F9883CA5CD040C653DF4F45
:103DE0006881CA5CD04081E190E00E946F0820CEDB
:103DF000FC0188279927E89421912032E9F32930A2
:103E000010F02E30C8F32B3241F02D3239F4689483
:103E100004C00E947E1F820F911D219120532A30E1
:103E2000C0F31EF4909581959F4F08951F93FC0158
:103E300099278827BC01E89411911032E9F31930D1
:103E400010F01E30C8F31B3251F01D3249F4689453
:103E500006C00E94691F610F711D811D911D119186
:103E600010531A30B0F33EF490958095709561959B
:103E70007F4F8F4F9F4F1F9108954CEF53E00E944B
:103E8000421F0895FA01A191B081009719F410978B
:103E9000E1F0CD01DC01CD010D90002011F4C00155
:103EA00013C0FB012191222319F02015D9F7F3CF7C
:103EB000FB012191201519F41E92119606C02223B0
:103EC000C1F70D900020A1F7D001FA01A193B083B2
:103ED0000895592F482F372F262F660F771F881FD9
:103EE000991F660F771F881F991F620F731F841F0A
:103EF000951F660F771F881F991F08957AE0979F77
:103F0000902D879F802D910D11240895F999FECF52
:103F100092BD81BDF89A992780B50895262FF99909
:103F2000FECF1FBA92BD81BD20BD0FB6F894FA9A9C
:103F3000F99A0FBE019608955058BB27AA270E94F0
:103F4000B41F0C945E210E94252138F00E942C2180
:103F500020F039F49F3F19F426F40C9422210EF43A
:103F6000E095E7FB0C941C21E92F0E94832158F374
:103F7000BA17620773078407950720F079F4A6F54E
:103F80000C94A5210EF4E0950B2EBA2FA02D0B0159
:103F9000B90190010C01CA01A0011124FF27591B8E
:103FA00099F0593F50F4503E68F11A16F040A22F94
:103FB000232F342F4427585FF3CF46953795279505
:103FC000A795F0405395C9F77EF41F16BA0B620B04
:103FD000730B840BBAF09150A1F0FF0FBB1F661F4B
:103FE000771F881FC2F70EC0BA0F621F731F841F8E
:103FF00048F4879577956795B795F7959E3F08F0B4
:10400000B0CF9395880F08F09927EE0F9795879575
:1040100008950E94F82008F481E008950E94352157
:10402000E3950C946F210E9427200C945E210E943E
:104030002C2158F00E94252140F029F45F3F29F0FF
:104040000C941C2151110C94A6210C9422210E9445
:10405000832168F39923B1F3552391F3951B550BF5
:10406000BB27AA2762177307840738F09F5F5F4F4B
:10407000220F331F441FAA1FA9F335D00E2E3AF08A
:10408000E0E832D091505040E695001CCAF72BD0A2
:10409000FE2F29D0660F771F881FBB1F26173707F3
:1040A0004807AB07B0E809F0BB0B802DBF01FF2725
:1040B00093585F4F3AF09E3F510578F00C941C21C5
:1040C0000C94A6215F3FE4F3983ED4F38695779550
:1040D0006795B795F7959F5FC9F7880F911D9695DE
:1040E000879597F90895E1E0660F771F881FBB1F3A
:1040F000621773078407BA0720F0621B730B840BE7
:10410000BA0BEE1F88F7E09508950E948C20689402
:10411000B1110C94A62108950E948B2188F09F571D
:1041200098F0B92F9927B751B0F0E1F0660F771FDB
:10413000881F991F1AF0BA95C9F714C0B13091F0D1
:104140000E94A521B1E008950C94A521672F782F36
:104150008827B85F39F0B93FCCF386957795679596
:10416000B395D9F73EF490958095709561957F4F02
:104170008F4F9F4F0895E89409C097FB3EF49095A8
:104180008095709561957F4F8F4F9F4F9923A9F030
:10419000F92F96E9BB279395F695879577956795BF
:1041A000B795F111F8CFFAF4BB0F11F460FF1BC003
:1041B0006F5F7F4F8F4F9F4F16C0882311F096E996
:1041C00011C0772321F09EE8872F762F05C0662344
:1041D00071F096E8862F70E060E02AF09A95660FFD
:1041E000771F881FDAF7880F9695879597F90895B6
:1041F000990F0008550FAA0BE0E8FEEF16161706F8
:10420000E807F907C0F012161306E407F50798F05F
:10421000621B730B840B950B39F40A2661F0232B78
:10422000242B252B21F408950A2609F4A140A695F4
:104230008FEF811D811D089597F99F6780E870E0D9
:1042400060E008959FEF80EC089500240A9416160C
:10425000170618060906089500240A941216130674
:104260001406050608950C9422210E948B21D8F390
:10427000E894E0E0BB279F57F0F02AED3FE049ECDF
:1042800006C0EE0FBB0F661F771F881F28F0B23ADB
:1042900062077307840728F0B25A620B730B840B12
:1042A000E3959A9572F7803830F49A95BB0F661FA4
:1042B000771F881FD2F790480C946E22092E039422
:1042C000000C11F4882352F0BB0F40F4BF2B11F403
:1042D00060FF04C06F5F7F4F8F4F9F4F0895EF9334
:1042E000E0FF07C0A2EA2AED3FE049EC5FEB0E9445
:1042F000B41F0E945E210F90039401FC9058ECEAD9
:10430000F0E00C94812257FD9058440F551F59F04E
:104310005F3F71F04795880F97FB991F61F09F3FB2
:1043200079F087950895121613061406551FF2CFDB
:104330004695F1DF08C0161617061806991FF1CF2B
:1043400086957105610508940895E894BB27662752
:104350007727CB0197F908950E94F82008F48FEF92
:1043600008950E94C4210C945E210E94252138F0FA
:104370000E942C2120F0952311F00C941C210C9408
:10438000222111240C94A6210E94832170F3959F71
:10439000C1F3950F50E0551F629FF001729FBB273C
:1043A000F00DB11D639FAA27F00DB11DAA1F649FD8
:1043B0006627B00DA11D661F829F2227B00DA11D8B
:1043C000621F739FB00DA11D621F839FA00D611D11
:1043D000221F749F3327A00D611D231F849F600D32
:1043E000211D822F762F6A2F11249F5750409AF05B
:1043F000F1F088234AF0EE0FFF1FBB1F661F771FE7
:10440000881F91505040A9F79E3F510580F00C94B1
:104410001C210C94A6215F3FE4F3983ED4F38695CB
:1044200077956795B795F795E7959F5FC1F7FE2B51
:10443000880F911D9695879597F908959F930E94EF
:1044400035210F9007FCEE5F0C946F2119F416F4E0
:104450000C9422210C946C220E948B21B8F3992396
:10446000C9F3B6F39F57550B87FF0E947A220024A9
:10447000A0E640EA900180585695979528F4805C14
:10448000660F771F881F20F026173707480730F47C
:10449000621B730B840B202931294A2BA695179494
:1044A0000794202531254A2758F7660F771F881F64
:1044B00020F026173707480730F4620B730B840B84
:1044C000200D311D411DA09581F7B901842F915810
:1044D000880F9695879508959F3F31F0915020F46D
:1044E000879577956795B795880F911D96958795D0
:1044F00097F9089591505040660F771F881FD2F7A3
:1045000008959F938F937F936F93FF93EF939B01F6
:10451000AC010E94B121EF91FF910E9495222F9151
:104520003F914F915F910C94B121DF93CF931F93F3
:104530000F93FF92EF92DF927B018C01689406C08B
:10454000DA2EEF010E94C421FE01E894A591259185
:10455000359145915591A6F3EF010E94B41FFE01DC
:104560009701A801DA9469F7DF90EF90FF900F911F
:104570001F91CF91DF91089597FB072E16F40094B9
:1045800007D077FD09D00E942D2307FC05D03EF40B
:10459000909581959F4F0895709561957F4F0895EF
:1045A000A1E21A2EAA1BBB1BFD010DC0AA1FBB1F37
:1045B000EE1FFF1FA217B307E407F50720F0A21BA9
:1045C000B30BE40BF50B661F771F881F991F1A9416
:1045D00069F760957095809590959B01AC01BD0140
:1045E000CF010895052E97FB1EF400940E94092325
:1045F00057FD07D00E94D02207FC03D04EF40C9444
:10460000092350954095309521953F4F4F4F5F4F6F
:10461000089590958095709561957F4F8F4F9F4F2E
:104620000895EE0FFF1F0590F491E02D0994A29FCD
:10463000B001B39FC001A39F700D811D1124911D76
:10464000B29F700D811D1124911D08950E941723A2
:10465000B7FF0895821B930B0895AA1BBB1B51E162
:1046600007C0AA1FBB1FA617B70710F0A61BB70BE2
:10467000881F991F5A95A9F780959095BC01CD0187
:104680000895FB01DC0104C08D910190801921F493
:1046900041505040C8F7881B990B0895FB01DC017D
:1046A0008D91019080190110D9F3990B0895FB01A8
:1046B000DC014150504030F08D910190801919F487
:0E46C0000020B9F7881B990B0895F894FFCFDE
:1046CE0000C18081000000FFFFFFFF00E10000003D
:1046DE0000000008FF00000000FFFF0000803F0107
:1046EE000000FF01FF0300000000B305610626066F
:1046FE000B060001030405060708090A0E0F101425
:10470E0015312E33004C5021201F1E1508142B2C52
:10471E000A09E0061A160407E13200010304050631
:10472E000708090A14150F000000001A05040552A7
:10473E000550059905570575050000000007081E70
:10474E00071E081D080D0A00474554005345542006
:10475E000050494E532000524553455450494E5334
:10476E0000494E5600494E562000535449434B00C3
:10477E00535449434B203000535449434B2031008E
:10478E0052455345544B45595300535441544500DB
:10479E0043414C0042544E2000564552004445566B
:1047AE0000535044005350442000444941470052A6
:1047BE004F5400524F5420004D4F4445004D4F442E
:1047CE00452030004D4F44452031004D4F4445208B
:0247DE003200A7
:00000001FF
