:100000000C949F010C94D3010C94D3010C94D30154
:100010000C94D3010C94D3010C94D3010C94D30110
:100020000C94D3010C94D3010C94DD0A0C945A0B5C
:100030000C94D3010C94D3010C94D3010C94D301F0
:100040000C94D3010C94D3010C94D3010C94D301E0
:100050000C94D3010C94D3010C94D3010C94930A07
:100060000C94D3010C94D3010C94D3010C94D301C0
:100070000C94D3010C94D3010C94D3010C94D301B0
:100080000C94D3010C94D3010C94D3010C94D301A0
:100090000C94D3010C94D3010C94D3010C94D30190
:1000A0000C94D3010C94D3010C94D30105A84CCD2E
:1000B000B2D44EB93836A9020C50B9918688083CA2
:1000C000A6AAAA2ABE000000803F05010902A101DC
:1000D0000901A1008504050919012903150025015D
:1000E00075019503810275059501810305010930AC
:1000F000093109381581257F750895038106C0C02F
:1001000005010905A1018503093009311601802681
:10011000FF7F75109502810205091901291015004C
:100120002501750195108102C04F4B0043464700E1
:10013000080B000202020000090400000102020094
:100140000005240010010524010101042402060514
:100150002406000107058103100040090401000284
:100160000A00000007050202400000070583024064
:1001700000000403090412010002EF020140091209
:1001800003000001010203014A532D4B65797061A0
:1001900064004A532D4B65797061640044494147BE
:1001A0002000535441544520004F4B00455252000B
:1001B0004552520045525200455252004F4B004D9D
:1001C0004F444520004F4B0045525200524F54209F
:1001D000004F4B00455252005350442000444556B6
:1001E000204A532D4B45595041440056455220005A
:1001F0004F4B00455252004F4B00070605040100CB
:10020000080A0B0C0D0900000000240027002A003A
:100210002D003000000000002300260029002C00E3
:100220002F0000000000250028002B002E003100C8
:10023000040404040403040502020202040302028B
:10024000020206060606060604040202020404046C
:1002500008020110408040102040804080080204C5
:10026000018040201002011080102040402000003A
:10027000000200090F0000030401000C0000000050
:10028000000000000000000000000000000000006E
:1002900000000000002A2B280000000000000000E1
:1002A000000000000000000000000000002C9EB4D0
:1002B000A0A1A2A434A6A7A5AE362D3738271E1FAD
:1002C00020212223242526B333B62EB7B89F848558
:1002D000868788898A8B8C8D8E8F90919293949546
:1002E000969798999A9B9C9D2F3130A3AD35040524
:1002F000060708090A0B0C0D0E0F10111213141526
:10030000161718191A1B1C1DAFB1B0B5000501094D
:1003100006A1018502050719E029E71500250175E9
:1003200001950881029501750881039506750815E8
:100330000025730507190029738100C0F30D1124EE
:100340001FBECFEFDAE0DEBFCDBF14BE0FB6F8940C
:10035000A895809160008861809360001092600091
:100360000FBE23E0A0EEB1E001C01D92A73BB20793
:10037000E1F711E0A0E0B1E0E0EBF3E402C00590AA
:100380000D92A03EB107D9F711E0CFE9D1E004C04A
:100390002197FE010E948221CE39D107C9F70E9420
:1003A000400E0C94D6210C94000083E08093E90069
:1003B0008091F200882319F08AE38093E800089581
:1003C000FC0180914703882311F13FB7F89482E044
:1003D0008093E9002091F200822F90E01816190610
:1003E00014F481E090E0882339F0289844E64093A3
:1003F00046034091F1004083222339F02091F2001E
:10040000211103C02BE62093E8003FBF08958FEF32
:100410009FEF089581508F3008F047C0E82FF0E03B
:10042000EC5EFD4F0C948221310235022302290239
:100430002D0255025502550238023E024202460282
:100440004C0255025002809180008F77809380008B
:100450000895809180008F7DF9CF80918000877F03
:10046000F5CF84B58F7784BD089584B58F7DFBCF9C
:10047000809190008F7780939000089580919000F4
:100480008F7DF9CF80919000877FF5CF8091C0005C
:100490008F778093C00008958091C0008F7DF9CF41
:1004A0008091C200877F8093C20008951F93CF93ED
:1004B000DF93E0E7F2E09491E1E5F2E0D491E2E34A
:1004C000F2E0C491CC23B9F0182F992319F0892FA9
:1004D0000E940A02EC2FF0E0EE0FFF1FEE5DFD4FD1
:1004E000A591B4918FB7F894EC91111108C0D095F3
:1004F000DE23DC938FBFDF91CF911F910895DE2B18
:10050000F8CFCF93DF93282F30E0F901E259FD4F68
:100510008491F901E15BFD4FD491F901E05DFD4F5C
:10052000C491CC23A1F081110E940A02EC2FF0E0CB
:10053000EE0FFF1FEC5EFD4FA591B491EC91ED2302
:1005400081E090E009F480E0DF91CF91089580E0B0
:1005500090E0FACF80E10E948102892B19F08EE0B1
:100560000C94810290E080E00895CF93DF9390E0B7
:10057000FC01E15BFD4F2491805D9D4FFC01849166
:100580008823D1F090E0880F991FFC01EA5FFD4FAE
:10059000A591B491FC01EE5DFD4FC591D4916230FF
:1005A00071F49FB7F8943C91822F809583238C93AC
:1005B000E8812E2B28839FBFDF91CF9108958FB7BD
:1005C000F894EC912E2B2C938FBFF6CF8251E82F0D
:1005D000F0E0E650FE4FE49190917B008E2F880F63
:1005E000880F80729F7D892B80937B00E770E06489
:1005F000E0937C0080917A00806480937A008091FF
:100600007A0086FDFCCF8091780090917900089562
:100610003FB7F8948091420390914303A091440323
:10062000B091450326B5A89B05C02F3F19F0019650
:10063000A11DB11D3FBFBA2FA92F982F8827BC013C
:10064000CD01620F711D811D911D42E0660F771F64
:10065000881F991F4A95D1F708958F929F92AF9264
:10066000BF92CF92DF92EF92FF924B015C010E940A
:1006700008036B017C010E9408036C197D098E0937
:100680009F09683E734081059105A8F321E0821A15
:100690009108A108B10888EEC80E83E0D81EE11CBD
:1006A000F11C81149104A104B10429F7FF90EF908B
:1006B000DF90CF90BF90AF909F908F9008952FB70D
:1006C000F89460913E0370913F03809140039091B4
:1006D00041032FBF0895409123025091240220919D
:1006E00021023091220242175307B4F49091E8009E
:1006F0009570E1F39091E80092FD19C08093F100AC
:10070000809123029091240201968F739927892B5F
:1007100019F48EEF8093E8008091230290912402D7
:100720000196909324028093230281E0089580E053
:100730000895EF92FF920F931F93CF93DF93F82EBC
:10074000192FE62E042F81E0860F880F0E946B037D
:1007500083E00E946B03CF2DD12FEC0EFD2EF11CF8
:10076000CE15DF05B9F007FF13C0FE0184910E948A
:100770006B03182F80E00E946B0381232196811167
:10078000EFCFDF91CF911F910F91FF90EF900895E0
:100790008881EDCF81E0F5CFDF92EF92FF920F934A
:1007A0001F93CF93DF93D82E8A01EB017B01E40ED8
:1007B000F51ECE15DF0559F0D7FE12C0FE0184915B
:1007C0000E946B0321968111F4CF0FEF1FEFC80138
:1007D000DF91CF911F910F91FF90EF90DF900895DF
:1007E0008881EECF2FB7F89487708093E9009091BD
:1007F000E800892F807295FF04C09091F20080E498
:10080000891B2FBF08957F928F929F92AF92BF92C4
:10081000CF92DF92EF92FF920F931F93CF93DF93CC
:10082000C82E8B017A0180914703811110C08FEF90
:100830009FEFDF91CF911F910F91FF90EF90DF908D
:10084000CF90BF90AF909F908F907F9008958091B0
:10085000270280FF05C08091E00082608093E00065
:10086000CE2DDF2DD12C8AEFB82E8C2D8770982EAF
:100870008C2D8072882E8C2D8074782E9AE3A92E70
:10088000209719F4DD2009F452C08C2D0E94F20348
:1008900081110AC0BA94BB2051F261E070E080E09F
:1008A00090E00E942D03ECCF8C171D0611F00CF088
:1008B0008C2F9FB7F8949092E9002091E80025FDD5
:1008C00002C09FBFDDCF282F30E0C21BD30B882092
:1008D00029F08150A0F01092F100FBCFF801C7FC85
:1008E0000AC0815050F041914093F100FACF4491F9
:1008F0004093F10031968150D0F7020F131FDD2095
:1009000021F0A092E800D12CDCCF8091E80085FD99
:1009100007C0A092E800DD24D394209791F2F3CF92
:10092000209779F6772069F2A092E800CACF5D9807
:1009300084E680932602C7017CCF615030F020917D
:10094000F100FC0120830196F8CF289884E680937B
:10095000460308958091190281110DC082E08093B1
:10096000150284E08093160210921802109217026A
:1009700081E08093190285E192E008950F931F931F
:10098000CF93DF931F92CDB7DEB782E0898342E435
:1009900050E060E371E080E80E94CC030E94AA046A
:1009A000DC0112960D911C910115110589F0D801F9
:1009B000ED91FC910280F381E02DBE016F5F7F4FCE
:1009C000C801099597FD04C0F80100851185ECCF99
:1009D00089810F90DF91CF911F910F910895CF934F
:1009E000DF93EC0180911201882331F083E00E94B3
:1009F00003041816190634F081E090E09B838A8383
:100A000080E090E0DF91CF910895CF93DF931F9224
:100A1000CDB7DEB76983DC01ED91FC910280F381F3
:100A2000E02D41E050E0BE016F5F7F4F09950F90D0
:100A3000DF91CF910895682F88E493E00C94050529
:100A40000F931F93CF93DF938C01D0E0C0E0F801A8
:100A5000EC0FFD1F6491662341F088E493E00E944F
:100A60000505892B11F02196F2CFCE01DF91CF91B0
:100A70001F910F9108950C94D50183E00E94F20319
:100A800090E00895CF93DF931F92CDB7DEB7FC01BE
:100A90008485958597FD08C02FEF3FEF3587248724
:100AA0000F90DF91CF910895CE0101960E94E00151
:100AB000019719F4898190E0F3CF8FEF9FEFF0CF8A
:100AC0000F931F93CF93DF931F92CDB7DEB78C01A7
:100AD000FC018485958597FF0BC0CE0101960E948D
:100AE000E001019771F4898190E0F801958784878E
:100AF000F801848595850F90DF91CF911F910F911B
:100B000008958FEF9FEFF1CFFC018485958597FDC8
:100B10000BC09FB7F89482E08093E9008091F200C7
:100B20009FBF90E0019608959FB7F89482E080936C
:100B3000E9008091F2009FBF90E00895DC01FB0185
:100B400012962C911297848195812817190641F4E9
:100B500091818081813A31F49D7F81E0913009F06B
:100B600080E008958132E1F79B3029F482811F965D
:100B70008C9381E008959A3099F7828150968C93F6
:100B8000F8CFAF92BF92CF92DF92EF92FF920F9386
:100B90001F93CF93DF931F92CDB7DEB77C0169839C
:100BA0006A01590141E050E0BE016F5F7F4FFC01D7
:100BB00083810E9403048C0197FD0BC0F7018381A0
:100BC000A501B60180640E940304080F191F97FD58
:100BD0008C01C8010F90DF91CF911F910F91FF9071
:100BE000EF90DF90CF90BF90AF900895DC01FB01B4
:100BF00088E4808389E4818384E482831D969C91C8
:100C00001D979F709F5B93831D968D919C9124E00F
:100C1000969587952A95E1F78F708F5B848385E0A1
:100C20000895EF92FF920F931F93CF93DF93FB01F1
:100C30002081213871F52381223259F5DC01129689
:100C40004C91248135814217130619F5EC010B856F
:100C50001C85F12CE12C0115110589F0F801448166
:100C600055816281738180E80E94CC038F3F980791
:100C700049F0E80EF91ED8010D911C91ECCF81E0EE
:100C80008F87C701DF91CF911F910F91FF90EF9058
:100C9000089590E080E0F6CFCF93DF93CDB7DEB735
:100CA00069970FB6F894DEBF0FBECDBFFC01DB0124
:100CB0008C918F5F8C939E012D5F3F4F8DE0D9010A
:100CC0001D928A95E9F729E0298384E08A8391E0DF
:100CD0009D8383E08E832A8721E22B879C879D87D3
:100CE0009F8722E2288B27E02B8B25E02C8B8E8B95
:100CF00020E430E0388F2F8B998F82818B8395850C
:100D00008685998B8A8B838180688D8B49E150E041
:100D1000BE016F5F7F4F80E00E94CC0369960FB6E3
:100D2000F894DEBF0FBECDBFDF91CF910895CF9372
:100D3000DF9380910D02811167C081E080930002F2
:100D40008093010226E032E03093030220930202F6
:100D5000109205021092040229E231E03093FD0165
:100D60002093FC01109208021092070210920A02CE
:100D70001092090280930B0280930C0281EC809305
:100D800006020E94AA04FC01818190910002482F72
:100D9000490F5527551F483051059CF5A281B38155
:100DA000109709F52CEF31E03383228320812093C3
:100DB000FE018093FF0180910102820F80832091C8
:100DC0000202A22FB09103028A2F821B8917C8F456
:100DD00081813D91C82FD0E0C050DF4F38838F5FB5
:100DE0008183F2CFD90118962D913C911997211545
:100DF0003105C1F72CEF31E019963C932E931897EB
:100E0000D5CF81E080930D028CEF91E0DF91CF91FF
:100E10000895CF92DF92EF92FF920F931F93CF939B
:100E2000DF936C01EB017B01E40EF51E10E000E0A6
:100E3000CE15DF0581F069916D30D1F3D601ED91CA
:100E4000FC910190F081E02DC6010995892B19F0E4
:100E50000F5F1F4FEDCFC801DF91CF911F910F9111
:100E6000FF90EF90DF90CF900895CF93DF93EC0148
:100E70006838E0F06858FE0186E0662321F096812C
:100E8000961301C01682815031968111F6CF0E94CF
:100E90009706AE014C5F5F4F28E030E062E00E94B1
:100EA000C10581E090E0DF91CF910895862F90E019
:100EB00067FF0FC0FC01E058F10981E090E001C03C
:100EC000880FEA95EAF780959C8189238C8360E0FE
:100ED000D2CFEC85FD85E80FF91F649190E080E0AA
:100EE000662309F3862F807C803C49F48C818F7BBC
:100EF0008C836F73623309F0BECF64E6BCCF67FFAB
:100F0000F9CF8C818D7F8C836F77F4CFCF93DF9374
:100F1000EC01683858F168588E818617D1F08F81BE
:100F20008617B9F088858617A1F08985861789F01C
:100F30008A85861771F08B85861759F0FE013696E3
:100F400090E080E02191211147C08C0F9D1FFC0192
:100F500066830E949706AE014C5F5F4F28E030E049
:100F600062E00E94C10581E090E01FC0862F90E002
:100F700067FF0EC0FC01E058F10921E030E001C03C
:100F8000220FEA95EAF78C81822B8C8360E0C4CF34
:100F9000EC85FD85E80FF91F6491611109C081E0BE
:100FA00090E09B838A8390E080E0DF91CF91089569
:100FB000862F807C803C49F48C8180648C836F73A5
:100FC000623309F0A9CF64E6A7CF67FFF9CF8C8120
:100FD00082608C836F77F4CF01968630910509F09B
:100FE000B1CFDDCFEF92FF921F93CF93DF93EC0150
:100FF000162F0E9486077C01612FCE010E943507C3
:10100000C7019927DF91CF911F91FF90EF9008952D
:10101000089590E080E008958F929F92AF92BF92E2
:10102000CF92DF92EF92FF92CF93DF939C012553F3
:10103000334F27393941D0F1BC0197FF04C06627EF
:101040007727681B790BEC016C5C7C40072E000C49
:10105000880B990B0E942E1F20E036E646EE56E4E0
:101060000E94841E6B017C016091130170E090E08E
:1010700080E00E942E1F4B015C01A7019601C70171
:10108000B6010E9422209B01AC01C501B4010E945F
:101090002220D7FD9058DF91CF91FF90EF90DF9005
:1010A000CF90BF90AF909F908F90089560E070E0D8
:1010B000CB01F1CF262FFC01E354FD4F30813617D1
:1010C000A9F06083865D9D4FFC01628190E2960FDE
:1010D000983038F46056222351F086EA93E00C945D
:1010E00086079CEF960F68579437A8F3089586EA11
:1010F00093E00C943507CF92DF92EF92FF92CF935B
:10110000DF93EC01A0913D026B01770FEE08FF0821
:10111000FC01E354FD4F80818823E1F0AF50BB0B0D
:101120002FEF3FE70E94972124E630E040E050E0B7
:101130000E94632161E02C153D054E055F050CF012
:1011400060E0CE01DF91CF91FF90EF90DF90CF90E4
:101150000C945A082A2F30E0AFEFBFE70E94882195
:10116000E3CFCF93DF93D0E0C0E060E0CE010E94F8
:101170005A082196C131D105C1F7DF91CF91089569
:10118000DC0123E53AE42D933D9326E0EFE1F1E025
:1011900001900D922A95E1F726E0EFE1F1E0DC0104
:1011A000189601900D922A95E1F70895FC0101909F
:1011B0000020E9F73197AF01481B590BBC0188E4C7
:1011C00093E00C94EF0482E891E00C94D608CF935E
:1011D000DF930E942005EC010E94E3088C0F9D1F05
:1011E000DF91CF9108958F929F92AF92BF920F930C
:1011F0001F93CF93DF93CDB7DEB7A1970FB6F894C7
:10120000DEBF0FBECDBF19A2423008F44AE08E0106
:101210000F5D1F4F842E912CB12CA12CA5019401A0
:101220000E944121E62FB901CA01EA30F4F4E05DE1
:10123000D801EE938D01232B242B252B79F790E0F9
:1012400080E0109719F0CD010E94D608A1960FB644
:10125000F894DEBF0FBECDBFDF91CF911F910F91EC
:10126000BF90AF909F908F900895E95CE1CFCF93AE
:10127000DF93682F70E090E080E04AE00E94F3087E
:10128000EC010E94E3088C0F9D1FDF91CF91089520
:10129000CF92DF92EF92FF92CF93DF936C01990F81
:1012A000EE08FF08F7FE17C08DE20E941B05EC0157
:1012B00066277727CB016C197D098E099F094AE0C3
:1012C0000E94F3088C0F9D1FDF91CF91FF90EF904C
:1012D000DF90CF9008954AE0C701B601DF91CF912A
:1012E000FF90EF90DF90CF900C94F308CF93DF93B3
:1012F0008CE291E00E942005CCE2D2E080E20E94E4
:101300001B05699170E090E080E04AE00E94F308DC
:1013100082E0CD33D80791F780E20E941B058091CF
:101320003D02DF91CF910C943709EF92FF920F931A
:101330001F93CF93DF937C018C01D0E0C0E0CE01FE
:101340000E94F71DF80181938F012196CE30D105BF
:10135000B1F7C701DF91CF911F910F91FF90EF90EF
:101360000895CF92DF92EF92FF9280933E02682F12
:10137000880F770B880B990B0E942E1F2BED3FE0F7
:1013800049E450E40E94222020E030E044E353E4AA
:101390000E94841E6B017C010E947F1E60931B01D2
:1013A00070931C0180931D0190931E01C701B6012B
:1013B0000E948F20609318037093190380931A037F
:1013C00090931B03FF90EF90DF90CF900895FF92D2
:1013D0000F931F93CF93DF93EC01F62E08811981B1
:1013E000C8010E94F71DF81621F06F2DC8010E9458
:1013F000FF1DCE01DF91CF911F910F91FF900895B6
:10140000CF92DF92EF92FF920F931F93CF93DF93D0
:1014100000D0CDB7DEB76C017C0110E000E01A838C
:101420000983F70161917F01CE0101960E94E709CE
:101430000F5F1F4F0E30110591F7C6010F900F90EF
:10144000DF91CF911F910F91FF90EF90DF90CF90A0
:101450000895EF92FF920F931F93CF93DF9300D0E5
:10146000CDB7DEB78C010E94B10884E1F801AAE291
:10147000B2E001900D928A95E1F78AE2E82E82E0CF
:10148000F82E00E410E01A830983F70161917F01CF
:10149000CE0101960E94E7090F5F1F4F0435110529
:1014A00091F70F900F90DF91CF911F910F91FF90C7
:1014B000EF900895CF93DF9300D0CDB7DEB7082F1C
:1014C000162F0E94B10880E690E09A838983602FEE
:1014D000CE0101960E94E709112331F089E291E0E3
:1014E0000E94E7080E94D50164E670E080E090E089
:1014F0000E942D0368EC70E080E090E00E942D03D4
:1015000010920108109200081092FF0A1092FE0A31
:1015100088E198E00FB6F894A895809360000FBE1C
:1015200090936000FFCF1F920F920FB60F9211247D
:101530002F933F938F939F93AF93BF9380913E03DD
:1015400090913F03A0914003B091410330913D033E
:1015500023E0230F2D3758F50196A11DB11D2093CF
:101560003D0380933E0390933F03A0934003B093C9
:1015700041038091420390914303A0914403B091B1
:1015800045030196A11DB11D80934203909343032F
:10159000A0934403B0934503BF91AF919F918F9166
:1015A0003F912F910F900FBE0F901F90189526E836
:1015B000230F0296A11DB11DD2CF1F920F920FB61D
:1015C0000F9211242F933F934F935F936F937F93C9
:1015D0008F939F93AF93BF93CF93EF93FF93C0915C
:1015E000E1008091E100837F8093E100C3FF0FC0A1
:1015F0001092E90081E08093EB001092EC0082E30E
:101600008093ED001092470388E08093F000C2FFC2
:101610001AC00E94D50180912602882341F0809152
:101620002602815080932602811101C05D9A80912B
:101630004603882341F080914603815080934603FE
:10164000811101C0289AC4FF23C08091E2008E7EE0
:1016500081608093E2008091E1008F7E8093E100C1
:10166000809127028E7E806180932702FF91EF9107
:10167000CF91BF91AF919F918F917F916F915F912A
:101680004F913F912F910F900FBE0F901F90189583
:10169000C0FFECCF8091E2008E7E80618093E200FB
:1016A0008091E1008E7E8093E100809127028E7E02
:1016B0008160DACF1F920F920FB60F921124CF9252
:1016C000DF92EF92FF920F931F932F933F934F93CD
:1016D0005F936F937F938F939F93AF93BF93EF939A
:1016E000FF93CF93DF93CDB7DEB76C97DEBFCDBF4F
:1016F0001092E9008091E80083FF25C068E0CE01E8
:1017000045960E949D0482EF8093E8008D8987FFB3
:1017100039C09091E80090FFFCCF982F907609F0A7
:1017200034C19E894F89588D2F89F88C911131C011
:10173000803861F5809128028093F1001092F100C9
:101740008EEF8093E8006C960FB6F894DEBF0FBE64
:10175000CDBFDF91CF91FF91EF91BF91AF919F915D
:101760008F917F916F915F914F913F912F911F9139
:101770000F91FF90EF90DF90CF900F900FBE0F90E2
:101780001F9018959EEF9093E800C7CF1092F1003C
:10179000D5CF913059F48111D3CF4130510581F625
:1017A000809128028D7F80932802CACF933049F41C
:1017B0008111C6CF4130510519F68091280282600F
:1017C000F2CF953041F48091E80080FFFCCF206893
:1017D0002093E300B5CF963009F0A9C00B8D1C8D86
:1017E00022E01092E9001092240210922302F212D9
:1017F0002EC010922202109221020E94BE041F826B
:1018000099E09983FA8291E09E8390EA98879AEF13
:1018100099872091230230912402275F3F4F3C8318
:101820002B838D831092E9001092240210922302E0
:10183000109322020093210249E050E0BE016F5F45
:101840007F4F80E00E94CC030E94BE0479CF1093AA
:101850002202009321020E94AA04DC0112960D913B
:101860001C910115110509F451C1D801ED91FC91AC
:101870000480F581E02DBE016B5E7F4FC8010995A4
:10188000009709F03EC1F80100851185EACFF3E029
:10189000FF120EC08F89882309F440C0823061F4A2
:1018A00040E869E082E991E00E949903811148CF04
:1018B00081E28093EB0047CF813029F440E869E072
:1018C00088E891E0F1CF833099F70E94AA04DC0107
:1018D0001296ED90FC908E010F5F1F4F6801E1148E
:1018E000F10479F0D701ED91FC910680F781E02DAC
:1018F000B801C7010995080F111DF701E084F184B3
:10190000EECFD8011C92F60101900020E9F7319743
:10191000BF016C197D0940E0C601C6CF62E771E0E6
:10192000FB01449150E080E80E94CC0309CF97303E
:1019300009F4BECF983021F481E08093F10000CF0C
:10194000993009F0FDCE837009F0B2CFE1E0F1E00B
:1019500081E031E096E32191222371F08093E90048
:101960003093EB00DF0111972C912093EC009093C2
:10197000ED008F5F873079F78EE78093EA00109251
:10198000EA008F8980934703DBCE8B8D9C8D10926C
:10199000E900109224021092230290932202809375
:1019A0002102898D811192C08E899D89913A49F4D5
:1019B000813209F07DCF47E050E06BE071E080E0DC
:1019C000B3CF913209F074CF833269F48F89988D47
:1019D000B0E0A0E08093070190930801A093090173
:1019E000B0930A01ADCE803269F48091E80082FFA5
:1019F000FCCF67E08BE091E00E949D048BEF809329
:101A0000E8009ECE823209F09BCE8F89809312012E
:101A1000EEEFFFE7859194918B3F9C4D51F1E0E013
:101A2000F8E080910B0190910C01A0910D01B09113
:101A30000E01803B9440A105B105F1F480911201A3
:101A400080FD1AC0EE3F8AE0F80789F587E797E73F
:101A500091838083809160008093250288E19BE0E0
:101A60000FB6F894A895809360000FBE9093600025
:101A700067CEEEEFFAE0D5CF808191818737974727
:101A800009F05ECEA8958091600088618093600027
:101A90008091250280936000EE3F2AE0F20789F0F2
:101AA0008091FE0A9091FF0A9183808349CE8081C4
:101AB00091818737980751F29093FF0A8093FE0A2D
:101AC000C5CF1092FF0A1092FE0A3ACE0E94AA04D5
:101AD000DC0112960D911C910115110509F4E8CE57
:101AE000D801ED91FC910190F081E02DBE016B5E7B
:101AF0007F4FC8010995811123CEF801008511851A
:101B0000EBCF181619060CF41BCED2CEF1E0FF1263
:101B1000BECE66E771E004CFFC01A385B4851097C3
:101B200071F47487638785859685DB0114962D9102
:101B30003C91820F931F968785870895DC018D91D4
:101B40009C9111970097D1F76D937C93ECCFCF9335
:101B5000DF93EC0180E690E00E94F71D9FEF980F65
:101B6000923020F01882DF91CF91089588838130E0
:101B7000F1F49091F401911112C01092EF011092C2
:101B8000EE0120E031E03093F1012093F00129E2F1
:101B900030E03093F3012093F2018093F4010E942E
:101BA00097066EEE71E0DF91CF910C948C0D8091D1
:101BB000E601811113C01092E1011092E0018AEC5C
:101BC00090E09093E3018093E20186E390E09093AC
:101BD000E5018093E40181E08093E6010E9497068D
:101BE00060EE71E0E0CF10924B0310924A0388EE52
:101BF00093E0A0E0B0E080934C0390934D03A0935A
:101C00004E03B0934F0388E691E09093490380938D
:101C100048038FEF9FEF90935503809354031092E6
:101C2000A9031092A8038AE791E09093A7038093F9
:101C3000A60380919E03811113C010929903109204
:101C400098038DE093E090939B0380939A038FE237
:101C500090E090939D0380939C0381E080939E038A
:101C60000E94970668E973E00E948C0D8DE892E06F
:101C70009093B3038093B20384EB93E00C94A70D8D
:101C8000CF93DF93CDB7DEB7C55FD1090FB6F89418
:101C9000DEBF0FBECDBF789484B5826084BD84B5AD
:101CA000816084BD85B5826085BD85B5816085BD57
:101CB00080916E00816080936E001092810080910F
:101CC0008100826080938100809181008160809397
:101CD00081008091800081608093800080919100DC
:101CE0008260809391008091910081608093910047
:101CF000809190008160809390008091C100846009
:101D00008093C1008091C10082608093C100809166
:101D1000C10081608093C1008091C3008160809385
:101D2000C3008091C00082608093C0008091C20097
:101D300081608093C20080917A00846080937A00F1
:101D400080917A00826080937A0080917A0081602D
:101D500080937A0080917A00806880937A00109254
:101D6000470310922802109227028091D7008160C9
:101D70008093D70080EA8093D80089B5806189BDBF
:101D800089B5826089BD09B400FEFDCF61E070E0D5
:101D900080E090E00E942D038091D8008F7C8061CC
:101DA0008093D8008091E000807F8093E000809154
:101DB000E1008E7E8093E1008DE08093E200559AF1
:101DC000209A62E08EE00E94B50262E080E10E940B
:101DD000B50262E370E080E090E00E942D030E9473
:101DE000AA02892B39F50E945F036B017C010E94D6
:101DF000AA02892BE1F40E945F036C197D098E0908
:101E00009F09683B7B408105910588F387E797E749
:101E1000909301088093000888E19BE00FB6F89446
:101E2000A895809360000FBE90936000FFCF81E083
:101E30008093290262E08EE00E94B50262E080E1B8
:101E40000E94B50200E411E021E331E0CB51DF4F05
:101E500039832883C55ED04062E0CB51DF4FA88133
:101E6000B981C55ED0408D91CB51DF4FB983A88336
:101E7000C55ED0400E94B502CB51DF4F888099806B
:101E8000C55ED0400815190539F704E6E02E01E0DB
:101E9000F02E08E511E062E0D8018D918D010E94DD
:101EA000B502E016F106B9F762E08FE00E94B502D4
:101EB00061E082E00E94B50280E00E94560282E664
:101EC00090E00E94F71D182F83E690E00E94F71D16
:101ED000853A21F4163A14F01B350CF010E0812FEE
:101EE0000E94B10984E690E00E94F71D9FEF980FD1
:101EF000943108F088E0809313011AE2E12E12E099
:101F0000F12E00E410E0C8010E94F71DF701819353
:101F10007F010F5F1F4F04351105A9F780912A0239
:101F200090912B028B34904529F480913D0284518D
:101F30008C3448F084E1E4E4F1E0AAE2B2E00190FC
:101F40000D928A95E1F7CE014D960E9495098EE09B
:101F5000FE017D96DE01AF55BF4F01900D928A952F
:101F6000E1F78D8D9E8D83359A4409F072C1CD5570
:101F7000DF4F88809980C35AD040C353DF4F998286
:101F80008882CD5CD040CB55DF4FA880B980C55A40
:101F9000D040C553DF4FB982A882CB5CD040C95531
:101FA000DF4F28803980C75AD040C755DF4FC880DF
:101FB000D980C95AD040C953DF4FD982C882C75C83
:101FC000D040C555DF4F08811981CB5AD040C35549
:101FD000DF4FE880F980CD5AD040CF52DF4FF982F1
:101FE000E882C15DD040B8E0CB2ED12C412C512CE1
:101FF0003201812C912C540183E10E94E602092ECA
:10200000000CAA0BBB0B880E991EAA1EBB1E82E1F8
:102010000E94E602092E000CAA0BBB0B480E591EAB
:102020006A1E7B1E65E070E080E090E00E942D0358
:1020300021E0C21AD10801F7A8E0CA2ED12CE12C68
:10204000F12CC501B401A70196010E946321C5537B
:10205000DF4F88809980CB5CD040C401990CAA0BDB
:10206000BB0B49015A01881A990AAA0ABB0AC30183
:10207000B201A70196010E946321C801012E000C44
:10208000AA0BBB0B821B930BA40BB50BC553DF4FE5
:10209000C880D980CB5CD0402C183D087601C35352
:1020A000DF4FC880D980CD5CD040EC18FD08E21429
:1020B000F3040CF47101A701FF0C660B770BCF52F0
:1020C000DF4F28813981C15DD040201B310BC953BE
:1020D000DF4FE880F980C75CD0400E191F09021756
:1020E00013070CF48901012E000C220B330B4A3725
:1020F0005105610571050CF4D5C075956795579527
:1021000047950A371105210531050CF4D0C03595E6
:10211000279517950795081719072A073B078CF489
:1021200075016401B7FE07C0CC24DD247601C81810
:10213000D908EA08FB08C816D906EA06FB060CF41B
:10214000BBC0CC24DD247601C81AD90AEA0AFB0AEE
:102150000C151D052E053F05ACF4B7FF02C0D701D5
:10216000C60195018401B7FE07C000271127980119
:10217000081919092A093B09081719072A073B07F3
:102180000CF49CC0481559056A057B050CF498C0F1
:1021900080912902882369F08091B40390E0019630
:1021A00063E070E00E942D219091B40360E09813E9
:1021B00036C38FEF9FEF90935503809354038DE8C0
:1021C00092E09093B3038093B20380913C0381111A
:1021D000EBC08FE00E9481027C0111E0892B09F0A5
:1021E00010E0CE018D569F4F0E9495098EE0FE01B2
:1021F000ED56FF4FDE01AB57BF4F01900D928A9510
:10220000E1F7E114F10409F05DC0CE018B5A9F4F54
:102210000E94C008CE018B5A9F4F0E94000A33E0F3
:10222000C32ED12C81E00E94560268E770E080E066
:1022300090E00E942D0380E00E94560268E770E063
:1022400080E090E00E942D0321E0C21AD10851F7EE
:102250005EC0CE0101960E94C0080B811C81C35351
:10226000DF4F19830883CD5CD0408D809E80C5539D
:10227000DF4F99828882CB5CD0402F803884A9843C
:10228000BA84C953DF4FB982A882C75CD0400B859E
:102290001C85CD84DE84CF52DF4FD982C882C15DD8
:1022A000D040A1CE4CE350E060E070E02ACF0CE3D8
:1022B00010E020E030E02FCF80E076CF82E074CFD6
:1022C00081E072CF8EE0FE01EB57FF4FDE01A9588F
:1022D000BF4F01900D928A95E1F7CB57DF4F888170
:1022E0009981C558D04083350AE4900709F093C01E
:1022F000E9969FAF8EAFE9978EE0FE01E958FF4F58
:10230000DE01AB5ABF4F01900D928A95E1F78EE046
:10231000FE01EB5AFF4FDE01A759BF4F01900D920E
:102320008A95E1F78EE0FE01E759FF4FDE01D9966D
:1023300001900D928A95E1F728961FAE289781E0CB
:10234000EF2809F480E029968FAF29972A961FAECF
:102350002A972B961FAE2B972F961CAE1DAE1EAE46
:102360001FAE2F9760961FAF609761961FAF619762
:1023700065961CAE1DAE1EAE1FAE65978CE1FE01CC
:10238000F996A0E2B3E001900D928A95E1F70E94E0
:10239000080360931C0370931D0380931E039093A6
:1023A0001F0381E080933C0302E6602E712C83E6DC
:1023B000C82ED12C5524539494E6A92EB12C2EEC82
:1023C000822E22E0922E88E493E00E948405181663
:1023D00019060CF03EC288E493E00E9442058D305D
:1023E00091F320919F023091A0028A3009F021C21E
:1023F000215C3D4FD9011C9265E871E08FE392E0CA
:102400000E94BF21892B69F40E9476091092A002D4
:1024100010929F02D8CFCE018B5A9F4F0E94C008C6
:1024200076CF44E050E069E871E08FE392E00E94EB
:10243000C8218C01892B09F055C084E1EAE2F2E061
:10244000DE01AB5ABF4F01900D928A95E1F7FE0174
:10245000EB5AFF4F7F0183E492E00115110511F063
:1024600090E080E066EB71E00E94AE1D009729F4D9
:1024700084EB91E00E94E708C9CF0E94871D6F3F5F
:1024800071058105910521F018F080EB91E0F2CF04
:1024900001311105D9F0D70112966C930F5F1F4FD0
:1024A000BFEFEB1AFB0A02311105A9F667968EAD54
:1024B0009FAD67978B34904531F4A9968FADA9975E
:1024C00084518C3438F08CEA91E0D4CFA9966FAF68
:1024D000A997E4CFCE018B5A9F4F0E94290A89EA1F
:1024E00091E0C8CF6EE871E08FE392E00E94BF21D7
:1024F000892B29F484E491E00E94290A85CF68E9B8
:1025000071E08FE392E00E94BF21892B09F042C065
:1025100082EA91E00E9420058091160390911703B2
:102520000E94480980E20E941B058091140390914B
:1025300015030E94480980E20E941B058091120346
:10254000909113030E94480980E20E941B0580912C
:102550001003909111030E94480980E20E941B051C
:1025600080910F0390E00E94480980E20E941B05C1
:102570000DEB12E0D8018D918D01882349F081E3A4
:102580000E941B0580169106A9F70E94E3083ECF22
:1025900080E3F6CF6EE971E08FE392E00E94BF2105
:1025A000892B29F45092A60287EF91E063CF44E093
:1025B00050E062EA71E08FE392E00E94C821892B2B
:1025C00001F583E492E00E94691D2091B40321305B
:1025D00031F49C01215031092431310518F083EF89
:1025E00091E048CF8093D2020E945F036093CE02B5
:1025F0007093CF028093D0029093D10280EF91E04C
:1026000039CF67EA71E08FE392E00E94BF21892B06
:1026100049F48BEE91E00E94200580E491E00E9455
:10262000D608B3CF6BEA71E08FE392E00E94BF213E
:10263000892B19F48DED91E01DCF6FEA71E08FE3E6
:1026400092E00E94BF21892B49F488ED91E00E941D
:102650002005809113010E943709D8CE44E050E054
:1026600063EB71E08FE392E00E94C821892BE1F4D3
:1026700083E492E00E94691D9C01215031092431BC
:10268000310518F084ED91E0F5CE80931301679643
:10269000BFAEAEAE6797682FCE018B5A9F4F0E9498
:1026A000E70981ED91E0E6CE68EB71E08FE392E01F
:1026B0000E94BF21892BE1F58CE991E00E94200561
:1026C00082E10E94E6020E94480980E20E941B0506
:1026D00083E10E94E6020E94480980E20E941B05F5
:1026E00001E311E0E12CF801F1908F018F2D0E94A0
:1026F0008102892B71F4EE2019F08CE20E941B05F7
:102700006F2D70E090E080E04AE00E94F308EE2434
:10271000E394CB51DF4F28813981C55ED04020172B
:10272000310709F7E11031CF8DE20E941B052DCF53
:102730006DEB71E08FE392E00E94BF21892B61F481
:102740008CEC91E00E94200580913E02082E000C46
:10275000990B0E94480919CF44E050E061EC71E008
:102760008FE392E00E94C821892B39F583E492E03F
:102770000E94691D8C01865A9F4F853B910518F078
:1027800088EC91E077CE802F0E94B10967967FAEEA
:102790006EAE6797602FCE018B5A9F4F0E94E7095C
:1027A0006796DFAECEAE679765EACE018B5A9F4F34
:1027B0000E94E70985EC91E05DCE66EC71E08FE365
:1027C00092E00E94BF21892B39F48FEB91E00E94A7
:1027D00020058091B4033FCF6BEC71E08FE392E072
:1027E0000E94BF21892B81F062ED71E08FE392E0BE
:1027F0000E94BF21892B41F069ED71E08FE392E0E7
:102800000E94BF21892B69F48091440280539091EA
:10281000B403891303C08CEB91E02CCE61E00E94DD
:102820005A0A80913F02882309F4F0CD88EB91E0A9
:1028300021CE2F3531050CF0C6CDA9014F5F5F4F7A
:102840005093A00240939F02215C3D4FD9018C938D
:10285000BACD0E94080300911C0310911D03209122
:102860001E0330911F03AB01BC01401B510B620BD7
:10287000730B77FD9AC7D901C80188519C4FAF4FA0
:10288000BF4F80931C0390931D03A0931E03B0932E
:102890001F030E94080300911C0310911D03209147
:1028A0001E0330911F03601B710B820B930B1616D6
:1028B00017061806190674F40E94080368517C4F25
:1028C0008F4F9F4F60931C0370931D0380931E03D3
:1028D00090931F030E945F03CB52DF4F688379837D
:1028E0008A839B83C55DD04083E10E94E6021C0180
:1028F00082E10E94E602C553DF4F99838883CB5C57
:10290000D0400E94AA028C018091A6028823A9F0DF
:102910001092A60281E08093A502CB52DF4F8880FF
:102920009980AA80BB80C55DD0408092A102909220
:10293000A202A092A302B092A4028091A5028823D1
:10294000E9F08091A1029091A202A091A302B0911E
:10295000A402CB52DF4FA880B980CA80DB80C55D5E
:10296000D040A81AB90ACA0ADB0AD601C5018436C2
:102970009105A105B10510F01092A502F090A502F5
:102980008FE00E948102892B09F430C181E08F25FC
:10299000C0902003D0902103C051DF4FD982C8825C
:1029A000C05FD040E0902203F0902303CD52DF4F70
:1029B000F982E882C35DD040509124034091250301
:1029C0008090260390902703C953DF4F9982888215
:1029D000C75CD040A0902803B0902903C353DF4FB9
:1029E000B982A882CD5CD04030912A0320912B037C
:1029F000C0902C03D0902D03C652DF4FD982C882DD
:102A0000CA5DD040D0902E03CF52DF4FD882C15D37
:102A1000D040E0902F03C251DF4FE882CE5ED0401D
:102A2000F0903003C351DF4FF882CD5ED0408090EC
:102A30003103C752DF4F8882C95DD040A090320376
:102A4000B0903303C0903403D0903503CF51DF4FA3
:102A5000A882B982CA82DB82C15ED040B0903603C0
:102A6000C551DF4FB882CB5ED04090913703C09004
:102A70003803D0903903E0903A03F0903B03C951FA
:102A8000DF4FC882D982EA82FB82C75ED04061E014
:102A9000012B09F060E0C351DF4FD880CD5ED040FC
:102AA0006D15A9F0C351DF4F6883CD5ED040CB5286
:102AB000DF4FE880F9800A811B81C55DD040CF518E
:102AC000DF4FE882F9820A831B83C15ED040CB527C
:102AD000DF4FC880D980EA80FB80C55DD040CF51F0
:102AE000DF4F88809980AA80BB80C15ED040C81823
:102AF000D908EA08FB080AE1C016D104E104F10490
:102B000028F0C752DF4F6883C95DD040C752DF4FFE
:102B10001881C95DD040C451DF4F1883CC5ED040CE
:102B200061E08627C551DF4F8880CB5ED040881595
:102B3000A9F0C551DF4F8883CB5ED040CB52DF4F29
:102B4000A880B980CA80DB80C55DD040C951DF4F05
:102B5000A882B982CA82DB82C75ED040CB52DF4FE7
:102B6000C880D980EA80FB80C55DD040C951DF4F65
:102B700088809980AA80BB80C75ED040C818D908D9
:102B8000EA08FB080AE1C016D104E104F10480F16F
:102B9000C052DF4F8883C05ED040C052DF4F1881E3
:102BA000C05ED04081E08927111101C080E0C25190
:102BB000DF4F8880CE5ED040811020C0C052DF4FF2
:102BC0009880C05ED040911006C001E0C251DF4F36
:102BD0000883CE5ED040CF52DF4F1882C15DD04017
:102BE000C151DF4F1882CF5ED04025C080E0D0CEEB
:102BF000C052DF4F9883C05ED040CFCF882381F38F
:102C0000CF52DF4F1881C15DD040112309F45CC45D
:102C1000CF52DF4F1882C15DD04003E51AE4C051A6
:102C2000DF4F19830883C05FD04011E0C151DF4FEF
:102C30001883CF5ED040C051DF4F88809980C05F3D
:102C4000D0409E8E8D8ECD52DF4FA880B980C35D5F
:102C5000D040B8A2AF8E59A34AA3C953DF4FC88052
:102C6000D980C75CD040DCA2CBA2C353DF4FE88041
:102C7000F980CD5CD040FEA2EDA23FA328A7C652AA
:102C8000DF4F08811981CA5DD0401AA709A7CF522A
:102C9000DF4F1881C15DD0401BA7C251DF4F888034
:102CA000CE5ED0408CA6C351DF4F9880CD5ED04021
:102CB0009DA6C752DF4FA880C95DD040AEA6CF51B8
:102CC000DF4FC880D980EA80FB80C15ED040CFA6AC
:102CD000D8AAE9AAFAAAC551DF4FD880CB5ED04066
:102CE000DBAAC052DF4FE880C05ED040ECAAC951D9
:102CF000DF4F88809980AA80BB80C75ED0408DAAB4
:102D00009EAAAFAAB8AE112309F4B6C086E0FE01B0
:102D10007F96DE01AB54BF4F01900D928A95E1F78B
:102D2000CD52DF4FA880B980C35DD0402A143B0448
:102D300034F4CD52DF4F39822882C35DD040C9536D
:102D4000DF4FC880D980C75CD040C214D30434F4AC
:102D5000C953DF4F39822882C75CD040CD52DF4F44
:102D6000E880F980C35DD040CB54DF4FF982E88220
:102D7000C55BD040C953DF4F08811981C75CD04083
:102D8000C754DF4F19830883C95BD04086E0FE013A
:102D9000EB54FF4FDE01A155BF4F01900D928A9574
:102DA000E1F786E0FE01E155FF4FDE015F960190FD
:102DB0000D928A95E1F786E0FE01B596DE01AF53EC
:102DC000BF4F01900D928A95E1F7C353DF4F888082
:102DD0009980CD5CD040C553DF4FA880B980CB5CD3
:102DE000D040A814B90434F4C353DF4FB982A88289
:102DF000CD5CD040C652DF4FC880D980CA5DD0407C
:102E0000C553DF4FE880F980CB5CD040CE14DF049F
:102E100034F4C652DF4FF982E882CA5DD040C35312
:102E2000DF4F08811981CD5CD040CF53DF4F19832C
:102E30000883C15CD040C652DF4F88809980CA5D4C
:102E4000D040CB53DF4F99828882C55CD04086E06A
:102E5000FE01EF53FF4FDE01A554BF4F01900D92CD
:102E60008A95E1F786E0FE01E554FF4FDE01959675
:102E700001900D928A95E1F7CD52DF4FA880B9807D
:102E8000C35DD040B8A2AF8EC953DF4FC880D98090
:102E9000C75CD040DCA2CBA2C353DF4FE880F980EF
:102EA000CD5CD040FEA2EDA2C652DF4F0881198151
:102EB000CA5DD0401AA709A78CE1FE017D96DE010C
:102EC000119601900D928A95E1F78D809E80C452F3
:102ED000DF4F99828882CC5DD040AB84BC84C252E3
:102EE000DF4FB982A882CE5DD040CF52DF4FB8808D
:102EF000C15DD040B110BEC3281439040CF415C311
:102F0000860108191909101611060CF050C3B101F9
:102F100068197909072E000C880B990B0E942E1F47
:102F20006B017C01B801110F880B990B0E942E1FB9
:102F30009B01AC01C701B6010E94841E2B013C011C
:102F400020E030E0A9010E947A1E87FD30C320E016
:102F500030E040E85FE3C301B2010E941D20181673
:102F600034F4412C512C10E8612E1FE3712EC5530F
:102F7000DF4F08811981CB5CD040C252DF4F88807F
:102F80009980CE5DD040081519050CF41BC3C652BC
:102F9000DF4F08811981CA5DD04008191909101640
:102FA00011060CF056C3C553DF4F68817981CB5CA5
:102FB000D04068197909072E000C880B990B0E94E4
:102FC0002E1F6B017C01B801110F880B990B0E9419
:102FD0002E1F9B01AC01C701B6010E94841E6B012C
:102FE0007C0120E030E0A9010E947A1E87FD31C3F8
:102FF00020E030E040E85FE3C701B6010E941D20F9
:10300000181634F4C12CD12CA0E8EA2EAFE3FA2E26
:10301000A3019201C301B2010E9422204B015C0175
:10302000A7019601C701B6010E9422209B01AC01B5
:10303000C501B4010E940E1E0E949D20CE50DF4F9C
:10304000688379838A839B83C25FD0402DEC3CECFC
:103050004CE45DE30E947A1E18160CF005C32DECBB
:103060003CEC4CE45DE3CE50DF4F688179818A818E
:103070009B81C25FD0400E940D1E23E333E343E7F0
:103080005FE30E94841E4B015C0120E030E040E8D9
:103090005FE30E941D20181634F4812C912CE0E887
:1030A000AE2EEFE3BE2ECE50DF4F288139814A810C
:1030B0005B81C25FD040C501B4010E94841E4B01F8
:1030C0005C01A30192010E9422202B013C01A70177
:1030D0009601C501B4010E9422204B015C0120E051
:1030E0003EEF4FEF56E4C301B2010E9422200E943E
:1030F000F61E7B0120E03EEF4FEF56E4C501B40120
:103100000E9422200E94F61E8B01C051DF4F888052
:103110009980C05FD0409092210380922003CD52CD
:10312000DF4FA880B980C35DD040B0922303A09246
:103130002203C452DF4FC880D980CC5DD040D092EA
:103140002503C0922403C953DF4F88809980C75C50
:10315000D0409092270380922603C353DF4FA8806C
:10316000B980CD5CD040B0922903A0922803C2520E
:10317000DF4FC880D980CE5DD040D0922B03C09263
:103180002A03C652DF4F88809980CA5DD040909252
:103190002D0380922C03CF52DF4F9880C15DD04029
:1031A00090922E03C251DF4FA880CE5ED040A092F5
:1031B0002F03C351DF4FB880CD5ED040B0923003B3
:1031C000C752DF4FC880C95DD040C0923103CF5194
:1031D000DF4F88809980AA80BB80C15ED0408092FA
:1031E000320390923303A0923403B0923503C55159
:1031F000DF4F9880CB5ED04090923603C052DF4FB5
:10320000A880C05ED040A0923703C951DF4F8880AC
:103210009980AA80BB80C75ED0408092380390928C
:103220003903A0923A03B0923B03B701FF0C880B1D
:10323000990B0E942E1F4B015C01C0901B01D09086
:103240001C01E0901D01F0901E01C953DF4FC882A0
:10325000D982EA82FB82C75CD04066277727601B51
:10326000710B072E000C880B990B0E942E1F2B014F
:103270003C01E0901803F090190300911A0310919B
:103280001B03C353DF4FE882F9820A831B83CD5CA3
:10329000D040C953DF4F288139814A815B81C75CA7
:1032A000D040C501B4010E9422206B017C01C353B0
:1032B000DF4F288139814A815B81CD5CD040C301D9
:1032C000B2010E9422209B01AC01C701B6010E94FD
:1032D0000E1E6B017C0120E03EEF4FEF56E40E9492
:1032E0001D2018160CF4CBC120E03EEF4FEF56EC3A
:1032F000C701B6010E947A1E87FDC6C1C701B6018B
:103300000E94F61E7B01A3019201C953DF4F688121
:1033100079818A819B81C75CD0400E9422202B0149
:103320003C01C353DF4F288139814A815B81CD5CE9
:10333000D040C501B4010E9422209B01AC01C30111
:10334000B2010E940D1E4B015C0120E03EEF4FEFE9
:1033500056E40E941D200FEF1FE718168CF020E0A6
:103360003EEF4FEF56ECC501B4010E947A1E01E01A
:1033700010E887FD05C0C501B4010E94F61E8B014F
:1033800033E0C32E33E0D32E43ED842E42E0942E5F
:1033900058E5652E51E0752EB12CA12CD3018D91ED
:1033A0003D010E94810221E0892B09F020E02601E5
:1033B000F6018081281729F1F40180819181A28191
:1033C000B381CB52DF4F488159816A817B81C55DD2
:1033D000D040481B590B6A0B7B0BDB01CA010897D5
:1033E000A105B10570F0D6012C93CB52DF4F288197
:1033F00039814A815B81C55DD0402083318342831E
:103400005383BFEFCB1ADB0AF2016081C5010E9432
:103410005A08FFEFAF1ABF0A24E0820E911C3CE06D
:10342000A316B10409F0BACFC090B40341E0C412AE
:10343000D1C1C752DF4F8880C95DD040882061F07C
:1034400080912E03CC24C394D12C882339F0C4510D
:10345000DF4F1882CC5ED040D12CC12CB090D2026C
:10346000BB2079F10E945F034090CE025090CF02C2
:103470006090D0027090D10264197509860997098D
:10348000603971408105910508F09CC132E1B316A5
:1034900009F49BC13B1508F4FCC041E190E080E0D9
:1034A00021E030E8B41609F4FFC0AB2DA150BB0BEE
:1034B00021E030E002C0220F331FAA95E2F7C22AB2
:1034C000D32AC8019701F0C0C553DF4F8880998087
:1034D000CB5CD040C652DF4F99828882CA5DD04013
:1034E000C553DF4F3881CB5CD040C453DF4F2881B8
:1034F000CC5CD040C353DF4F99828882CD5CD040F2
:10350000C953DF4F39822882C75CD040522D432DEA
:10351000CD52DF4F39822882C35DD04001E0CF52C7
:10352000DF4F0883C15DD0405BCBC452DF4F0881C1
:103530001981CC5DD040CD52DF4FC880D980C35DAA
:10354000D0400C191D09101611068CF5B101C4529A
:10355000DF4FE880F980CC5DD0406E197F09072EDF
:10356000000C880B990B0E942E1F6B017C01B80187
:10357000110F880B990B0E942E1F9B01AC01C701F4
:10358000B6010E94841E2B013C0120E030E040E89F
:103590005FEB0E947A1E87FD0EC020E030E0A9019B
:1035A000C301B2010E941D2018160CF0E0CC412C82
:1035B000512C3201DCCC412C512CB0E86B2EBFEBEE
:1035C0007B2ED5CCC252DF4F08811981CE5DD04011
:1035D000C353DF4FA880B980CD5CD0400A191B09C6
:1035E00010161106B4F5C553DF4F68817981CB5CA5
:1035F000D040C252DF4FC880D980CE5DD0406C1918
:103600007D09072E000C880B990B0E942E1F6B0161
:103610007C01B801110F880B990B0E942E1F9B0192
:10362000AC01C701B6010E94841E6B017C0120E041
:1036300030E040E85FEB0E947A1E87FD0EC020E07C
:1036400030E0A901C701B6010E941D2018160CF038
:10365000DFCCC12CD12C7601DBCCC12CD12CF0E8F5
:10366000EF2EFFEBFF2ED4CC812C912C54012401A2
:10367000350135CD10E000E0F12CE12C46CDEE24F3
:10368000EA947FE7F72E3FCEEE24E39460E8F62E2F
:103690003ACE53E1B51609F492C064E181E090E8B6
:1036A000B61203CF30E020E041E08115B0E49B0783
:1036B0000CF440E04093C90241E08130E0EC9E0709
:1036C0000CF040E04093CA0241E02130F0EC3F07AB
:1036D0000CF040E04093CB0241E0211550E4350767
:1036E0000CF440E04093CC02C451DF4F8880CC5EA4
:1036F000D0408092CD0267963FAF2EAF67979195ED
:103700008195910969969FAF8EAF69976B96DFAEF1
:10371000CEAE6B9746E050E065E171E0CE018B5A8A
:103720009F4F0E94B221892BA1F086E0FE01EB5A47
:10373000FF4FA5E1B1E001900D928A95E1F70E945B
:10374000970626E030E0AE014B5A5F4F63E00E94DF
:10375000C105CF52DF4F8881C15DD0400E94560223
:10376000C151DF4FB880CF5ED040BB2021F080E256
:1037700093E00E94000A3092170320921603C5536B
:10378000DF4FC880D980CB5CD040D0921503C09267
:103790001403F0921303E0921203109311030093A9
:1037A000100380912E0380930F0380E090E0892B1B
:1037B00011F40C94E5100E9400000C94E5108FEFBA
:1037C0009FE770CF1092D2027CCE90E080E02FEF86
:1037D0003FE76ACF92E0992EC91047C1A0902E030F
:1037E000C752DF4FB880C95DD040BB2041F0A11067
:1037F00008C0AB2CD02EB12E9E2C8F2C07C0AA2037
:10380000C9F3A12CD12CB12C912C812CA092CD02EA
:103810000E945F034090B9025090BA026090BB02D0
:103820007090BC029B01AC01241935094609570967
:1038300029013A0138E0431651046104710408F487
:1038400088CF6093B9027093BA028093BB029093C1
:10385000BC022091B002AA2009F4E6C021110BC0DD
:103860006093AC027093AD028093AE029093AF026E
:1038700021E02093AB02A092B002AA2009F120918E
:10388000AB022223C9F04090AC025090AD02609090
:10389000AE027090AF029B01AC01241935094609B4
:1038A000570929013A0134EF431631E05306610408
:1038B000710410F01092AB022091AB022223A1F010
:1038C0004090A7025090A8026090A9027090AA02AE
:1038D000461A570A680A790ACC24C39414141504AA
:1038E000160417040CF0C12C892D982D0E940C0889
:1038F0002091B5023091B6024091B7025091B802C2
:103900000E940E1E2B013C018D2D9B2D0E940C0848
:103910009B01AC016091B1027091B2028091B3023F
:103920009091B4020E940D1E4B015C01C301B201D3
:103930000E94F61E61384FEF74070CF48FC0603898
:10394000710514F06FE770E0C953DF4F6883C75CFF
:10395000D040C501B4010E94F61E81E8D82E61381E
:10396000AFEF7A0734F06038710514F06FE770E05C
:10397000D62EC953DF4FB881C75CD0406B2FBB0F29
:10398000770B880B990B0E942E1F9B01AC01C30182
:10399000B2010E940D1E6093B5027093B60280932F
:1039A000B7029093B8026D2D0D2C000C770B880B8D
:1039B000990B0E942E1F9B01AC01C501B4010E940E
:1039C0000D1E6093B1027093B2028093B302909384
:1039D000B402C953DF4F8880C75CD040811007C054
:1039E000D11005C0809114018C1509F4B2CEC0929B
:1039F000140169961FAE1EAE69976696CFAE6697A4
:103A0000C953DF4F9880C75CD04067969FAE6797D9
:103A10006896DFAE68970E94970624E030E0AE011A
:103A20004B5A5F4F64E093CE222309F424CF2091B8
:103A3000AB02222309F41FCF2B013C014CE3440EBF
:103A4000511C611C711C4092A7025092A802609206
:103A5000A9027092AA021092AB020DCF51E8C9538D
:103A6000DF4F5883C75CD04074CFB7018FE090E040
:103A70000E947B08662777276E197F098EE090E009
:103A80000E947B08B8018CE090E00E947B086627CA
:103A90007727601B710B8DE090E00E947B08C75276
:103AA000DF4FA880C95DD040AA2049F090912E0335
:103AB00081E09827C451DF4F9883CC5ED040C45139
:103AC000DF4F6881CC5ED04080E190E00E945A08D0
:103AD00040CEFC0188279927E89421912032E9F310
:103AE000293010F02E30C8F32B3241F02D3239F44A
:103AF000689404C00E94EF1D820F911D21912053F4
:103B00002A30C0F31EF4909581959F4F08951F931E
:103B1000FC0199278827BC01E89411911032E9F340
:103B2000193010F01E30C8F31B3251F01D3249F429
:103B3000689406C00E94DA1D610F711D811D911DE0
:103B4000119110531A30B0F33EF490958095709512
:103B500061957F4F8F4F9F4F1F91089545EB53E025
:103B60000E94B31D0895FA01A191B081009719F444
:103B70001097E1F0CD01DC01CD010D90002011F492
:103B8000C00113C0FB012191222319F02015D9F7A0
:103B9000F3CFFB012191201519F41E92119606C056
:103BA0002223C1F70D900020A1F7D001FA01A193C3
:103BB000B0830895592F482F372F262F660F771F70
:103BC000881F991F660F771F881F991F620F731F29
:103BD000841F951F660F771F881F991F08957AE02D
:103BE000979F902D879F802D910D11240895F9990D
:103BF000FECF92BD81BDF89A992780B50895262FF2
:103C0000F999FECF1FBA92BD81BD20BD0FB6F894C1
:103C1000FA9AF99A0FBE019608955058BB27AA2721
:103C20000E94251E0C94CF1F0E94961F38F00E9400
:103C30009D1F20F039F49F3F19F426F40C94931F34
:103C40000EF4E095E7FB0C948D1FE92F0E94F41F02
:103C500058F3BA17620773078407950720F079F4C1
:103C6000A6F50C9416200EF4E0950B2EBA2FA02D7D
:103C70000B01B90190010C01CA01A0011124FF2719
:103C8000591B99F0593F50F4503E68F11A16F04014
:103C9000A22F232F342F4427585FF3CF4695379513
:103CA0002795A795F0405395C9F77EF41F16BA0BD8
:103CB000620B730B840BBAF09150A1F0FF0FBB1F86
:103CC000661F771F881FC2F70EC0BA0F621F731FCF
:103CD000841F48F4879577956795B795F7959E3F2C
:103CE00008F0B0CF9395880F08F09927EE0F9795BD
:103CF000879508950E94691F08F481E008950E9445
:103D0000A61FE3950C94E01F0E94981E0C94CF1FF1
:103D10000E949D1F58F00E94961F40F029F45F3FBB
:103D200029F00C948D1F51110C9417200C94931FA3
:103D30000E94F41F68F39923B1F3552391F3951B67
:103D4000550BBB27AA2762177307840738F09F5FBC
:103D50005F4F220F331F441FAA1FA9F335D00E2E29
:103D60003AF0E0E832D091505040E695001CCAF796
:103D70002BD0FE2F29D0660F771F881FBB1F261759
:103D800037074807AB07B0E809F0BB0B802DBF0130
:103D9000FF2793585F4F3AF09E3F510578F00C94FF
:103DA0008D1F0C9417205F3FE4F3983ED4F3869563
:103DB00077956795B795F7959F5FC9F7880F911D20
:103DC0009695879597F90895E1E0660F771F881F0C
:103DD000BB1F621773078407BA0720F0621B730BBF
:103DE000840BBA0BEE1F88F7E09508950E94FD1E24
:103DF0006894B1110C94172008950E94FC1F88F05C
:103E00009F5798F0B92F9927B751B0F0E1F0660F9E
:103E1000771F881F991F1AF0BA95C9F714C0B130DF
:103E200091F00E941620B1E008950C941620672F9F
:103E3000782F8827B85F39F0B93FCCF3869577950E
:103E40006795B395D9F73EF49095809570956195F7
:103E50007F4F8F4F9F4F0895E89409C097FB3EF422
:103E600090958095709561957F4F8F4F9F4F9923C7
:103E7000A9F0F92F96E9BB279395F6958795779545
:103E80006795B795F111F8CFFAF4BB0F11F460FF05
:103E90001BC06F5F7F4F8F4F9F4F16C0882311F05D
:103EA00096E911C0772321F09EE8872F762F05C071
:103EB000662371F096E8862F70E060E02AF09A950C
:103EC000660F771F881FDAF7880F9695879597F901
:103ED0000895990F0008550FAA0BE0E8FEEF16169B
:103EE0001706E807F907C0F012161306E407F507EE
:103EF00098F0621B730B840B950B39F40A2661F062
:103F0000232B242B252B21F408950A2609F4A14004
:103F1000A6958FEF811D811D089597F99F6780E811
:103F200070E060E008959FEF80EC089500240A940B
:103F30001616170618060906089500240A94121684
:103F400013061406050608950C94931F0E94FC1F87
:103F5000D8F3E894E0E0BB279F57F0F02AED3FE06C
:103F600049EC06C0EE0FBB0F661F771F881F28F0B5
:103F7000B23A62077307840728F0B25A620B730BD8
:103F8000840BE3959A9572F7803830F49A95BB0FBD
:103F9000661F771F881FD2F790480C94DF20092EE8
:103FA0000394000C11F4882352F0BB0F40F4BF2B94
:103FB00011F460FF04C06F5F7F4F8F4F9F4F0895D4
:103FC000EF93E0FF07C0A2EA2AED3FE049EC5FEB88
:103FD0000E94251E0E94CF1F0F90039401FC905851
:103FE000ECEAF0E00C94F22057FD9058440F551F76
:103FF00059F05F3F71F04795880F97FB991F61F06B
:104000009F3F79F087950895121613061406551FE1
:10401000F2CF4695F1DF08C0161617061806991F4D
:10402000F1CF86957105610508940895E894BB2742
:1040300066277727CB0197F908950E94691F08F436
:104040008FEF08950E9435200C94CF1F0E94961F79
:1040500038F00E949D1F20F0952311F00C948D1FC5
:104060000C94931F11240C9417200E94F41F70F3DA
:10407000959FC1F3950F50E0551F629FF001729F0D
:10408000BB27F00DB11D639FAA27F00DB11DAA1F1C
:10409000649F6627B00DA11D661F829F2227B00D69
:1040A000A11D621F739FB00DA11D621F839FA00DF4
:1040B000611D221F749F3327A00D611D231F849F44
:1040C000600D211D822F762F6A2F11249F5750409B
:1040D0009AF0F1F088234AF0EE0FFF1FBB1F661F16
:1040E000771F881F91505040A9F79E3F510580F0DF
:1040F0000C948D1F0C9417205F3FE4F3983ED4F38B
:10410000869577956795B795F795E7959F5FC1F782
:10411000FE2B880F911D9695879597F908959F938B
:104120000E94A61F0F9007FCEE5F0C94E01F19F48D
:1041300016F40C94931F0C94DD200E94FC1FB8F31E
:104140009923C9F3B6F39F57550B87FF0E94EB20C5
:104150000024A0E640EA900180585695979528F4EF
:10416000805C660F771F881F20F0261737074807E7
:1041700030F4621B730B840B202931294A2BA6953E
:1041800017940794202531254A2758F7660F771F83
:10419000881F20F026173707480730F4620B730B8F
:1041A000840B200D311D411DA09581F7B901842F8D
:1041B0009158880F9695879508959F3F31F09150BB
:1041C00020F4879577956795B795880F911D9695FB
:1041D000879597F9089591505040660F771F881F73
:1041E000D2F708959F938F937F936F93FF93EF93ED
:1041F0009B01AC010E942220EF91FF910E940621B9
:104200002F913F914F915F910C942220DF93CF9398
:104210001F930F93FF92EF92DF927B018C016894C2
:1042200006C0DA2EEF010E943520FE01E894A59128
:104230002591359145915591A6F3EF010E94251ED8
:10424000FE019701A801DA9469F7DF90EF90FF90E3
:104250000F911F91CF91DF91089597FB072E16F4D0
:10426000009407D077FD09D00E949E2107FC05D05D
:104270003EF4909581959F4F0895709561957F4F7D
:104280000895A1E21A2EAA1BBB1BFD010DC0AA1F97
:10429000BB1FEE1FFF1FA217B307E407F50720F0AF
:1042A000A21BB30BE40BF50B661F771F881F991F2A
:1042B0001A9469F760957095809590959B01AC0173
:1042C000BD01CF010895052E97FB1EF400940E94B6
:1042D0007A2157FD07D00E94412107FC03D04EF4FC
:1042E0000C947A2150954095309521953F4F4F4F32
:1042F0005F4F089590958095709561957F4F8F4F92
:104300009F4F0895EE0FFF1F0590F491E02D099443
:10431000A29FB001B39FC001A39F700D811D112406
:10432000911DB29F700D811D1124911D08950E9451
:104330008821B7FF0895821B930B0895AA1BBB1B0E
:1043400051E107C0AA1FBB1FA617B70710F0A61B95
:10435000B70B881F991F5A95A9F780959095BC01B6
:10436000CD010895FB01DC0104C08D9101908019FD
:1043700021F441505040C8F7881B990B0895FB0168
:10438000DC018D91019080190110D9F3990B0895EA
:10439000FB01DC014150504030F08D9101908019BB
:1043A00019F40020B9F7881B990B0895F894FFCFF2
:1043B00000C18081000000FFFFFFFF00E10000005E
:1043C00000000008FF00000000FFFF0000803F0029
:1043D00000FF01FF03000000009E054C061106F6D9
:1043E000050001030405060708090A0E0F1014153D
:1043F000312E30004B5021201F1E1508142B2C0A83
:1044000009E01A160407E132000103040506070853
:10441000090A1415000000000505EF043D053B05E1
:1044200084054205600500000000F207090709083D
:1044300008080D0A004745540053455420005245D2
:104440005345544B4559530053544154450043413F
:104450004C0042544E2000564552004445560053ED
:1044600050440053504420004449414700524F54A7
:1044700000524F5420004D4F4445004D4F444520BD
:1044800030004D4F44452031004D4F44452032000F
:00000001FF
