:100000000C94AE010C94E2010C94E2010C94E20118
:100010000C94E2010C94E2010C94E2010C94E201D4
:100020000C94E2010C94E2010C94220B0C949F0BB3
:100030000C94E2010C94E2010C94E2010C94E201B4
:100040000C94E2010C94E2010C94E2010C94E201A4
:100050000C94E2010C94E2010C94E2010C94D80A95
:100060000C94E2010C94E2010C94E2010C94E20184
:100070000C94E2010C94E2010C94E2010C94E20174
:100080000C94E2010C94E2010C94E2010C94E20164
:100090000C94E2010C94E2010C94E2010C94E20154
:1000A0000C94E2010C94E2010C94E20105A84CCD01
:1000B000B2D44EB93836A9020C50B9918688083CA2
:1000C000A6AAAA2ABE000000803F05010902A101DC
:1000D0000901A1008504050919012903150025015D
:1000E00075019503810275059501810305010930AC
:1000F000093109381581257F750895038106C0C02F
:1001000005010905A1018503093009311601802681
:10011000FF7F75109502810205091901291015004C
:100120002501750195108102C04F4B0043464700E1
:1001300050494E5300080B0002020200000904005F
:100140000001020200000524001001052401010144
:10015000042402060524060001070581031000405F
:1001600009040100020A0000000705020240000025
:10017000070583024000000403090412010002EF96
:10018000020140091203000001010203014A532D3C
:100190004B6579706164004A532D4B6579706164D9
:1001A00000444941472000535441544520004F4BDF
:1001B000004552520045525200455252004F4B00EA
:1001C000455252004552520045525200455252008B
:1001D0004F4B004D4F444520004F4B0045525200BD
:1001E000524F5420004F4B00455252005350442070
:1001F00000444556204A532D4B4559504144005622
:10020000455220004F4B00455252004F4B004F4B80
:1002100000535449434B2000070605040100080A17
:100220000B0C0D0900000000240027002A002D00FF
:100230003000000000002300260029002C002F00C1
:1002400000000000250028002B002E0031000404CF
:10025000040404030405020202020403020202026F
:100260000606060606060404020202040404080246
:10027000011040804010204080408008020401802E
:100280004020100201108010204040200000000299
:1002900000090F0000030401000C00000000000032
:1002A000000000000000000000000000000000004E
:1002B0000000002A2B2800000000000000000000C1
:1002C00000000000000000000000002C9EB4A0A16F
:1002D000A2A434A6A7A5AE362D3738271E1F20218D
:1002E0002223242526B333B62EB7B89F848586876C
:1002F00088898A8B8C8D8E8F909192939495969706
:1003000098999A9B9C9D2F3130A3AD350405060723
:1003100008090A0B0C0D0E0F1011121314151617E5
:1003200018191A1B1C1DAFB1B0B50005010906A1B3
:10033000018502050719E029E715002501750195DA
:100340000881029501750881039506750815002539
:10035000730507190029738100C0380E11241FBED0
:10036000CFEFDAE0DEBFCDBF14BE0FB6F894A8958C
:1003700080916000886180936000109260000FBEE1
:1003800023E0AAE0B2E001C01D92A53FB207E1F769
:1003900012E0A0E0B1E0E4E0F6E402C005900D92C6
:1003A000AA30B107D9F711E0CEEAD1E004C0219715
:1003B000FE010E94AC22CD3AD107C9F70E94850EFA
:1003C0000C9400230C94000083E08093E90080915A
:1003D000F200882319F08AE38093E8000895FC0175
:1003E00080916B03882311F13FB7F89482E08093EA
:1003F000E9002091F200822F90E01816190614F4FB
:1004000081E090E0882339F0289844E640936A031D
:100410004091F1004083222339F02091F200211114
:1004200003C02BE62093E8003FBF08958FEF9FEFB6
:10043000089581508F3008F047C0E82FF0E0ED5D5F
:10044000FD4F0C94AC2240024402320238023C02BE
:1004500064026402640247024D02510255025B02CB
:1004600064025F02809180008F77809380000895FE
:10047000809180008F7DF9CF80918000877FF5CFBC
:1004800084B58F7784BD089584B58F7DFBCF80912F
:1004900090008F77809390000895809190008F7DD9
:1004A000F9CF80919000877FF5CF8091C0008F7742
:1004B0008093C00008958091C0008F7DF9CF809116
:1004C000C200877F8093C20008951F93CF93DF936C
:1004D000EEE8F2E09491EFE6F2E0D491E0E5F2E0AC
:1004E000C491CC23B9F0182F992319F0892F0E94B9
:1004F0001902EC2FF0E0EE0FFF1FE05CFD4FA5911D
:10050000B4918FB7F894EC91111108C0D095DE2307
:10051000DC938FBFDF91CF911F910895DE2BF8CF31
:10052000CF93DF93282F30E0F901E457FD4F8491FA
:10053000F901E359FD4FD491F901E25BFD4FC491FC
:10054000CC23A1F081110E941902EC2FF0E0EE0FF4
:10055000FF1FEE5CFD4FA591B491EC91ED2381E07E
:1005600090E009F480E0DF91CF91089580E090E081
:10057000FACF80E10E949002892B19F08EE00C9452
:10058000900290E080E00895CF93DF9390E0FC012B
:10059000E359FD4F2491825B9D4FFC018491882398
:1005A000D1F090E0880F991FFC01EC5DFD4FA59103
:1005B000B491FC01E05CFD4FC591D491623071F4BF
:1005C0009FB7F8943C91822F809583238C93E88188
:1005D0002E2B28839FBFDF91CF9108958FB7F8947A
:1005E000EC912E2B2C938FBFF6CF8251E82FF0E0A9
:1005F000E85EFD4FE49190917B008E2F880F880F6D
:1006000080729F7D892B80937B00E770E064E0938C
:100610007C0080917A00806480937A0080917A00D7
:1006200086FDFCCF809178009091790008953FB7C6
:10063000F8948091660390916703A0916803B0914C
:10064000690326B5A89B05C02F3F19F00196A11D8F
:10065000B11D3FBFBA2FA92F982F8827BC01CD010C
:10066000620F711D811D911D42E0660F771F881F6B
:10067000991F4A95D1F708958F929F92AF92BF929A
:10068000CF92DF92EF92FF924B015C010E94170321
:100690006B017C010E9417036C197D098E099F096B
:1006A000683E734081059105A8F321E0821A910804
:1006B000A108B10888EEC80E83E0D81EE11CF11C29
:1006C00081149104A104B10429F7FF90EF90DF9009
:1006D000CF90BF90AF909F908F9008952FB7F894D0
:1006E000609162037091630380916403909165034C
:1006F0002FBF089540914D0250914E0220914B0220
:1007000030914C0242175307B4F49091E800957071
:10071000E1F39091E80092FD19C08093F10080917F
:100720004D0290914E0201968F739927892B19F4EF
:100730008EEF8093E80080914D0290914E020196D9
:1007400090934E0280934D0281E0089580E00895D9
:10075000EF92FF920F931F93CF93DF93F82E192FF1
:10076000E62E042F81E0860F880F0E947A0383E033
:100770000E947A03CF2DD12FEC0EFD2EF11CCE1549
:10078000DF05B9F007FF13C0FE0184910E947A03D0
:10079000182F80E00E947A03812321968111EFCFE8
:1007A000DF91CF911F910F91FF90EF900895888175
:1007B000EDCF81E0F5CFDF92EF92FF920F931F9381
:1007C000CF93DF93D82E8A01EB017B01E40EF51E57
:1007D000CE15DF0559F0D7FE12C0FE0184910E94AC
:1007E0007A0321968111F4CF0FEF1FEFC801DF913B
:1007F000CF911F910F91FF90EF90DF900895888126
:10080000EECF2FB7F89487708093E9009091E800BD
:10081000892F807295FF04C09091F20080E4891BBB
:100820002FBF08957F928F929F92AF92BF92CF92E7
:10083000DF92EF92FF920F931F93CF93DF93C82E17
:100840008B017A0180916B03811110C08FEF9FEFB4
:10085000DF91CF911F910F91FF90EF90DF90CF909C
:10086000BF90AF909F908F907F900895809151029C
:1008700080FF05C08091E00082608093E000CE2D73
:10088000DF2DD12C8AEFB82E8C2D8770982E8C2DD1
:100890008072882E8C2D8074782E9AE3A92E209752
:1008A00019F4DD2009F452C08C2D0E94010481113D
:1008B0000AC0BA94BB2051F261E070E080E090E0A1
:1008C0000E943C03ECCF8C171D0611F00CF08C2F0E
:1008D0009FB7F8949092E9002091E80025FD02C0AE
:1008E0009FBFDDCF282F30E0C21BD30B882029F01B
:1008F0008150A0F01092F100FBCFF801C7FC0AC0B4
:10090000815050F041914093F100FACF44914093CF
:10091000F10031968150D0F7020F131FDD2021F036
:10092000A092E800D12CDCCF8091E80085FD07C0C3
:10093000A092E800DD24D394209791F2F3CF209782
:1009400079F6772069F2A092E800CACF5D9884E634
:1009500080935002C7017CCF615030F02091F100AC
:10096000FC0120830196F8CF289884E680936A03DF
:1009700008958091430281110DC082E080933F026F
:1009800084E080934002109242021092410281E082
:10099000809343028FE392E008950F931F93CF93C8
:1009A000DF931F92CDB7DEB782E0898342E450E047
:1009B00065E371E080E80E94DB030E94B904DC017A
:1009C00012960D911C910115110589F0D801ED9138
:1009D000FC910280F381E02DBE016F5F7F4FC80163
:1009E000099597FD04C0F80100851185ECCF898138
:1009F0000F90DF91CF911F910F910895CF93DF93C7
:100A0000EC0180911201882331F083E00E941204EE
:100A10001816190634F081E090E09B838A8380E009
:100A200090E0DF91CF910895CF93DF931F92CDB7E0
:100A3000DEB76983DC01ED91FC910280F381E02D4A
:100A400041E050E0BE016F5F7F4F09950F90DF914D
:100A5000CF910895682F86E893E00C9414050F93C6
:100A60001F93CF93DF938C01D0E0C0E0F801EC0F2F
:100A7000FD1F6491662341F086E893E00E9414050F
:100A8000892B11F02196F2CFCE01DF91CF911F91EA
:100A90000F9108950C94E40183E00E94010490E01A
:100AA0000895CF93DF931F92CDB7DEB7FC01848505
:100AB000958597FD08C02FEF3FEF358724870F906E
:100AC000DF91CF910895CE0101960E94EF01019729
:100AD00019F4898190E0F3CF8FEF9FEFF0CF0F9360
:100AE0001F93CF93DF931F92CDB7DEB78C01FC012C
:100AF0008485958597FF0BC0CE0101960E94EF017A
:100B0000019771F4898190E0F80195878487F80155
:100B1000848595850F90DF91CF911F910F91089556
:100B20008FEF9FEFF1CFFC018485958597FD0BC07A
:100B30009FB7F89482E08093E9008091F2009FBF14
:100B400090E0019608959FB7F89482E08093E900C1
:100B50008091F2009FBF90E00895DC01FB011296A6
:100B60002C911297848195812817190641F491815F
:100B70008081813A31F49D7F81E0913009F080E0FD
:100B800008958132E1F79B3029F482811F968C937E
:100B900081E008959A3099F7828150968C93F8CF2E
:100BA000AF92BF92CF92DF92EF92FF920F931F937B
:100BB000CF93DF931F92CDB7DEB77C0169836A01C3
:100BC000590141E050E0BE016F5F7F4FFC0183811E
:100BD0000E9412048C0197FD0BC0F7018381A501CF
:100BE000B60180640E941204080F191F97FD8C0142
:100BF000C8010F90DF91CF911F910F91FF90EF905F
:100C0000DF90CF90BF90AF900895DC01FB0188E4A6
:100C1000808389E4818384E482831D969C911D975F
:100C20009F709F5B93831D968D919C9124E0969578
:100C300087952A95E1F78F708F5B848385E008950F
:100C4000EF92FF920F931F93CF93DF93FB012081CD
:100C5000213871F52381223259F5DC0112964C912D
:100C6000248135814217130619F5EC010B851C858B
:100C7000F12CE12C0115110589F0F8014481558111
:100C80006281738180E80E94DB038F3F980749F0FF
:100C9000E80EF91ED8010D911C91ECCF81E08F87F1
:100CA000C701DF91CF911F910F91FF90EF900895B1
:100CB00090E080E0F6CFCF93DF93CDB7DEB76997B2
:100CC0000FB6F894DEBF0FBECDBFFC01DB018C91E7
:100CD0008F5F8C939E012D5F3F4F8DE0D9011D9258
:100CE0008A95E9F729E0298384E08A8391E09D834E
:100CF00083E08E832A8721E22B879C879D879F87AD
:100D000022E2288B27E02B8B25E02C8B8E8B20E496
:100D100030E0388F2F8B998F82818B8395858685E4
:100D2000998B8A8B838180688D8B49E150E0BE016D
:100D30006F5F7F4F80E00E94DB0369960FB6F894E7
:100D4000DEBF0FBECDBFDF91CF910895CF93DF936C
:100D500080913702811167C081E080932A028093DD
:100D60002B0220E332E030932D0220932C021092CC
:100D70002F0210922E022AE231E0309327022093B4
:100D80002602109232021092310210923402109216
:100D90003302809335028093360281EC80933002D7
:100DA0000E94B904FC01818190912A02482F490FC9
:100DB0005527551F483051059CF5A281B3811097E6
:100DC00009F526E232E03383228320812093280232
:100DD0008093290280912B02820F808320912C0224
:100DE000A22FB0912D028A2F821B8917C8F481810E
:100DF0003D91C82FD0E0C050DF4F38838F5F818393
:100E0000F2CFD90118962D913C91199721153105F2
:100E1000C1F726E232E019963C932E931897D5CF6E
:100E200081E08093370286E292E0DF91CF910895CE
:100E3000CF92DF92EF92FF920F931F93CF93DF93A6
:100E40006C01EB017B01E40EF51E10E000E0CE1515
:100E5000DF0581F069916D30D1F3D601ED91FC9100
:100E60000190F081E02DC6010995892B19F00F5FE3
:100E70001F4FEDCFC801DF91CF911F910F91FF90D0
:100E8000EF90DF90CF900895CF93DF93EC01683817
:100E9000E0F06858FE0186E0662321F09681961303
:100EA00001C01682815031968111F6CF0E94A606AC
:100EB000AE014C5F5F4F28E030E062E00E94D00559
:100EC00081E090E0DF91CF910895862F90E067FF59
:100ED0000FC0FC01E058F10981E090E001C0880FEB
:100EE000EA95EAF780959C8189238C8360E0D2CFD4
:100EF000EC85FD85E80FF91F649190E080E06623A2
:100F000009F3862F807C803C49F48C818F7B8C8315
:100F10006F73623309F0BECF64E6BCCF67FFF9CFD1
:100F20008C818D7F8C836F77F4CFCF93DF93EC012F
:100F3000683858F168588E818617D1F08F818617EE
:100F4000B9F088858617A1F08985861789F08A858A
:100F5000861771F08B85861759F0FE01369690E062
:100F600080E02191211147C08C0F9D1FFC016683F9
:100F70000E94A606AE014C5F5F4F28E030E062E0C1
:100F80000E94D00581E090E01FC0862F90E067FFAF
:100F90000EC0FC01E058F10921E030E001C0220F51
:100FA000EA95EAF78C81822B8C8360E0C4CFEC85D4
:100FB000FD85E80FF91F6491611109C081E090E09F
:100FC0009B838A8390E080E0DF91CF910895862F04
:100FD000807C803C49F48C8180648C836F736233A5
:100FE00009F0A9CF64E6A7CF67FFF9CF8C818260B3
:100FF0008C836F77F4CF01968630910509F0B1CFDD
:10100000DDCFEF92FF921F93CF93DF93EC01162F6A
:101010000E9495077C01612FCE010E944407C70101
:101020009927DF91CF911F91FF90EF900895089538
:1010300090E080E008958F929F92AF92BF92CF92FE
:10104000DF92EF92FF92CF93DF939C012553334FB2
:1010500027393941D0F1BC0197FF04C066277727B3
:10106000681B790BEC016C5C7C40072E000C880B34
:10107000990B0E94582020E036E646EE56E40E9486
:10108000AE1F6B017C016091130170E090E080E085
:101090000E9458204B015C01A7019601C701B601CF
:1010A0000E944C219B01AC01C501B4010E944C215E
:1010B000D7FD9058DF91CF91FF90EF90DF90CF90C8
:1010C000BF90AF909F908F90089560E070E0CB014B
:1010D000F1CF262FFC01E851FD4F30813617A9F0E2
:1010E00060838C5A9D4FFC01628190E2960F98308C
:1010F00038F46056222351F084EE93E00C94950767
:101100009CEF960F68579437A8F3089584EE93E008
:101110000C944407CF92DF92EF92FF92CF93DF932C
:10112000EC01A09168026B01770FEE08FF08FC014B
:10113000E851FD4F80818823E1F0AF50BB0B2FEFCA
:101140003FE70E94C12224E630E040E050E00E94E8
:101150008D2261E02C153D054E055F050CF060E029
:10116000CE01DF91CF91FF90EF90DF90CF900C9464
:1011700069082A2F30E0AFEFBFE70E94B222E3CF29
:10118000CF93DF93D0E0C0E060E0CE010E94690819
:101190002196C231D105C1F7DF91CF910895DC01CD
:1011A00023E53AE42D933D9326E0E0E2F1E001905F
:1011B0000D922A95E1F726E0E0E2F1E0DC011896D5
:1011C00001900D922A95E1F70895FC01019000200D
:1011D000E9F73197AF01481B590BBC0186E893E052
:1011E0000C94FE0485E891E00C94E508CF93DF931E
:1011F0000E942F05EC010E94F2088C0F9D1FDF91C9
:10120000CF9108958F929F92AF92BF920F931F93A9
:10121000CF93DF93CDB7DEB7A1970FB6F894DEBFBB
:101220000FBECDBF19A2423008F44AE08E010F5D17
:101230001F4F842E912CB12CA12CA50194010E944A
:101240006B22E62FB901CA01EA30F4F4E05DD8015F
:10125000EE938D01232B242B252B79F790E080E052
:10126000109719F0CD010E94E508A1960FB6F894E9
:10127000DEBF0FBECDBFDF91CF911F910F91BF9009
:10128000AF909F908F900895E95CE1CFCF93DF936B
:10129000682F70E090E080E04AE00E940209EC01D3
:1012A0000E94F2088C0F9D1FDF91CF910895CF927D
:1012B000DF92EF92FF92CF93DF936C01990FEE08CC
:1012C000FF08F7FE17C08DE20E942A05EC01662791
:1012D0007727CB016C197D098E099F094AE00E948E
:1012E00002098C0F9D1FDF91CF91FF90EF90DF904F
:1012F000CF9008954AE0C701B601DF91CF91FF90EA
:10130000EF90DF90CF900C940209CF93DF9380E3AE
:1013100091E00E942F05C9E7D3E080E20E942A05F0
:10132000699170E090E080E04AE00E94020983E069
:10133000C638D80791F7DF91CF910C94F208CF937C
:10134000DF938CE291E00E942F05C6E5D2E080E2B7
:101350000E942A05699170E090E080E04AE00E94D6
:10136000020982E0C836D80791F780E20E942A0578
:1013700080916802DF91CF910C944609EF92FF9221
:101380000F931F93CF93DF937C018C01D0E0C0E0DB
:10139000CE010E94211FF80181938F012196CE304A
:1013A000D105B1F7C701DF91CF911F910F91FF9048
:1013B000EF9008950C94211FCF92DF92EF92FF924D
:1013C00080936902682F880F770B880B990B0E9416
:1013D00058202BED3FE049E450E40E944C2120E0EE
:1013E00030E044E353E40E94AE1F6B017C010E9495
:1013F000A91F60931B0170931C0180931D019093A2
:101400001E01C701B6010E94B92160933C0370938D
:101410003D0380933E0390933F03FF90EF90DF9056
:10142000CF900895FF920F931F93CF93DF93EC011A
:10143000F62E08811981C8010E94211FF81621F09B
:101440006F2DC8010E94291FCE01DF91CF911F91FE
:101450000F91FF900895CF93DF9300D0CDB7DEB703
:101460009A838983CE0101960E94120A0F900F90F1
:10147000DF91CF910895AF92BF92CF92DF92FF920A
:101480000F931F93CF93DF93D82FC92F0E94C008CB
:101490000D2F1C2F89E7A82E83E0B82E9CE6C92EBD
:1014A00093E0D92EC8E6D0E0F801F1908F01F50164
:1014B000F1925F0162E08F2D0E94C402F601119249
:1014C0006F016F2DCE010E942B0A2196C537D105E1
:1014D00059F76AE587E690E0DF91CF911F910F9170
:1014E000FF90DF90CF90BF90AF900C942B0AD82F35
:1014F000C62F0E94C0086D2F80E690E00E942B0A44
:10150000CC2331F089E291E00E94F6080E94E401C8
:1015100064E670E080E090E00E943C0368EC70E0DC
:1015200080E090E00E943C031092010810920008B5
:101530001092FF0A1092FE0A88E198E00FB6F89424
:10154000A895809360000FBE90936000FFCFEF924C
:10155000FF920F931F93CF93DF9300D0CDB7DEB7E9
:101560008C010E94C00885E1F801A4E5B2E0019079
:101570000D928A95E1F784E5E82E82E0F82E00E4EA
:1015800010E01A830983F70161917F01CE01019672
:101590000E94120A0F5F1F4F0535110591F70F903A
:1015A0000F90DF91CF911F910F91FF90EF900895D1
:1015B0001F920F920FB60F9211242F933F938F9388
:1015C0009F93AF93BF938091620390916303A09127
:1015D0006403B09165033091610323E0230F2D373D
:1015E00058F50196A11DB11D2093610380936203FC
:1015F00090936303A0936403B093650380916603A3
:1016000090916703A0916803B09169030196A11DB1
:10161000B11D8093660390936703A0936803B09312
:101620006903BF91AF919F918F913F912F910F903F
:101630000FBE0F901F90189526E8230F0296A11D4C
:10164000B11DD2CF1F920F920FB60F9211242F937C
:101650003F934F935F936F937F938F939F93AF933A
:10166000BF93CF93EF93FF93C091E1008091E1008E
:10167000837F8093E100C3FF0FC01092E90081E0F7
:101680008093EB001092EC0082E38093ED001092C7
:101690006B0388E08093F000C2FF1AC00E94E4014F
:1016A00080915002882341F08091500281508093B4
:1016B0005002811101C05D9A80916A03882341F034
:1016C00080916A03815080936A03811101C0289A36
:1016D000C4FF23C08091E2008E7E81608093E2008F
:1016E0008091E1008F7E8093E100809151028E7E97
:1016F000806180935102FF91EF91CF91BF91AF91A3
:101700009F918F917F916F915F914F913F912F9119
:101710000F900FBE0F901F901895C0FFECCF8091D7
:10172000E2008E7E80618093E2008091E1008E7EF7
:101730008093E100809151028E7E8160DACF1F920A
:101740000F920FB60F921124CF92DF92EF92FF9279
:101750000F931F932F933F934F935F936F937F93B9
:101760008F939F93AF93BF93EF93FF93CF93DF93A9
:10177000CDB7DEB76C97DEBFCDBF1092E900809188
:10178000E80083FF25C068E0CE0145960E94AC04C6
:1017900082EF8093E8008D8987FF39C09091E8003F
:1017A00090FFFCCF982F907609F034C19E894F8925
:1017B000588D2F89F88C911131C0803861F5809156
:1017C00052028093F1001092F1008EEF8093E800B6
:1017D0006C960FB6F894DEBF0FBECDBFDF91CF91F0
:1017E000FF91EF91BF91AF919F918F917F916F91F9
:1017F0005F914F913F912F911F910F91FF90EF902B
:10180000DF90CF900F900FBE0F901F9018959EEF16
:101810009093E800C7CF1092F100D5CF913059F4E2
:101820008111D3CF4130510581F6809152028D7FD5
:1018300080935202CACF933049F48111C6CF413010
:10184000510519F6809152028260F2CF953041F431
:101850008091E80080FFFCCF20682093E300B5CFA3
:10186000963009F0A9C00B8D1C8D22E01092E90082
:1018700010924E0210924D02F2122EC010924C02A3
:1018800010924B020E94CD041F8299E09983FA8244
:1018900091E09E8390EA98879AEF998720914D0274
:1018A00030914E02275F3F4F3C832B838D831092F4
:1018B000E90010924E0210924D0210934C020093D8
:1018C0004B0249E050E0BE016F5F7F4F80E00E9415
:1018D000DB030E94CD0479CF10934C0200934B029E
:1018E0000E94B904DC0112960D911C91011511059D
:1018F00009F451C1D801ED91FC910480F581E02DEE
:10190000BE016B5E7F4FC8010995009709F03EC18B
:10191000F80100851185EACFF3E0FF120EC08F8930
:10192000882309F440C0823061F440E869E087E927
:1019300091E00E94A803811148CF81E28093EB00DF
:1019400047CF813029F440E869E08DE891E0F1CF9C
:10195000833099F70E94B904DC011296ED90FC9057
:101960008E010F5F1F4F6801E114F10479F0D70178
:10197000ED91FC910680F781E02DB801C701099532
:10198000080F111DF701E084F184EECFD8011C92FD
:10199000F60101900020E9F73197BF016C197D092C
:1019A00040E0C601C6CF67E771E0FB01449150E01B
:1019B00080E80E94DB0309CF973009F4BECF98304E
:1019C00021F481E08093F10000CF993009F0FDCE41
:1019D000837009F0B2CFE1E0F1E081E031E096E31D
:1019E0002191222371F08093E9003093EB00DF0115
:1019F00011972C912093EC009093ED008F5F87302E
:101A000079F78EE78093EA001092EA008F8980933D
:101A10006B03DBCE8B8D9C8D1092E90010924E02F1
:101A200010924D0290934C0280934B02898D81114C
:101A300092C08E899D89913A49F4813209F07DCF17
:101A400047E050E06BE071E080E0B3CF913209F005
:101A500074CF833269F48F89988DB0E0A0E08093D1
:101A6000070190930801A0930901B0930A01ADCE3C
:101A7000803269F48091E80082FFFCCF67E08BE060
:101A800091E00E94AC048BEF8093E8009ECE8232FE
:101A900009F09BCE8F8980931201EEEFFFE78591CD
:101AA00094918B3F9C4D51F1E0E0F8E080910B0167
:101AB00090910C01A0910D01B0910E01803B9440DA
:101AC000A105B105F1F48091120180FD1AC0EE3F2D
:101AD0008AE0F80789F587E797E79183808380910B
:101AE000600080934F0288E19BE00FB6F894A895C0
:101AF000809360000FBE9093600067CEEEEFFAE037
:101B0000D5CF808191818737974709F05ECEA89520
:101B10008091600088618093600080914F02809383
:101B20006000EE3F2AE0F20789F08091FE0A909172
:101B3000FF0A9183808349CE8081918187379807FE
:101B400051F29093FF0A8093FE0AC5CF1092FF0ACC
:101B50001092FE0A3ACE0E94B904DC0112960D9151
:101B60001C910115110509F4E8CED801ED91FC9105
:101B70000190F081E02DBE016B5E7F4FC801099599
:101B8000811123CEF80100851185EBCF18161906B7
:101B90000CF41BCED2CEF1E0FF12BECE6BE771E0AB
:101BA00004CFFC01A385B485109771F47487638713
:101BB00085859685DB0114962D913C91820F931FAC
:101BC000968785870895DC018D919C9111970097E8
:101BD000D1F76D937C93ECCFCF93DF93EC0180E64C
:101BE00090E00E94DA099FEF980F923020F018825F
:101BF000DF91CF91089588838130F1F490911E0296
:101C0000911112C0109219021092180220E031E0D6
:101C100030931B0220931A0229E230E030931D0218
:101C200020931C0280931E020E94A60668E172E0C7
:101C3000DF91CF910C94D10D80911002811113C0CE
:101C400010920B0210920A028AEC90E090930D021F
:101C500080930C0286E390E090930F0280930E0233
:101C600081E0809310020E94A6066AE072E0E0CF55
:101C7000109289031092880388EE93E0A0E0B0E010
:101C800080938A0390938B03A0938C03B0938D036E
:101C90008BE691E090938703809386038FEF9FEF0D
:101CA00090939303809392031092E7031092E603BC
:101CB0008DE791E09093E5038093E4038091DC034A
:101CC000811113C01092D7031092D6038BE293E0D8
:101CD0009093D9038093D8038FE290E09093DB0335
:101CE0008093DA0381E08093DC030E94A60666ED10
:101CF00073E00E94D10D8BEA92E09093F103809300
:101D0000F00382EF93E00C94EC0DCF93DF93CDB70B
:101D1000DEB7C95FD1090FB6F894DEBF0FBECDBFE5
:101D2000789484B5826084BD84B5816084BD85B5B6
:101D3000826085BD85B5816085BD80916E008160C2
:101D400080936E0010928100809181008260809368
:101D5000810080918100816080938100809180006A
:101D600081608093800080919100826080939100D7
:101D700080919100816080939100809190008160BA
:101D8000809390008091C10084608093C100809115
:101D9000C10082608093C1008091C1008160809306
:101DA000C1008091C30081608093C3008091C00016
:101DB00082608093C0008091C20081608093C200E5
:101DC00080917A00846080937A0080917A008260AA
:101DD00080937A0080917A00816080937A0080916C
:101DE0007A00806880937A0010926B0310925202FE
:101DF000109251028091D70081608093D70080EAD1
:101E00008093D80089B5806189BD89B5826089BD1C
:101E100009B400FEFDCF61E070E080E090E00E9438
:101E20003C038091D8008F7C80618093D8008091A2
:101E3000E000807F8093E0008091E1008E7E8093BF
:101E4000E1008DE08093E200559A209A62E08EE0F6
:101E50000E94C40262E080E10E94C40262E370E07A
:101E600080E090E00E943C030E94B902892B39F582
:101E70000E946E036B017C010E94B902892BE1F480
:101E80000E946E036C197D098E099F09683B7B4097
:101E90008105910588F387E797E790930108809380
:101EA000000888E19BE00FB6F894A8958093600045
:101EB0000FBE90936000FFCF81E08093530262E0F9
:101EC0008EE00E94C40262E080E10E94C40201E44C
:101ED00011E022E331E0CE50DF4F39832883C25F27
:101EE000D04062E0CE50DF4FA881B981C25FD040C0
:101EF0008D91CE50DF4FB983A883C25FD0400E943E
:101F0000C402CE50DF4F88809980C25FD040081550
:101F1000190539F787E690E00E94DA0991E08A35E1
:101F200009F090E089E7E82E83E0F82E08E610E05B
:101F300021E4C22E21E0D22E91115DC28DE0EAE5AE
:101F4000F1E0A9E7B3E001900D928A95E1F706E888
:101F5000E02E03E0F02E09E713E062E0F801819142
:101F60008F010E94C402E016F106B9F785E690E001
:101F70000E94DA0991E0811101C090E090931F0165
:101F800061E082E00E94C40280E00E94650282E675
:101F900090E00E94DA09182F83E690E00E94DA09A7
:101FA000853A21F4163A14F01B350CF010E0812F1D
:101FB0000E94DC0984E690E00E94DA099FEF980F06
:101FC000943108F088E08093130114E5E12E12E0CB
:101FD000F12E00E410E0C8010E94211FD7018D936B
:101FE0007D010F5F1F4F05351105A9F78091540240
:101FF000909155028C34904529F480916802845167
:102000008C3448F085E1E5E4F1E0A4E5B2E001902C
:102010000D928A95E1F7CE014D960E94BE098EE0A1
:10202000FE017D96DE01AE55BF4F01900D928A955F
:10203000E1F78D8D9E8D83359A4409F0F7C1CC551B
:10204000DF4F88809980C45AD040CE52DF4F9982AA
:102050008882C25DD040CA55DF4FA880B980C65A79
:10206000D040C853DF4FB982A882C85CD040C85561
:10207000DF4F28803980C85AD040C655DF4FE880EE
:10208000F980CA5AD040C453DF4FF982E882CC5C51
:10209000D040C455DF4F08811981CC5AD040C25579
:1020A000DF4F88809980CE5AD040C653DF4F998247
:1020B0008882CA5CD040B8E0CB2ED12C412C512C68
:1020C0003201812C912C540183E10E94F502092EEA
:1020D000000CAA0BBB0B880E991EAA1EBB1E82E128
:1020E0000E94F502092E000CAA0BBB0B480E591ECC
:1020F0006A1E7B1E65E070E080E090E00E943C0379
:1021000021E0C21AD10801F7A8E0CA2ED12CE12C97
:10211000F12CC501B401A70196010E948D22C8537C
:10212000DF4F88809980C85CD040C401990CAA0B0D
:10213000BB0B49015A01881A990AAA0ABB0AC301B2
:10214000B201A70196010E948D22C801012E000C48
:10215000AA0BBB0B821B930BA40BB50BC853DF4F11
:10216000E880F980C85CD0402E183F08CE52DF4F7F
:1021700028813981C25DD040E21AF30AE214F304E7
:102180000CF47101A701FF0C660B770BC653DF4FF0
:1021900028813981CA5CD040201B310BC453DF4FEA
:1021A000E880F980CC5CD0400E191F090217130794
:1021B0000CF48901012E000C220B330B4A37510518
:1021C000610571050CF455C175956795579547954F
:1021D0000A371105210531050CF450C135952795B5
:1021E00017950795081719072A073B078CF47501FF
:1021F0006401B7FE07C0CC24DD247601C818D908D5
:10220000EA08FB08C816D906EA06FB060CF43BC12F
:10221000CC24DD247601C81AD90AEA0AFB0A0C1577
:102220001D052E053F05ACF4B7FF02C0D701C6015E
:1022300095018401B7FE07C00027112798010819EE
:1022400019092A093B09081719072A073B070CF443
:102250001CC1481559056A057B050CF418C180910D
:102260005302882369F08091F20390E0019663E0C5
:1022700070E00E9457229091F20360E09813A7C388
:102280008FEF9FEF90939303809392038BEA92E0FA
:102290009093F1038093F0031E0105E5200E311C9D
:1022A00080916003811180C0C1010E94BE098EE04F
:1022B000F101DE01A858BF4F01900D928A95E1F718
:1022C0008EE0FE01E858FF4FDE01A659BF4F019096
:1022D0000D928A95E1F7EA968EAD9FADEA97833528
:1022E0001AE4910709F0D5C0AC969FAF8EAFAC97BA
:1022F0002EE0FE01E659FF4FDE01AC56BF4F0190C4
:102300000D922A95E1F7CC56DF4F99838883C45903
:10231000D0402EE0FE01EC56FF4FDE01AA57BF4F22
:1023200001900D922A95E1F72EE0FE01EA57FF4F4A
:10233000DE01D99601900D922A95E1F79AAF89AF07
:1023400028961FAE289711E029961FAF29972A9645
:102350001FAE2A972B961FAE2B972F961CAE1DAE45
:102360001EAE1FAE2F9760961FAE609761961FAE90
:10237000619765961CAE1DAE1EAE1FAE65978CE1D3
:10238000FE01F996A4E4B3E001900D928A95E1F77D
:102390000E941703609340037093410380934203AC
:1023A0009093430310936003FF24F39486E893E033
:1023B0000E949305181619060CF023C386E893E0D3
:1023C0000E9451058D3091F32091CA023091CB02C9
:1023D0008A3009F006C326593D4FD9011C9268E89E
:1023E00071E08AE692E00E94E922892B09F05DC043
:1023F0000E949F09BDC0C8010E94211FD7018D9373
:102400007D01E2E3F1E09191981771F0CE16DF06BD
:10241000D1F790E00F5F1F4F0537110509F08CCD04
:10242000992309F48BCD93CD91E0F4CFCE010196A1
:102430000E94CF08AB80BC80CE52DF4FB982A88209
:10244000C25DD040ED80FE80C853DF4FF982E88244
:10245000C85CD0402F80388409851A85C453DF4F6B
:1024600019830883CC5CD0400B851C858D849E84A9
:102470001CCE4CE350E060E070E0AACE0CE310E02C
:1024800020E030E0AFCE80E0F6CE82E0F4CE81E016
:10249000F2CECE018C569F4F0E94CF08CC56DF4F14
:1024A00088819981C459D0402ECF44E050E06CE837
:1024B00071E08AE692E00E94F2226C01892B09F019
:1024C0004DC085E1E4E5F2E0D10101900D928A95DD
:1024D000E1F781018EE692E0C114D10411F090E0A1
:1024E00080E06FED71E00E94D81E009729F488EC1F
:1024F00091E00E94F6083CC00E94B11E6F3F71053A
:102500008105910521F018F084EC91E0F2CFB2E161
:10251000CB16D104C9F0F8016283BFEFCB1ADB0AF6
:102520000F5F1F4FE3E1CE16D104A1F6D1018D91CB
:102530009C918C34904529F4F101848984518C3428
:1025400038F080EC91E0D5CFD10154966C93E5CF73
:10255000C1010E94A70A8DEB91E0CBCF6CE971E03D
:102560008AE692E00E94E922892B39F40E948509CB
:102570001092CB021092CA0219CF45E050E061E9F7
:1025800071E08AE692E00E94F2226C01892B09F048
:102590004EC081018FE692E0C114D10411F090E0A9
:1025A00080E06FED71E00E94D81E009719F489EB6E
:1025B00091E09FCF0E94B11E6F3F7105810591058B
:1025C00009F068F4262FE2E3F1E03191231751F08E
:1025D00031E4832E31E0932E8E169F06B1F785EB02
:1025E00091E087CFF1019F01221933092C153D0598
:1025F0006CF42191822E912CB12CA12C68157905B7
:102600008A059B0581F781EB91E073CFD8016D932B
:102610008D01BFEFCB1ADB0AEDE0CE16D10409F035
:10262000B9CFC1010E943B0A8EEA91E062CF67E90F
:1026300071E08AE692E00E94E922892B51F48AE552
:1026400091E00E943B0A60E087E690E00E942B0A3E
:102650008DCF61EA71E08AE692E00E94E922892B3F
:1026600051F481E192E00E942F0580911F0190E0DA
:102670000E94570973C067EA71E08AE692E00E94FF
:10268000E922892B41F06FEA71E08AE692E00E942C
:10269000E922892B79F461E080917002813309F09D
:1026A00060E060931F0185E690E00E942B0A8EE0B7
:1026B00092E01FCF67EB71E08AE692E00E94E92288
:1026C000892B29F485E491E00E94A70A91CE61EC60
:1026D00071E08AE692E00E94E922892B09F043C06A
:1026E00087EA91E00E942F0580913A0390913B0385
:1026F0000E94570980E20E942A0580913803909138
:1027000039030E94570980E20E942A05809136030E
:10271000909137030E94570980E20E942A05809118
:102720003403909135030E94570980E20E942A05E4
:102730008091330390E00E94570980E20E942A05AD
:1027400008EE12E0D8018D918D01882351F081E3CC
:102750000E942A05B2E00A3F1B07A1F70E94F20877
:1027600007CF80E3F5CF67EC71E08AE692E00E9444
:10277000E922892B29F4F092D1028BE092E0B9CEC4
:1027800044E050E06BEC71E08AE692E00E94F222B5
:10279000892B01F58EE692E00E94931E2091F203B0
:1027A000213031F49C01215031092431310518F0D8
:1027B00087E092E09ECE8093FE020E946E036093BB
:1027C000FA027093FB028093FC029093FD0284E076
:1027D00092E08FCE60ED71E08AE692E00E94E922FD
:1027E000892B49F48FEF91E00E942F0581E491E05D
:1027F0000E94E508B3CF64ED71E08AE692E00E94A2
:10280000E922892B19F481EF91E073CE68ED71E034
:102810008AE692E00E94E922892B49F48CEE91E04D
:102820000E942F05809113010E944609A1CE44E029
:1028300050E06CED71E08AE692E00E94F222892B72
:10284000B9F48EE692E00E94931E9C01215031095A
:102850002431310518F088EE91E04BCE80931301BE
:10286000682F84E690E00E942B0A85EE91E041CE2D
:1028700061EE71E08AE692E00E94E922892BE1F59F
:1028800081EA91E00E942F0582E10E94F5020E94F8
:10289000570980E20E942A0583E10E94F5020E9406
:1028A000570980E20E942A0502E311E0D12CF801C9
:1028B000E1908F018E2D0E949002892B71F4DD2012
:1028C00019F08CE20E942A056E2D70E090E080E005
:1028D0004AE00E940209DD24D394CE50DF4F888065
:1028E0009980C25FD0400815190509F7D11036CF7D
:1028F0008DE20E942A0532CF66EE71E08AE692E010
:102900000E94E922892B51F480EE91E00E942F056C
:1029100080916902082E000C990BAACE44E050E089
:102920006AEE71E08AE692E00E94F222892BE9F4D5
:102930008EE692E00E94931E8C01865A9F4F853B43
:10294000910518F08CED91E0D4CD802F0E94DC0928
:10295000602F82E690E00E942B0A65EA83E690E011
:102960000E942B0A89ED91E0C4CD6FEE71E08AE6FA
:1029700092E00E94E922892B39F483ED91E00E94D4
:102980002F058091F20350CF64EF71E08AE692E068
:102990000E94E922892B81F06BEF71E08AE692E0D8
:1029A0000E94E922892B41F062E072E08AE692E01F
:1029B0000E94E922892B69F480916F0280539091E3
:1029C000F203891303C080ED91E093CD61E00E9492
:1029D000770A80916A02882309F4CACD8CEC91E0D1
:1029E00088CD2F3531050CF0E1CCA9014F5F5F4F49
:1029F0005093CB024093CA0226593D4FD9018C9384
:102A0000D5CC0E94170300914003109141032091FF
:102A1000420330914303AB01BC01401B510B620BDD
:102A2000730B77FDE2C7D901C80188519C4FAF4FA6
:102A3000BF4F8093400390934103A0934203B09310
:102A400043030E941703009140031091410320911A
:102A5000420330914303601B710B820B930B1616DC
:102A600017061806190674F40E94170368517C4F64
:102A70008F4F9F4F609340037093410380934203B5
:102A8000909343030E946E03C852DF4F688379839B
:102A90008A839B83C85DD04083E10E94F502C853BE
:102AA000DF4F99838883C85CD04082E10E94F502A1
:102AB000C453DF4F99838883CC5CD0400E94B90215
:102AC000BC018091D1028823A9F01092D10281E04B
:102AD0008093D002C852DF4F88809980AA80BB8043
:102AE000C85DD0408092CC029092CD02A092CE02DE
:102AF000B092CF028091D0028823E9F08091CC027D
:102B00009091CD02A091CE02B091CF02C852DF4F7A
:102B1000E880F9800A811B81C85DD040E81AF90A73
:102B20000A0B1B0BD801C70184369105A105B1051D
:102B300010F01092D0023091D00200914403109115
:102B40004503CC50DF4F19830883C45FD040809089
:102B5000460390904703C452DF4F99828882CC5D30
:102B6000D040E091480380914903A0904A03B0907F
:102B70004B03CC52DF4FB982A882C45DD040E090B5
:102B80004C03F0904D03C252DF4FF982E882CE5DD4
:102B9000D04050914E0340914F030091500310914B
:102BA0005103C253DF4F19830883CE5CD04010918C
:102BB0005203CE52DF4F1883C25DD0408090530342
:102BC000CA51DF4F8882C65ED04090905403C551F1
:102BD000DF4F9882CB5ED040A0905503C052DF4FAC
:102BE000A882C05ED040E0905603F0905703009159
:102BF000580310915903C951DF4FE882F9820A83C3
:102C00001B83C75ED040F0905A03C451DF4FF88257
:102C1000CC5ED04090915B0380905C0390905D030C
:102C2000A0905E03B0905F03C351DF4F888299820A
:102C3000AA82BB82CD5ED04021E0672B09F020E064
:102C4000C551DF4F9880CB5ED0402915A9F0C55102
:102C5000DF4F2883CB5ED040C852DF4FE880F98039
:102C60000A811B81C85DD040C951DF4FE882F982DB
:102C70000A831B83C75ED040C852DF4FC880D9800B
:102C8000EA80FB80C85DD040C951DF4F88809980C1
:102C9000AA80BB80C75ED040C818D908EA08FB08E4
:102CA0000AE1C016D104E104F10428F0C052DF4F5C
:102CB0002883C05ED040C052DF4F1881C05ED04034
:102CC000C653DF4F1883CA5CD040C451DF4F8880A1
:102CD000CC5ED0403815A9F0C451DF4F3883CC5EAC
:102CE000D040C852DF4FE880F9800A811B81C85D5F
:102CF000D040C351DF4FE882F9820A831B83CD5E47
:102D0000D040C852DF4FC880D980EA80FB80C85DC0
:102D1000D040C351DF4F88809980AA80BB80CD5EB0
:102D2000D040C818D908EA08FB080AE1C016D10447
:102D3000E104F10470F1CB51DF4F3883C55ED04020
:102D4000CB51DF4F1881C55ED04021E09227111191
:102D500001C090E0CA51DF4F8880C65ED04081102C
:102D60001EC0CB51DF4F9880C55ED040911006C089
:102D700001E0CA51DF4F0883C65ED040CE52DF4F1C
:102D80001882C25DD040CF50DF4F1882C15FD04063
:102D900023C0CB51DF4F9883C55ED040D1CF99235C
:102DA00091F3CE52DF4F1881C25DD040112309F458
:102DB00086C4CE52DF4F1882C25DD04003E51AE4CC
:102DC000CC50DF4F19830883C45FD04011E0CF504F
:102DD000DF4F1883C15FD040CC50DF4F888099808F
:102DE000C45FD0409E8E8D8EC452DF4FA880B980C4
:102DF000CC5DD040B8A2AF8EE9A38AA3CC52DF4FFE
:102E0000E880F980C45DD040FCA2EBA2C252DF4F43
:102E100008811981CE5DD0401EA30DA35FA348A7F2
:102E2000C253DF4F88809980CE5CD0409AA689A695
:102E3000CE52DF4F9880C25DD0409BA6CA51DF4F73
:102E4000A880C65ED040ACA6C551DF4FB880CB5E2F
:102E5000D040BDA6C052DF4FE880C05ED040EEA695
:102E6000C951DF4F88809980AA80BB80C75ED0405F
:102E70008FA698AAA9AABAAAC451DF4F9880CC5E9F
:102E8000D0409BAACB51DF4FA880C55ED040ACAAF2
:102E9000C351DF4FE880F9800A811B81CD5ED040AD
:102EA000EDAAFEAA0FAB18AFCE52DF4FF880C25D7D
:102EB000D040FF2009F4C2C086E0FE017F96DE010B
:102EC000AA54BF4F01900D928A95E1F7C452DF4F8B
:102ED00008811981CC5DD040C853DF4F888099802C
:102EE000C85CD0408016910634F4C452DF4F9982FA
:102EF0008882CC5DD040CC52DF4FA880B980C45DC1
:102F0000D040C853DF4FE880F980C85CD040AE1491
:102F1000BF0434F4CC52DF4FF982E882C45DD04064
:102F2000C452DF4F08811981CC5DD040CA54DF4FB5
:102F300019830883C65BD040CC52DF4F88809980CC
:102F4000C45DD040C654DF4F99828882CA5BD040AE
:102F500086E0FE01EA54FF4FDE01A055BF4F01900D
:102F60000D928A95E1F786E0FE01E055FF4FDE0104
:102F70005F9601900D928A95E1F786E0FE01B59685
:102F8000DE01AE53BF4F01900D928A95E1F7C25218
:102F9000DF4FA880B980CE5DD040C453DF4FE880BA
:102FA000F980CC5CD040EA14FB0434F4C252DF4F09
:102FB000F982E882CE5DD040C253DF4F088119818B
:102FC000CE5CD040C453DF4F88809980CC5CD04029
:102FD0000815190534F4C253DF4F99828882CE5CFC
:102FE000D040C252DF4FA880B980CE5DD040CE53D2
:102FF000DF4FB982A882C25CD040C253DF4FE88065
:10300000F980CE5CD040CA53DF4FF982E882C65CBB
:10301000D04086E0FE01EE53FF4FDE01A454BF4FC7
:1030200001900D928A95E1F786E0FE01E454FF4F8E
:10303000DE01959601900D928A95E1F7C452DF4F1B
:1030400008811981CC5DD04018A30F8FCC52DF4F7F
:1030500088809980C45DD0409CA28BA2C252DF4F71
:10306000A880B980CE5DD040BEA2ADA2C253DF4FD2
:10307000E880F980CE5CD040FAA6E9A68CE1FE019A
:103080007D96DE01119601900D928A95E1F70D81F2
:103090001E81CF51DF4F19830883C15ED0408B84DE
:1030A0009C84CD51DF4F99828882C35ED040CE523E
:1030B000DF4F9880C25DD0409110EAC3C853DF4F04
:1030C000A880B980C85CD040A016B1060CF436C305
:1030D000CC52DF4F08811981C45DD040CF51DF4F02
:1030E000E880F980C15ED0400E191F091016110644
:1030F0000CF06BC3B5016E197F09072E000C880B0D
:10310000990B0E9458206B017C01B801110F880BAC
:10311000990B0E9458209B01AC01C701B6010E9487
:10312000AE1F2B013C0120E030E0A9010E94A41F4A
:1031300087FD4BC320E030E040E85FE3C301B2010C
:103140000E944721181634F4412C512C10E8612EAE
:103150001FE3712EC453DF4FE880F980CC5CD04070
:10316000CD51DF4F08811981C35ED040E016F106D2
:103170000CF436C3C253DF4F08811981CE5CD040B6
:10318000CD51DF4F88809980C35ED040081919095E
:10319000101611060CF06BC3B70168197909072ED8
:1031A000000C880B990B0E9458206B017C01B80120
:1031B000110F880B990B0E9458209B01AC01C7018D
:1031C000B6010E94AE1F6B017C0120E030E0A90136
:1031D0000E94A41F87FD4BC320E030E040E85FE37E
:1031E000C701B6010E944721181634F4C12CD12C16
:1031F000A0E8EA2EAFE3FA2EA3019201C301B201C7
:103200000E944C214B015C01A7019601C701B60148
:103210000E944C219B01AC01C501B4010E94381FE2
:103220000E94C721CA50DF4F688379838A839B83BA
:10323000C65FD0402DEC3CEC4CE45DE30E94A41F43
:1032400018160CF01FC32DEC3CEC4CE45DE3CA50A7
:10325000DF4F688179818A819B81C65FD0400E945F
:10326000371F23E333E343E75FE30E94AE1F4B01C5
:103270005C0120E030E040E85FE30E94472118163F
:1032800034F4812C912CE0E8AE2EEFE3BE2ECA5030
:10329000DF4F288139814A815B81C65FD040C501FB
:1032A000B4010E94AE1F4B015C01A30192010E9478
:1032B0004C212B013C01A7019601C501B4010E94DC
:1032C0004C214B015C0120E03EEF4FEF56E4C3017F
:1032D000B2010E944C210E9420207B0120E03EEFA1
:1032E0004FEF56E4C501B4010E944C210E942020FA
:1032F000CC50DF4F08811981C45FD0401093450343
:1033000000934403C452DF4F88809980CC5DD04045
:103310009092470380924603CF51DF4FA880B98037
:10332000C15ED040B0924903A0924803CC52DF4F17
:1033300008811981C45DD04010934B0300934A0368
:10334000C252DF4F88809980CE5DD04090924D036D
:1033500080924C03CD51DF4FA880B980C35ED0402E
:10336000B0924F03A0924E03C253DF4F08811981E0
:10337000CE5CD0401093510300935003CE52DF4FE8
:103380001881C25DD04010935203CA51DF4F88802C
:10339000C65ED04080925303C551DF4F9880CB5E0C
:1033A000D04090925403C052DF4FA880C05ED040FE
:1033B000A0925503C951DF4F88809980AA80BB80B5
:1033C000C75ED0408092560390925703A092580354
:1033D000B0925903C451DF4F9880CC5ED040909298
:1033E0005A03CB51DF4FA880C55ED040A0925B034B
:1033F000C351DF4F88809980AA80BB80CD5ED040CA
:1034000080925C0390925D03A0925E03B0925F0392
:1034100080911F0100271127061B170B811104C083
:1034200010E000E0F12CE12CB701FF0C880B990BA8
:103430000E9458204B015C0120911B0130911C011E
:1034400040911D0150911E01C253DF4F28833983E3
:103450004A835B83CE5CD040B801110F880B990B77
:103460000E9458202B013C01E0903C03F0903D036A
:1034700000913E0310913F03CC52DF4FE882F98266
:103480000A831B83C45DD040C253DF4F288139813A
:103490004A815B81CE5CD040C501B4010E944C21C1
:1034A0006B017C01CC52DF4F288139814A815B81DD
:1034B000C45DD040C301B2010E944C219B01AC010C
:1034C000C701B6010E94381F6B017C0120E03EEF6E
:1034D0004FEF56E40E9447210FEF1FE718168CF0BC
:1034E00020E03EEF4FEF56ECC701B6010E94A41F4B
:1034F00001E010E887FD05C0C701B6010E94202049
:103500008B01A3019201C253DF4F688179818A81C7
:103510009B81CE5CD0400E944C216B017C01CC523F
:10352000DF4F288139814A815B81C45DD040C5016C
:10353000B4010E944C219B01AC01C701B6010E945D
:10354000371F6B017C0120E03EEF4FEF56E40E94F5
:10355000472118160CF4A1C120E03EEF4FEF56ECC6
:10356000C701B6010E94A41F87FD9CC1C701B60117
:103570000E9420207B013CE6C32E33E0D32E4FEF88
:10358000842E42E0942E59E7652E53E0752EB12C1F
:10359000A12CD3018D913D010E94900221E0892B45
:1035A00009F020E02601F6018081281729F1F401B5
:1035B00080819181A281B381C852DF4F48815981B6
:1035C0006A817B81C85DD040481B590B6A0B7B0B1D
:1035D000DB01CA010897A105B10570F0D6012C9353
:1035E000C852DF4F288139814A815B81C85DD04054
:1035F0002083318342835383BFEFCB1ADB0AF2016E
:103600006081C5010E946908FFEFAF1ABF0A24E07C
:10361000820E911C3DE0A316B10409F0BACFC09010
:10362000F20341E0C412F6C1C052DF4F8880C05E91
:10363000D040882061F080915203CC24C394D12CD7
:10364000882339F0C653DF4F1882CA5CD040D12C92
:10365000C12CB090FE02BB2079F10E946E03409015
:10366000FA025090FB026090FC027090FD02641917
:10367000750986099709603971408105910508F03F
:10368000C1C132E1B31609F4C0C13B1508F40FC142
:1036900041E190E080E021E030E8B41609F412C185
:1036A000AB2DA150BB0B21E030E002C0220F331F35
:1036B000AA95E2F7C22AD32AC701980103C1C453CD
:1036C000DF4F88809980CC5CD040C253DF4F998215
:1036D0008882CE5CD040C453DF4F5881CC5CD04050
:1036E000C353DF4F4881CD5CD040C252DF4F998237
:1036F0008882CE5DD040C853DF4FA880B980C85CB7
:10370000D040CC52DF4FB982A882C45DD040C853AC
:10371000DF4FE881C85CD040C753DF4F8881C95C68
:10372000D040C452DF4FB982A882CC5DD04001E0C6
:10373000CE52DF4F0883C25DD04025CBCF51DF4F43
:1037400008811981C15ED040C452DF4F88809980C2
:10375000CC5DD0400819190910161106B4F5C853EC
:10376000DF4F68817981C85CD040CF51DF4FA8809E
:10377000B980C15ED0406A197B09072E000C880B06
:10378000990B0E9458206B017C01B801110F880B26
:10379000990B0E9458209B01AC01C701B6010E9401
:1037A000AE1F2B013C0120E030E040E85FEB0E94BF
:1037B000A41F87FD0EC020E030E0A901C301B201C3
:1037C0000E94472118160CF0C5CC412C512C320117
:1037D000C1CC412C512CB0E86B2EBFEB7B2EBACC68
:1037E000CD51DF4F08811981C35ED040C252DF4FF7
:1037F000A880B980CE5DD0400A191B0910161106A9
:10380000B4F5C453DF4F68817981CC5CD040CD5191
:10381000DF4FE880F980C35ED0406E197F09072E24
:10382000000C880B990B0E9458206B017C01B80199
:10383000110F880B990B0E9458209B01AC01C70106
:10384000B6010E94AE1F6B017C0120E030E040E831
:103850005FEB0E94A41F87FD0EC020E030E0A901AD
:10386000C701B6010E94472118160CF0C5CCC12C27
:10387000D12C7601C1CCC12CD12CF0E8EF2EFFEB7E
:10388000FF2EBACC812C912C5401240135011BCD83
:1038900070E060E0F12CE12C2BCDEE24EA947FE780
:1038A000F72E69CEEE24E39460E8F62E64CE53E161
:1038B000B51609F4A4C064E181E090E8B612F0CE38
:1038C00030E020E041E08115B0E49B070CF440E0DB
:1038D0004093F50241E08130E0EC9E070CF040E0BF
:1038E0004093F60241E02130F0EC3F070CF040E05D
:1038F0004093F70241E0211550E435070CF440E015
:103900004093F802C653DF4F8880CA5CD040809253
:10391000F902D10111963C932E93919581959109CD
:1039200013969C938E9312971596DC92CE921497D1
:1039300046E050E065E171E0C1010E94DC22892B84
:1039400081F086E0F101A5E1B1E001900D928A9548
:10395000E1F70E94A60626E030E0A10163E00E94A4
:10396000D005CE52DF4F8881C25DD0400E946502F3
:10397000CF50DF4FA880C15FD040AA20B1F084E4CF
:10398000A82E83E0B82ED12CC12CD101CD92DC928F
:10399000F50161915F01C1010E94120AFFEFCF1A88
:1039A000DF0A2EE0C216D10481F7C853DF4F8880AA
:1039B0009980C85CD04090923B0380923A03C453F4
:1039C000DF4FA880B980CC5CD040B0923903A09280
:1039D00038031093370300933603F0923503E092D7
:1039E0003403809152038093330380E090E0892B6D
:1039F00011F40C9450110E9400000C9450118FEFA0
:103A00009FE75ECF1092FE0257CE90E080E02FEF4E
:103A10003FE758CFB2E0CB1252C180915203C0525F
:103A2000DF4F8880C05ED040882009F420C1882301
:103A300009F41FC1C653DF4F1882CA5CD040D12C95
:103A4000B12CA12C912CC653DF4F8880CA5CD0408A
:103A50008092F9020E946E034090E4025090E502C9
:103A60006090E6027090E7029B01AC0124193509D1
:103A70004609570929013A0138E043165104610407
:103A8000710408F46ECF6093E4027093E5028093B2
:103A9000E6029093E7022091DB02882009F4EEC051
:103AA00021110BC06093D7027093D8028093D90282
:103AB0009093DA0221E02093D602C653DF4F88802C
:103AC000CA5CD0408092DB02882009F12091D602A6
:103AD0002223C9F04090D7025090D8026090D902BA
:103AE0007090DA029B01AC01241935094609570987
:103AF00029013A0134EF431631E0530661047104A1
:103B000010F01092D6022091D6022223A1F040900C
:103B1000D2025090D3026090D4027090D502461A1F
:103B2000570A680A790ACC24C3941414150416049D
:103B300017040CF0C12C8A2D992D0E941B0820918E
:103B4000E0023091E1024091E2025091E3020E94D2
:103B5000381F2B013C018D2D9B2D0E941B089B01C2
:103B6000AC016091DC027091DD028091DE029091E7
:103B7000DF020E94371F4B015C01C301B2010E94AA
:103B8000202061384FEF74070CF492C06038710543
:103B900014F06FE770E0C653DF4F6883CA5CD04013
:103BA000C501B4010E94202091E8D92E6138AFEF01
:103BB0007A0734F06038710514F06FE770E0D62EA4
:103BC000C653DF4FB881CA5CD0406B2FBB0F770B59
:103BD000880B990B0E9458209B01AC01C301B201D4
:103BE0000E94371F6093E0027093E1028093E2022B
:103BF0009093E3026D2D0D2C000C770B880B990B25
:103C00000E9458209B01AC01C501B4010E94371FDE
:103C10006093DC027093DD028093DE029093DF02FA
:103C2000C653DF4F8880CA5CD040811007C0D110D6
:103C300005C0809114018C1509F493CEC092140133
:103C4000D10113961C921E921297CC92C653DF4F4D
:103C50008880CA5CD04011968C9211971296DC92A3
:103C60000E94A60624E030E0A10164E078CE811134
:103C7000E6CEDE2CBF2CA02E912EE5CE222309F419
:103C80001CCF2091D602222309F417CF2B013C012F
:103C90004CE3440E511C611C711C4092D2025092A4
:103CA000D3026092D4027092D5021092D60205CF50
:103CB00051E8C653DF4F5883CA5CD04071CFB8017A
:103CC00080E190E00E948A0866277727601B710BCD
:103CD0008FE090E00E948A08B7018DE090E00E949A
:103CE0008A08662777276E197F098EE090E00E9488
:103CF0008A08C052DF4F9880C05ED040992049F0BA
:103D00009091520381E09827C653DF4F9883CA5C95
:103D1000D040C653DF4F6881CA5CD04081E190E05B
:103D20000E9469081ECEFC0188279927E8942191FA
:103D30002032E9F3293010F02E30C8F32B3241F055
:103D40002D3239F4689404C00E94191F820F911D0E
:103D5000219120532A30C0F31EF4909581959F4FF6
:103D600008951F93FC0199278827BC01E8941191BD
:103D70001032E9F3193010F01E30C8F31B3251F045
:103D80001D3249F4689406C00E94041F610F711D22
:103D9000811D911D119110531A30B0F33EF490958E
:103DA0008095709561957F4F8F4F9F4F1F9108951C
:103DB00043EF53E00E94DD1E0895FA01A191B08106
:103DC000009719F41097E1F0CD01DC01CD010D90C1
:103DD000002011F4C00113C0FB012191222319F02E
:103DE0002015D9F7F3CFFB012191201519F41E926C
:103DF000119606C02223C1F70D900020A1F7D00133
:103E0000FA01A193B0830895592F482F372F262FF9
:103E1000660F771F881F991F660F771F881F991FCE
:103E2000620F731F841F951F660F771F881F991FCE
:103E300008957AE0979F902D879F802D910D1124F2
:103E40000895F999FECF92BD81BDF89A992780B562
:103E50000895262FF999FECF1FBA92BD81BD20BDCE
:103E60000FB6F894FA9AF99A0FBE01960895505831
:103E7000BB27AA270E944F1F0C94F9200E94C02044
:103E800038F00E94C72020F039F49F3F19F426F43F
:103E90000C94BD200EF4E095E7FB0C94B720E92FBD
:103EA0000E941E2158F3BA1762077307840795070B
:103EB00020F079F4A6F50C9440210EF4E0950B2E39
:103EC000BA2FA02D0B01B90190010C01CA01A0016C
:103ED0001124FF27591B99F0593F50F4503E68F1C7
:103EE0001A16F040A22F232F342F4427585FF3CF08
:103EF000469537952795A795F0405395C9F77EF4D9
:103F00001F16BA0B620B730B840BBAF09150A1F021
:103F1000FF0FBB1F661F771F881FC2F70EC0BA0FA7
:103F2000621F731F841F48F4879577956795B7952F
:103F3000F7959E3F08F0B0CF9395880F08F099272A
:103F4000EE0F9795879508950E94932008F481E0DD
:103F500008950E94D020E3950C940A210E94C21F6C
:103F60000C94F9200E94C72058F00E94C02040F015
:103F700029F45F3F29F00C94B72051110C94412192
:103F80000C94BD200E941E2168F39923B1F35523A0
:103F900091F3951B550BBB27AA276217730784075C
:103FA00038F09F5F5F4F220F331F441FAA1FA9F3F2
:103FB00035D00E2E3AF0E0E832D091505040E695E0
:103FC000001CCAF72BD0FE2F29D0660F771F881F41
:103FD000BB1F261737074807AB07B0E809F0BB0B34
:103FE000802DBF01FF2793585F4F3AF09E3F510548
:103FF00078F00C94B7200C9441215F3FE4F3983E95
:10400000D4F3869577956795B795F7959F5FC9F730
:10401000880F911D9695879597F90895E1E0660FB1
:10402000771F881FBB1F621773078407BA0720F02A
:10403000621B730B840BBA0BEE1F88F7E095089593
:104040000E9427206894B1110C94412108950E9488
:10405000262188F09F5798F0B92F9927B751B0F0D3
:10406000E1F0660F771F881F991F1AF0BA95C9F7FC
:1040700014C0B13091F00E944021B1E008950C9439
:104080004021672F782F8827B85F39F0B93FCCF3EC
:10409000869577956795B395D9F73EF49095809579
:1040A000709561957F4F8F4F9F4F0895E89409C099
:1040B00097FB3EF490958095709561957F4F8F4F5B
:1040C0009F4F9923A9F0F92F96E9BB279395F69571
:1040D000879577956795B795F111F8CFFAF4BB0FEF
:1040E00011F460FF1BC06F5F7F4F8F4F9F4F16C053
:1040F000882311F096E911C0772321F09EE8872FDD
:10410000762F05C0662371F096E8862F70E060E098
:104110002AF09A95660F771F881FDAF7880F969511
:10412000879597F90895990F0008550FAA0BE0E8B5
:10413000FEEF16161706E807F907C0F01216130669
:10414000E407F50798F0621B730B840B950B39F4A9
:104150000A2661F0232B242B252B21F408950A260F
:1041600009F4A140A6958FEF811D811D089597F94F
:104170009F6780E870E060E008959FEF80EC08950D
:1041800000240A9416161706180609060895002436
:104190000A94121613061406050608950C94BD2001
:1041A0000E942621D8F3E894E0E0BB279F57F0F067
:1041B0002AED3FE049EC06C0EE0FBB0F661F771FEC
:1041C000881F28F0B23A62077307840728F0B25AB2
:1041D000620B730B840BE3959A9572F7803830F479
:1041E0009A95BB0F661F771F881FD2F790480C94D3
:1041F0000922092E0394000C11F4882352F0BB0FFE
:1042000040F4BF2B11F460FF04C06F5F7F4F8F4FEE
:104210009F4F0895EF93E0FF07C0A2EA2AED3FE029
:1042200049EC5FEB0E944F1F0E94F9200F9003940E
:1042300001FC9058ECEAF0E00C941C2257FD9058D9
:10424000440F551F59F05F3F71F04795880F97FB5A
:10425000991F61F09F3F79F0879508951216130614
:104260001406551FF2CF4695F1DF08C01616170643
:104270001806991FF1CF8695710561050894089578
:10428000E894BB2766277727CB0197F908950E940A
:10429000932008F48FEF08950E945F210C94F92079
:1042A0000E94C02038F00E94C72020F0952311F012
:1042B0000C94B7200C94BD2011240C9441210E9431
:1042C0001E2170F3959FC1F3950F50E0551F629F1B
:1042D000F001729FBB27F00DB11D639FAA27F00D5F
:1042E000B11DAA1F649F6627B00DA11D661F829F86
:1042F0002227B00DA11D621F739FB00DA11D621F6B
:10430000839FA00D611D221F749F3327A00D611D87
:10431000231F849F600D211D822F762F6A2F112469
:104320009F5750409AF0F1F088234AF0EE0FFF1F9C
:10433000BB1F661F771F881F91505040A9F79E3FF3
:10434000510580F00C94B7200C9441215F3FE4F3B9
:10435000983ED4F3869577956795B795F795E79549
:104360009F5FC1F7FE2B880F911D9695879597F952
:1043700008959F930E94D0200F9007FCEE5F0C944D
:104380000A2119F416F40C94BD200C9407220E9403
:104390002621B8F39923C9F3B6F39F57550B87FF2E
:1043A0000E9415220024A0E640EA9001805856950C
:1043B000979528F4805C660F771F881F20F02617DA
:1043C0003707480730F4621B730B840B202931290F
:1043D0004A2BA69517940794202531254A2758F78C
:1043E000660F771F881F20F026173707480730F41D
:1043F000620B730B840B200D311D411DA09581F7BD
:10440000B901842F9158880F9695879508959F3FFD
:1044100031F0915020F4879577956795B795880F7F
:10442000911D9695879597F9089591505040660F84
:10443000771F881FD2F708959F938F937F936F9371
:10444000FF93EF939B01AC010E944C21EF91FF91F0
:104450000E9430222F913F914F915F910C944C21FB
:10446000DF93CF931F930F93FF92EF92DF927B0125
:104470008C01689406C0DA2EEF010E945F21FE01D4
:10448000E894A5912591359145915591A6F3EF01B9
:104490000E944F1FFE019701A801DA9469F7DF908F
:1044A000EF90FF900F911F91CF91DF91089597FBAF
:1044B000072E16F4009407D077FD09D00E94C82279
:1044C00007FC05D03EF4909581959F4F0895709517
:1044D00061957F4F0895A1E21A2EAA1BBB1BFD0117
:1044E0000DC0AA1FBB1FEE1FFF1FA217B307E407D3
:1044F000F50720F0A21BB30BE40BF50B661F771F2B
:10450000881F991F1A9469F760957095809590950A
:104510009B01AC01BD01CF010895052E97FB1EF450
:1045200000940E94A42257FD07D00E946B2207FC32
:1045300003D04EF40C94A4225095409530952195CB
:104540003F4F4F4F5F4F08959095809570956195BF
:104550007F4F8F4F9F4F0895EE0FFF1F0590F491EF
:10456000E02D0994A29FB001B39FC001A39F700DDD
:10457000811D1124911DB29F700D811D1124911D6B
:1045800008950E94B222B7FF0895821B930B0895ED
:10459000AA1BBB1B51E107C0AA1FBB1FA617B70769
:1045A00010F0A61BB70B881F991F5A95A9F7809585
:1045B0009095BC01CD010895FB01DC0104C08D91F3
:1045C0000190801921F441505040C8F7881B990B85
:1045D0000895FB01DC018D91019080190110D9F340
:1045E000990B0895FB01DC014150504030F08D9152
:1045F0000190801919F40020B9F7881B990B0895D0
:04460000F894FFCF5C
:1046040000C18081000000FFFFFFFF00E100000007
:1046140000000008FF00000000FFFF0000803F01D1
:104624000000FF01FF0300000000AD055B0620064B
:1046340005060001030405060708090A0E0F1014F5
:1046440015312E32004C5021201F1E1508142B2C1E
:104654000A09E0061A160407E132000103040506FC
:104664000708090A14150F000000001405FE044C85
:10467400054A05930551056F05000000000108185F
:1046840007180817080D0A004745540053455420DD
:104694000050494E532000524553455450494E53FF
:1046A40000535449434B00535449434B2030005367
:1046B4005449434B20310052455345544B455953BB
:1046C4000053544154450043414C0042544E200091
:1046D400564552004445560053504400535044201C
:1046E400004449414700524F5400524F5420004D5A
:1046F4004F4445004D4F44452030004D4F44452024
:0A47040031004D4F44452032000003
:00000001FF
