:100000000C94F2010C9426020C9426020C94260205
:100010000C9426020C9426020C9426020C942602C0
:100020000C9426020C9426020C94860D0C94030E5C
:100030000C9426020C9426020C9426020C942602A0
:100040000C9426020C9426020C9426020C94260290
:100050000C9426020C9426020C9426020C943C0D5F
:100060000C9426020C9426020C9426020C94260270
:100070000C9426020C9426020C9426020C94260260
:100080000C9426020C9426020C9426020C94260250
:100090000C9426020C9426020C9426020C94260240
:1000A0000C9426020C9426020C94260205A84CCD32
:1000B000B2D44EB93836A9020C50B9918688083CA2
:1000C000A6AAAA2ABE000000803F05010902A101DC
:1000D0000901A1008504050919012903150025015D
:1000E00075019503810275059501810305010930AC
:1000F000093109381581257F750895038106C0C02F
:1001000005010905A1018503093009311601802681
:10011000FF7F75109502810205091901291015004C
:100120002501750195108102C04F4B0043464700E1
:1001300050494E5300080B0002020200000904005F
:100140000001020200000524001001052401010144
:10015000042402060524060001070581031000405F
:1001600009040100020A0000000705020240000025
:10017000070583024000000403090412010002EF96
:10018000020140091203000001010203014A532D3C
:100190004B6579706164004A532D4B6579706164D9
:1001A00000444941472000535441544520004F4BDF
:1001B000004552520045525200455252004F4B00EA
:1001C0004552520045525200455252004F4B004595
:1001D0005252002030002031004444415420004C51
:1001E000444154200045525200455252004F4B00AA
:1001F000455252004F4B0045525200455252004565
:10020000525200455252004552520045525200503F
:1002100044415420004552520050454E4400505233
:100220004F462000455252004F4B004D4F44452051
:10023000004F4B0045525200524F5420004F4B008C
:10024000455252005350442000444556204A532DF5
:100250004B45595041440056455220004F4B0045F4
:100260005252004F4B004F4B00535449434B200018
:100270004F4B0045525200494E5620004F4B005301
:100280004D4F444520004F4B0045525200474553C7
:1002900054005055534520004F4B00455252000723
:1002A0000605040100080A0B0C0D090000000024DB
:1002B0000027002A002D0030000000000023002647
:1002C0000029002C002F0000000000250028002B32
:1002D000002E003100040404040403040502020299
:1002E00002040302020202060606060606040402CF
:1002F00002020404040802011040804010204080E3
:10030000408008020401804020100201108010206B
:100310004040200000000200090F0000030401001B
:100320000C000000000000000000000000000000C1
:10033000000000000000000000002A2B2800000040
:1003400000000000000000000000000000000000AD
:1003500000002C9EB4A0A1A2A434A6A7A5AE362D61
:100360003738271E1F20212223242526B333B62EFB
:10037000B7B89F8485868788898A8B8C8D8E8F906D
:100380009192939495969798999A9B9C9D2F313032
:10039000A3AD350405060708090A0B0C0D0E0F1056
:1003A0001112131415161718191A1B1C1DAFB1B012
:1003B000B50005010906A1018502050719E029E735
:1003C00015002501750195088102950175088103C5
:1003D0009506750815002573050719002973810016
:1003E000C0009C1011241FBECFEFDAE0DEBFCDBFEE
:1003F00014BE0FB6F894A895809160008861809330
:100400006000109260000FBE25E0A0E6B2E001C0DF
:100410001D92A731B207E1F712E0A0E0B1E0E8E8F1
:10042000F5E502C005900D92A036B107D9F711E0AD
:10043000C2EFD1E004C02197FE010E945A2AC13FB9
:10044000D107C9F70E94E9100C94C22A0C9400004D
:1004500083E08093E9008091F200882319F08AE319
:100460008093E8000895FC0180918D04882311F1A8
:100470003FB7F89482E08093E9002091F200822F48
:1004800090E01816190614F481E090E0882339F002
:10049000289844E640938C044091F1004083222345
:1004A00039F02091F200211103C02BE62093E800DF
:1004B0003FBF08958FEF9FEF089581508F3008F070
:1004C00047C0E82FF0E0E959FD4F0C945A2A840206
:1004D000880276027C028002A802A802A8028B028F
:1004E0009102950299029F02A802A30280918000C6
:1004F0008F77809380000895809180008F7DF9CF61
:1005000080918000877FF5CF84B58F7784BD089573
:1005100084B58F7DFBCF809190008F778093900082
:100520000895809190008F7DF9CF80919000877F12
:10053000F5CF8091C0008F778093C000089580919F
:10054000C0008F7DF9CF8091C200877F8093C20069
:1005500008951F93CF93DF93E5E1F3E09491E6EFE5
:10056000F2E0D491E7EDF2E0C491CC23B9F0182F7A
:10057000992319F0892F0E945D02EC2FF0E0EE0F15
:10058000FF1FE953FD4FA591B4918FB7F894EC91FB
:10059000111108C0D095DE23DC938FBFDF91CF917E
:1005A0001F910895DE2BF8CFCF93DF93282F30E0F3
:1005B000F901ED5EFC4F8491F901EC50FD4FD491AF
:1005C000F901EB52FD4FC491CC23A1F081110E949F
:1005D0005D02EC2FF0E0EE0FFF1FE754FD4FA591F9
:1005E000B491EC91ED2381E090E009F480E0DF919B
:1005F000CF91089580E090E0FACF80E10E94D4028C
:10060000892B19F08EE00C94D40290E080E00895DC
:10061000CF93DF9390E0FC01EC50FD4F24918B527F
:100620009D4FFC0184918823D1F090E0880F991FA1
:10063000FC01E555FD4FA591B491FC01E953FD4F37
:10064000C591D491623071F49FB7F8943C91822F98
:10065000809583238C93E8812E2B28839FBFDF9185
:10066000CF9108958FB7F894EC912E2B2C938FBFD8
:10067000F6CF8251E82FF0E0E156FD4FE4919091E2
:100680007B008E2F880F880F80729F7D892B80932F
:100690007B00E770E064E0937C0080917A008064E6
:1006A00080937A0080917A0086FDFCCF809178005B
:1006B0009091790008953FB7F894809188049091C3
:1006C0008904A0918A04B0918B0426B5A89B05C02B
:1006D0002F3F19F00196A11DB11D3FBFBA2FA92FC1
:1006E000982F8827BC01CD01620F711D811D911DBE
:1006F00042E0660F771F881F991F4A95D1F708952A
:100700008F929F92AF92BF92CF92DF92EF92FF9221
:100710004B015C010E945B036B017C010E945B0347
:100720006C197D098E099F09683E7340810591050A
:10073000A8F321E0821A9108A108B10888EEC80E3A
:1007400083E0D81EE11CF11C81149104A104B104C2
:1007500029F7FF90EF90DF90CF90BF90AF909F90E0
:100760008F9008952FB7F894609184047091850458
:1007700080918604909187042FBF089540910803CB
:100780005091090320910603309107034217530744
:10079000B4F49091E8009570E1F39091E80092FD37
:1007A00019C08093F100809108039091090301968C
:1007B0008F739927892B19F48EEF8093E80080912D
:1007C000080390910903019690930903809308030D
:1007D00081E0089580E00895EF92FF920F931F93B8
:1007E000CF93DF93F82E192FE62E042F81E0860F8A
:1007F000880F0E94BE0383E00E94BE03CF2DD12F3D
:10080000EC0EFD2EF11CCE15DF05B9F007FF13C06D
:10081000FE0184910E94BE03182F80E00E94BE0357
:10082000812321968111EFCFDF91CF911F910F91FD
:10083000FF90EF9008958881EDCF81E0F5CFDF92B2
:10084000EF92FF920F931F93CF93DF93D82E8A01DD
:10085000EB017B01E40EF51ECE15DF0559F0D7FE46
:1008600012C0FE0184910E94BE0321968111F4CF33
:100870000FEF1FEFC801DF91CF911F910F91FF90F4
:10088000EF90DF9008958881EECF2FB7F8948770AE
:100890008093E9009091E800892F807295FF04C051
:1008A0009091F20080E4891B2FBF08957F928F9270
:1008B0009F92AF92BF92CF92DF92EF92FF920F93EF
:1008C0001F93CF93DF93C82E8B017A0180918D0403
:1008D000811110C08FEF9FEFDF91CF911F910F918A
:1008E000FF90EF90DF90CF90BF90AF909F908F9050
:1008F0007F90089580910C0380FF05C08091E000F7
:1009000082608093E000CE2DDF2DD12C8AEFB82EAF
:100910008C2D8770982E8C2D8072882E8C2D807453
:10092000782E9AE3A92E209719F4DD2009F452C0FD
:100930008C2D0E94450481110AC0BA94BB2051F24B
:1009400061E070E080E090E00E948003ECCF8C17C3
:100950001D0611F00CF08C2F9FB7F8949092E900CF
:100960002091E80025FD02C09FBFDDCF282F30E099
:10097000C21BD30B882029F08150A0F01092F10007
:10098000FBCFF801C7FC0AC0815050F04191409361
:10099000F100FACF44914093F10031968150D0F7A5
:1009A000020F131FDD2021F0A092E800D12CDCCF34
:1009B0008091E80085FD07C0A092E800DD24D39473
:1009C000209791F2F3CF209779F6772069F2A092E1
:1009D000E800CACF5D9884E680930B03C7017CCF03
:1009E000615030F02091F100FC0120830196F8CF96
:1009F000289884E680938C0408958091FE028111EA
:100A00000DC082E08093FA0284E08093FB02109292
:100A1000FD021092FC0281E08093FE028AEF92E0D8
:100A200008950F931F93CF93DF931F92CDB7DEB737
:100A300082E0898342E450E065E371E080E80E944F
:100A40001F040E94FD04DC0112960D911C910115FA
:100A5000110589F0D801ED91FC910280F381E02D20
:100A6000BE016F5F7F4FC801099597FD04C0F80173
:100A700000851185ECCF89810F90DF91CF911F9177
:100A80000F910895CF93DF93EC0180911201882399
:100A900031F083E00E9456041816190634F081E004
:100AA00090E09B838A8380E090E0DF91CF9108956E
:100AB000CF93DF931F92CDB7DEB76983DC01ED9151
:100AC000FC910280F381E02D41E050E0BE016F5FB8
:100AD0007F4F09950F90DF91CF910895682F88EA95
:100AE00094E00C9458050F931F93CF93DF938C01E0
:100AF000D0E0C0E0F801EC0FFD1F6491662341F0E7
:100B000088EA94E00E945805892B11F02196F2CFD3
:100B1000CE01DF91CF911F910F9108950C9428027F
:100B200083E00E94450490E00895CF93DF931F92E5
:100B3000CDB7DEB7FC018485958597FD08C02FEF02
:100B40003FEF358724870F90DF91CF910895CE0135
:100B500001960E943302019719F4898190E0F3CF46
:100B60008FEF9FEFF0CF0F931F93CF93DF931F92E1
:100B7000CDB7DEB78C01FC018485958597FF0BC04E
:100B8000CE0101960E943302019771F4898190E0B1
:100B9000F80195878487F801848595850F90DF910A
:100BA000CF911F910F9108958FEF9FEFF1CFFC012F
:100BB0008485958597FD0BC09FB7F89482E080935C
:100BC000E9008091F2009FBF90E0019608959FB7E1
:100BD000F89482E08093E9008091F2009FBF90E05A
:100BE0000895DC01FB0112962C9112978481958166
:100BF0002817190641F491818081813A31F49D7F53
:100C000081E0913009F080E008958132E1F79B3076
:100C100029F482811F968C9381E008959A3099F788
:100C2000828150968C93F8CFAF92BF92CF92DF9291
:100C3000EF92FF920F931F93CF93DF931F92CDB745
:100C4000DEB77C0169836A01590141E050E0BE01D1
:100C50006F5F7F4FFC0183810E9456048C0197FDDA
:100C60000BC0F7018381A501B60180640E94560480
:100C7000080F191F97FD8C01C8010F90DF91CF91CC
:100C80001F910F91FF90EF90DF90CF90BF90AF90AA
:100C90000895DC01FB0188E4808389E4818384E496
:100CA00082831D969C911D979F709F5B93831D96D9
:100CB0008D919C9124E0969587952A95E1F78F7008
:100CC0008F5B848385E00895EF92FF920F931F93CB
:100CD000CF93DF93FB012081213871F523812232EC
:100CE00059F5DC0112964C91248135814217130687
:100CF00019F5EC010B851C85F12CE12C0115110572
:100D000089F0F801448155816281738180E80E94F5
:100D10001F048F3F980749F0E80EF91ED8010D9186
:100D20001C91ECCF81E08F87C701DF91CF911F919C
:100D30000F91FF90EF90089590E080E0F6CFCF9371
:100D4000DF93CDB7DEB769970FB6F894DEBF0FBE5D
:100D5000CDBFFC01DB018C918F5F8C939E012D5FD9
:100D60003F4F8DE0D9011D928A95E9F729E029834B
:100D700084E08A8391E09D8383E08E832A8721E249
:100D80002B879C879D879F8722E2288B27E02B8BD0
:100D900025E02C8B8E8B20E430E0388F2F8B998FC1
:100DA00082818B8395858685998B8A8B83818068E8
:100DB0008D8B49E150E0BE016F5F7F4F80E00E9464
:100DC0001F0469960FB6F894DEBF0FBECDBFDF914A
:100DD000CF910895CF93DF938091F202811167C084
:100DE00081E08093E5028093E6022BEE32E03093BF
:100DF000E8022093E7021092EA021092E9022AE246
:100E000031E03093E2022093E1021092ED02109261
:100E1000EC021092EF021092EE028093F0028093A7
:100E2000F10281EC8093EB020E94FD04FC018181C0
:100E30009091E502482F490F5527551F483051051D
:100E40009CF5A281B381109709F521EE32E033833E
:100E5000228320812093E3028093E4028091E602C2
:100E6000820F80832091E702A22FB091E8028A2F9F
:100E7000821B8917C8F481813D91C82FD0E0C050F2
:100E8000DF4F38838F5F8183F2CFD90118962D9180
:100E90003C91199721153105C1F721EE32E01996E1
:100EA0003C932E931897D5CF81E08093F20281EE88
:100EB00092E0DF91CF910895CF92DF92EF92FF926F
:100EC0000F931F93CF93DF936C01EB017B01E40E33
:100ED000F51E10E000E0CE15DF0581F069916D3060
:100EE000D1F3D601ED91FC910190F081E02DC60186
:100EF0000995892B19F00F5F1F4FEDCFC801DF91C6
:100F0000CF911F910F91FF90EF90DF90CF900895B8
:100F1000CF93DF93EC016838E0F06858FE0186E07B
:100F2000662321F09681961301C016828150319676
:100F30008111F6CF0E94EA06AE014C5F5F4F28E0B8
:100F400030E062E00E94140681E090E0DF91CF91F2
:100F50000895862F90E067FF0FC0FC01E058F1096B
:100F600081E090E001C0880FEA95EAF780959C81C6
:100F700089238C8360E0D2CFEC85FD85E80FF91FD3
:100F8000649190E080E0662309F3862F807C803CAA
:100F900049F48C818F7B8C836F73623309F0BECFF1
:100FA00064E6BCCF67FFF9CF8C818D7F8C836F7730
:100FB000F4CFCF93DF93EC01683858F168588E81F5
:100FC0008617D1F08F818617B9F088858617A1F032
:100FD0008985861789F08A85861771F08B85861733
:100FE00059F0FE01369690E080E02191211147C032
:100FF0008C0F9D1FFC0166830E94EA06AE014C5FC8
:101000005F4F28E030E062E00E94140681E090E04B
:101010001FC0862F90E067FF0EC0FC01E058F10969
:1010200021E030E001C0220FEA95EAF78C81822BA3
:101030008C8360E0C4CFEC85FD85E80FF91F6491D7
:10104000611109C081E090E09B838A8390E080E099
:10105000DF91CF910895862F807C803C49F48C816C
:1010600080648C836F73623309F0A9CF64E6A7CFE5
:1010700067FFF9CF8C8182608C836F77F4CF019604
:101080008630910509F0B1CFDDCFEF92FF921F932B
:10109000CF93DF93EC01162F0E94D9077C01612FBB
:1010A000CE010E948807C7019927DF91CF911F9138
:1010B000FF90EF900895089590E080E008958F925A
:1010C0009F92AF92BF92CF92DF92EF92FF92CF9317
:1010D000DF939C012553334F27393941D0F1BC01AF
:1010E00097FF04C066277727681B790BEC016C5CBF
:1010F0007C40072E000C880B990B0E94062820E0EC
:1011000036E646EE56E40E945C276B017C01609156
:10111000130170E090E080E00E9406284B015C0122
:10112000A7019601C701B6010E94FA289B01AC01F4
:10113000C501B4010E94FA28D7FD9058DF91CF91E4
:10114000FF90EF90DF90CF90BF90AF909F908F90E7
:10115000089560E070E0CB01F1CF60911F04662339
:1011600021F086E095E00E94880710921F04089500
:101170008F929F92AF92BF92CF92DF92EF92FF92A7
:101180000F931F93CF93DF93FC01EC5FFB4F208104
:101190002617C9F0EC01608380919302882309F43B
:1011A000E2C0CC30D10509F0CEC06623C9F00E9460
:1011B000B20360938E0270938F028093900290939B
:1011C000910210929202DF91CF911F910F91FF90A7
:1011D000EF90DF90CF90BF90AF909F908F90089549
:1011E000809192028111EFCF0E94B20300918E0292
:1011F00010918F022091900230919102601B710B2F
:10120000820B930B6139714081059105E0F6809165
:101210001F048111D8CF60911D0380E2860F8830B2
:1012200090F4605660931F0486E095E00E94D90711
:101230000E94B20360931B0470931C0480931D04EE
:1012400090931E04C0CF8CEF860F843708F0BBCF7D
:101250006857E8CF80911004882309F445C0FE0147
:10126000EC56FD4F8081882321F091E0909392020B
:10127000182F80E2810F60EA883030F08CEF810F08
:10128000843708F06CC068E8610FC458DD4F68838C
:1012900086E095E0DF91CF911F910F91FF90EF9045
:1012A000DF90CF90BF90AF909F908F900C94D90714
:1012B000611571058105910521F461E070E080E020
:1012C00090E0F901E056FD4F608371838283938340
:1012D000D0CFFE01E15FFC4F1281CC30D1050CF480
:1012E000B9CFCD30D1052CF6FE01EC52FD4F008177
:1012F000002309F4BECF0E94B2039E01220F331FC8
:10130000220F331FF901E056FD4FC080D180E280EB
:10131000F380C114D104E104F10451F24B015C01EA
:101320008C189D08AE08BF08750164014BEFC41608
:10133000D104E104F10408F0BBCF108211821282C3
:101340001382102F96CF6111C4CFFE01E458FD4FD8
:101350006081662321F086E095E00E948807C458EA
:10136000DD4F188230CF662381F3FE01E15FFC4F31
:101370001281B7CFCF92DF92EF92FF92CF93DF939C
:10138000EC01A09123036B01770FEE08FF08FC012D
:10139000EC5FFB4F80818823E1F0AF50BB0B2FEF58
:1013A0003FE70E946F2A24E630E040E050E00E94D0
:1013B0003B2A61E02C153D054E055F050CF060E011
:1013C000CE01DF91CF91FF90EF90DF90CF900C9402
:1013D000B8082A2F30E0AFEFBFE70E94602AE3CFC2
:1013E000CF93DF9381E080939202D0E0C0E060E091
:1013F000CE010E94B8082196C231D105C1F7DF9114
:10140000CF910C94AD08FC01208131812C34304502
:1014100031F4FC019489945181E09C3408F080E01F
:101420000895DC0123E53AE42D933D9326E0E0E2C4
:10143000F1E001900D922A95E1F726E0E0E2F1E07B
:10144000DC01189601900D922A95E1F70895FC01B0
:1014500001900020E9F73197AF01481B590BBC01FF
:1014600088EA94E00C9442058F929F92AF92BF92CB
:101470000F931F93CF93DF93CDB7DEB7A1970FB62E
:10148000F894DEBF0FBECDBF19A2423008F44AE087
:101490008E010F5D1F4F842E912CB12CA12CA50124
:1014A00094010E94192AE62FB901CA01EA30F4F426
:1014B000E05DD801EE938D01232B242B252B79F7AA
:1014C00090E080E0109719F0CD010E94270AA196C4
:1014D0000FB6F894DEBF0FBECDBFDF91CF911F9145
:1014E0000F91BF90AF909F908F900895E95CE1CFEE
:1014F00089E891E00C94270ACF93DF930E9473054B
:10150000EC010E94780A8C0F9D1FDF91CF91089506
:10151000682F70E090E080E04AE00C94340ACF93AA
:10152000DF930E94880AEC010E94780A8C0F9D1FAD
:10153000DF91CF910895CF92DF92EF92FF92CF93F8
:10154000DF936C01990FEE08FF08F7FE17C08DE2DC
:101550000E946E05EC0166277727CB016C197D0987
:101560008E099F094AE00E94340A8C0F9D1FDF916B
:10157000CF91FF90EF90DF90CF9008954AE0C701A0
:10158000B601DF91CF91FF90EF90DF90CF900C9458
:10159000340AEF92FF920F931F93CF93DF937C0156
:1015A0008C01D0E0C0E0CE010E94CF26F8018193EB
:1015B0008F012196CE30D105B1F7C701DF91CF91D0
:1015C0001F910F91FF90EF900895EF92FF920F936C
:1015D0001F93CF93DF937C018C01C0E4D0E0CE0158
:1015E0000E94CF26F80181938F012196C535D10540
:1015F000B1F7C701DF91CF911F910F91FF90EF904D
:1016000008950F931F93CF93DF93CDB7DEB7659700
:101610000FB6F894DEBF0FBECDBF8C01CE01019690
:101620000E94E50ACE0101960E94030AE9E4F1E076
:10163000882311F0FE01319685E1D80101900D92C9
:101640008A95E1F7C80165960FB6F894DEBF0FBE24
:10165000CDBFDF91CF911F910F910895CF92DF926F
:10166000FF920F931F93CF93DF93CDB7DEB76597AC
:101670000FB6F894DEBF0FBECDBF80912503811158
:1016800034C085E1EFE0F3E0DE01119601900D92A8
:101690008A95E1F7F09023038CE291E00E947305B4
:1016A0008E010D5F1F4F6E0185E1C80ED11C80E2D7
:1016B0000E946E05F80181918F010E94880A0C1525
:1016C0001D05A9F780E20E946E058F2D65960FB665
:1016D000F894DEBF0FBECDBFDF91CF911F910F9168
:1016E000FF90DF90CF900C948F0ACE0101960E945C
:1016F000010BFD88D1CF0C94CF26CF92DF92EF92D1
:10170000FF920F931F93CF93DF93C0E2D0E0009737
:1017100049F001972AE1289FE001299FD00D11246B
:10172000C85DDC4F80EAE82E82E0F82E04ED12E07E
:10173000CE01845D92406C01C601800F911F0E9412
:101740007B0B8F3F09F480E0F80181938F01F70153
:1017500011921192119211927F01F2E0013E1F0746
:1017600059F704E912E0CE01875892407C01C70185
:10177000800F911F0E947B0B8F3F09F480E0F801DE
:1017800081938F01F2E0003A1F0789F7CE01499655
:101790000E947B0B91E0813009F090E090939302DE
:1017A000DF91CF911F910F91FF90EF90DF90CF903D
:1017B0000895CF92DF92EF92FF920F931F93CF93F2
:1017C000DF9301978830910518F5EB0145E5489FB7
:1017D0008001499F100D1124780180E8E80EF11C6A
:1017E0006B010B521F4FC7010E94CF26F601819358
:1017F0006F01FFEFEF1AFF0AE016F106A1F7188A52
:10180000FE01E05CFF4F108281E09881913B09F07E
:1018100080E0DF91CF911F910F91FF90EF90DF90CB
:10182000CF9008950F931F93CF93DF93CDB7DEB77B
:10183000CF57D1090FB6F894DEBF0FBECDBF8C01D4
:101840000097C1F4CE0185599F4F0E94010B0E9461
:10185000F00985E1FE01E559FF4FAFE0B3E00190EB
:101860000D928A95E1F700932503C8010E947D0B34
:1018700081E034C0BE016F5F7F4F0E94D90B882387
:1018800061F1FE01EE5BFF4FA6E5B0E0AC0FBD1FBE
:101890001296CE018C5A9F4F21912D93E817F9078C
:1018A000D9F780812CE430E568963FAF2EAF68977A
:1018B000AB968FAFAB9785E1FE01EA5AFF4FDE0191
:1018C000A559BF4F01900D928A95E1F7CE01855938
:1018D0009F4F0E94030A8111BACF80E0C158DF4FA9
:1018E0000FB6F894DEBF0FBECDBFDF91CF911F9131
:1018F0000F910895AF92BF92CF92DF92EF92FF9235
:101900000F931F93CF93DF936C018B015A016CE708
:1019100070E00E94A02AEC01009781F07C01EC1895
:10192000FD08EA14FB04B4F4A701B601C8010E9443
:10193000972A0E0D1F1DF80110822196CE01DF910E
:10194000CF911F910F91FF90EF90DF90CF90BF90BC
:10195000AF900895D0E0C0E0F1CFCF92DF92EF9248
:10196000FF9280932403682F880F770B880B990BC5
:101970000E9406282BED3FE049E450E40E94FA283B
:1019800020E030E044E353E40E945C276B017C01DB
:101990000E94572760931B0170931C0180931D01C7
:1019A00090931E01C701B6010E94672960935D04F0
:1019B00070935E0480935F0490936004FF90EF90B7
:1019C000DF90CF900895FF920F931F93CF93DF93F3
:1019D000EC01F62E08811981C8010E94CF26F81665
:1019E00021F06F2DC8010E94D726CE01DF91CF9143
:1019F0001F910F91FF900895CF93DF9300D0CDB743
:101A0000DEB79A838983CE0101960E94E30C0F9082
:101A10000F90DF91CF910895D82FC62F0E94F00923
:101A20006D2F80E690E00E94FC0CCC2331F089E21F
:101A300091E00E947C0A0E94280264E670E080E047
:101A400090E00E94800368EC70E080E090E00E94EB
:101A5000800310920108109200081092FF0A109261
:101A6000FE0A88E198E00FB6F894A895809360008C
:101A70000FBE90936000FFCF1F920F920FB60F9290
:101A800011242F933F938F939F93AF93BF93809194
:101A9000840490918504A0918604B09187043091CC
:101AA000830423E0230F2D3758F50196A11DB11DA6
:101AB000209383048093840490938504A0938604E8
:101AC000B09387048091880490918904A0918A043E
:101AD000B0918B040196A11DB11D80938804909351
:101AE0008904A0938A04B0938B04BF91AF919F9116
:101AF0008F913F912F910F900FBE0F901F901895CF
:101B000026E8230F0296A11DB11DD2CF1F920F927E
:101B10000FB60F9211242F933F934F935F936F93C0
:101B20007F938F939F93AF93BF93CF93EF93FF9345
:101B3000C091E1008091E100837F8093E100C3FFC9
:101B40000FC01092E90081E08093EB001092EC004E
:101B500082E38093ED0010928D0488E08093F00082
:101B6000C2FF1AC00E94280280910B03882341F013
:101B700080910B03815080930B03811101C05D9A0A
:101B800080918C04882341F080918C048150809353
:101B90008C04811101C0289AC4FF23C08091E20007
:101BA0008E7E81608093E2008091E1008F7E809341
:101BB000E10080910C038E7E806180930C03FF9185
:101BC000EF91CF91BF91AF919F918F917F916F9145
:101BD0005F914F913F912F910F900FBE0F901F90EB
:101BE0001895C0FFECCF8091E2008E7E80618093DB
:101BF000E2008091E1008E7E8093E10080910C03F1
:101C00008E7E8160DACF1F920F920FB60F92112451
:101C1000CF92DF92EF92FF920F931F932F933F93F8
:101C20004F935F936F937F938F939F93AF93BF93E4
:101C3000EF93FF93CF93DF93CDB7DEB76C97DEBF03
:101C4000CDBF1092E9008091E80083FF25C068E0D5
:101C5000CE0145960E94F00482EF8093E8008D89C2
:101C600087FF39C09091E80090FFFCCF982F9076C5
:101C700009F034C19E894F89588D2F89F88C9111B4
:101C800031C0803861F580910D038093F10010928E
:101C9000F1008EEF8093E8006C960FB6F894DEBFEB
:101CA0000FBECDBFDF91CF91FF91EF91BF91AF916B
:101CB0009F918F917F916F915F914F913F912F9164
:101CC0001F910F91FF90EF90DF90CF900F900FBE7C
:101CD0000F901F9018959EEF9093E800C7CF109239
:101CE000F100D5CF913059F48111D3CF4130510556
:101CF00081F680910D038D7F80930D03CACF9330C1
:101D000049F48111C6CF4130510519F680910D0378
:101D10008260F2CF953041F48091E80080FFFCCFE3
:101D200020682093E300B5CF963009F0A9C00B8D51
:101D30001C8D22E01092E900109209031092080312
:101D4000F2122EC010920703109206030E94110592
:101D50001F8299E09983FA8291E09E8390EA9887A6
:101D60009AEF99872091080330910903275F3F4F2D
:101D70003C832B838D831092E9001092090310920B
:101D80000803109307030093060349E050E0BE01E7
:101D90006F5F7F4F80E00E941F040E94110579CF82
:101DA00010930703009306030E94FD04DC011296C2
:101DB0000D911C910115110509F451C1D801ED9146
:101DC000FC910480F581E02DBE016B5E7F4FC80160
:101DD0000995009709F03EC1F80100851185EACF09
:101DE000F3E0FF120EC08F89882309F440C08230CF
:101DF00061F440E869E087E991E00E94EC03811119
:101E000048CF81E28093EB0047CF813029F440E84E
:101E100069E08DE891E0F1CF833099F70E94FD04ED
:101E2000DC011296ED90FC908E010F5F1F4F680150
:101E3000E114F10479F0D701ED91FC910680F7816E
:101E4000E02DB801C7010995080F111DF701E084C5
:101E5000F184EECFD8011C92F60101900020E9F741
:101E60003197BF016C197D0940E0C601C6CF67E715
:101E700071E0FB01449150E080E80E941F0409CF0B
:101E8000973009F4BECF983021F481E08093F100BF
:101E900000CF993009F0FDCE837009F0B2CFE1E0B8
:101EA000F1E081E031E096E32191222371F080930B
:101EB000E9003093EB00DF0111972C912093EC00A7
:101EC0009093ED008F5F873079F78EE78093EA007B
:101ED0001092EA008F8980938D04DBCE8B8D9C8DD0
:101EE0001092E900109209031092080390930703DF
:101EF00080930603898D811192C08E899D89913AC4
:101F000049F4813209F07DCF47E050E06BE071E0A9
:101F100080E0B3CF913209F074CF833269F48F89B6
:101F2000988DB0E0A0E08093070190930801A09302
:101F30000901B0930A01ADCE803269F48091E800C6
:101F400082FFFCCF67E08BE091E00E94F0048BEF12
:101F50008093E8009ECE823209F09BCE8F898093D9
:101F60001201EEEFFFE7859194918B3F9C4D51F16B
:101F7000E0E0F8E080910B0190910C01A0910D013F
:101F8000B0910E01803B9440A105B105F1F4809120
:101F9000120180FD1AC0EE3F8AE0F80789F587E755
:101FA00097E7918380838091600080930A0388E1A2
:101FB0009BE00FB6F894A895809360000FBE9093B5
:101FC000600067CEEEEFFAE0D5CF80819181873750
:101FD000974709F05ECEA895809160008861809354
:101FE000600080910A0380936000EE3F2AE0F207D0
:101FF00089F08091FE0A9091FF0A9183808349CEF7
:10200000808191818737980751F29093FF0A8093DE
:10201000FE0AC5CF1092FF0A1092FE0A3ACE0E9425
:10202000FD04DC0112960D911C910115110509F4B6
:10203000E8CED801ED91FC910190F081E02DBE0138
:102040006B5E7F4FC8010995811123CEF801008591
:102050001185EBCF181619060CF41BCED2CEF1E089
:10206000FF12BECE6BE771E004CFFC01A385B485FF
:10207000109771F47487638785859685DB011496C4
:102080002D913C91820F931F968785870895DC01DF
:102090008D919C9111970097D1F76D937C93ECCF24
:1020A000CF93DF93EC0180E690E00E947B0B9FEFE3
:1020B000980F923020F01882DF91CF910895888395
:1020C0008130F1F490917402911112C010926F025C
:1020D00010926E0220E031E0309371022093700282
:1020E00029E230E0309373022093720280937402ED
:1020F0000E94EA066EE672E0DF91CF910C943510F3
:1021000080916602811113C01092610210926002E8
:102110008AEC90E0909363028093620286E390E001
:10212000909365028093640281E0809366020E942E
:10213000EA0660E672E0E0CF1092AB041092AA04C7
:1021400088EE93E0A0E0B0E08093AC049093AD04FF
:10215000A093AE04B093AF048FE691E09093A904EE
:102160008093A8048FEF9FEF9093B5048093B404FD
:10217000109209051092080581E891E090930705F7
:10218000809306058091FE04811113C01092F9041A
:102190001092F80482EB93E09093FB048093FA048E
:1021A0008FE290E09093FD048093FC0481E08093A3
:1021B000FE040E94EA0668EF74E00E94351082E394
:1021C00093E0909313058093120584E195E00C94BD
:1021D0005010CF93DF93CDB7DEB7C059D1400FB6C3
:1021E000F894DEBF0FBECDBF789484B5826084BD05
:1021F00084B5816084BD85B5826085BD85B581600B
:1022000085BD80916E00816080936E001092810088
:102210008091810082608093810080918100816043
:102220008093810080918000816080938000809104
:1022300091008260809391008091910081608093F1
:102240009100809190008160809390008091C10006
:1022500084608093C1008091C10082608093C1003E
:102260008091C10081608093C1008091C300816032
:102270008093C3008091C00082608093C0008091F1
:10228000C20081608093C20080917A008460809354
:102290007A0080917A00826080937A0080917A003F
:1022A000816080937A0080917A00806880937A00C0
:1022B00010928D0410920D0310920C038091D700A0
:1022C00081608093D70080EA8093D80089B58061CF
:1022D00089BD89B5826089BD09B400FEFDCF61E08A
:1022E00070E080E090E00E9480038091D8008F7CB5
:1022F00080618093D8008091E000807F8093E0002F
:102300008091E1008E7E8093E1008DE08093E20079
:10231000559A209A62E08EE00E94080362E080E114
:102320000E94080362E370E080E090E00E94800376
:102330000E94FD02892B39F50E94B2036B017C01DA
:102340000E94FD02892BE1F40E94B2036C197D0901
:102350008E099F09683B7B408105910588F387E7DB
:1023600097E7909301088093000888E19BE00FB6FF
:10237000F894A895809360000FBE90936000FFCF03
:1023800081E080930E0362E08EE00E94080362E029
:1023900080E10E94080302E311E0C558DE4F198373
:1023A0000883CB57D14062E0C558DE4FA881B98180
:1023B000CB57D1408D91C558DE4FB983A883CB57F9
:1023C000D1400E940803C558DE4F08811981CB57C0
:1023D000D1400154114039F787E690E00E947B0B11
:1023E00091E08A3509F090E01BE9E12E14E0F12E2E
:1023F00008E610E09111BDC18DE0EEE5F1E0ABE93A
:10240000B4E001900D928A95E1F70BE914E062E0E7
:10241000F80181918F010E940803F4E0083A1F0738
:10242000B1F785E690E00E947B0B91E0811101C03D
:1024300090E090931F0186E690E00E947B0BCF59BD
:10244000DE4F8883C156D140843028F0CF59DE4F0B
:102450001882C156D140CF59DE4F8880C156D14035
:102460008092610461E082E00E94080380E00E94A3
:10247000A90282E690E00E947B0B182F83E690E091
:102480000E947B0B853A21F4163A14F01B350CF0B0
:1024900010E0812F0E94AD0C84E690E00E947B0B3F
:1024A0009FEF980F943108F088E0809313018FE03C
:1024B00093E00E94E50A8FE093E00E94030A8111F5
:1024C00009C085E1E9E4F1E0AFE0B3E001900D92ED
:1024D0008A95E1F7CE018A5A9F4F0E94C90A8EE081
:1024E000FE01EA5AFF4FDE01A95CBE4F01900D923A
:1024F0008A95E1F768968EAD9FAD689783350AE4BB
:10250000900709F052C1C95CDE4F99838883C75395
:10251000D140C75CDE4F88809980C953D140C759EC
:10252000DE4F99828882C956D140C55CDE4F088152
:102530001981CB53D140C35CDE4FA880B980CD5305
:10254000D140CD59DE4FB982A882C356D140C15C7B
:10255000DE4FC880D980CF53D140C35ADE4FD982D5
:10256000C882CD55D140CF5BDE4F28803980C15421
:10257000D140CD5BDE4FE880F980C354D140C559CE
:10258000DE4FF982E882CB56D140B8E0CB2ED12C79
:10259000812C912C5401412C512C320183E10E9459
:1025A0003903092E000CAA0BBB0B480E591E6A1EDC
:1025B0007B1E82E10E943903092E000CAA0BBB0B83
:1025C000880E991EAA1EBB1E65E070E080E090E0B8
:1025D0000E94800321E0C21AD10801F7A8E0CA2EA8
:1025E000D12CE12CF12CC301B201A70196010E946C
:1025F0003B2AC801012E000CAA0BBB0B29013A0192
:10260000481A590A6A0A7B0AC501B401A701960152
:102610000E943B2AC101032C000CAA0BBB0B4C01EE
:102620005D01821A930AA40AB50AB501A401CF5923
:10263000DE4F9880C156D14090FE08C070946094DF
:1026400050944094411C511C611C711CCF59DE4FA9
:10265000A880C156D140A1FE07C0709560955095E5
:1026600041955F4F6F4F7F4FCD59DE4F88819981E4
:10267000C356D140801B910BC759DE4FC880D9800B
:10268000C956D1400C191D09081719070CF48C0103
:102690006801110FEE08FF08C559DE4F2881398106
:1026A000CB56D14022193309C101C35ADE4F0881EC
:1026B0001981CD55D140801B910B821793070CF4E3
:1026C000C901092E000CAA0BBB0B1AE7C116D104D5
:1026D000E104F1040CF492C0970186013595279529
:1026E000179507958A379105A105B1050CF48BC0A4
:1026F000B595A795979587954A015B0177FF07C028
:10270000882499245401841A950AA60AB70A7301E9
:10271000620177FE07C0CC24DD247601C418D508F9
:10272000E608F708C814D904EA04FB040CF070C0EA
:1027300084179507A607B7070CF492C070956095AB
:10274000509541955F4F6F4F7F4F84179507A607B0
:10275000B7070CF488C080910E03882309F48BC05E
:102760008091140590E0019663E070E00E94052AD4
:1027700070C0C8010E947B0BD7018D937D01E2E3FD
:10278000F1E09191891779F0B1E0E134FB07C9F7E5
:1027900090E00F5F1F4F0537110509F02BCE9923ED
:1027A00009F42ACE32CE91E0F4CFCE0101960E94F8
:1027B000110A0B811C81C759DE4F19830883C95642
:1027C000D1400D811E818F809884CD59DE4F998232
:1027D0008882C356D140A984BA84C35ADE4FB982D5
:1027E000A882CD55D1402B843C84CD84DE84C5594C
:1027F000DE4FD982C882CB56D140C7CE0CE310E061
:1028000020E030E06FCF8CE390E0A0E0B0E074CF48
:1028100088279927DC0184199509A609B7090817A3
:1028200019072A073B0714F1041515052605370576
:102830000CF091CF03E010E0C8018A589F4F0E942E
:102840007B0B8F3FB1F4F801EF5BFE4F808183304B
:1028500090F49091140560E0981769F00E940C0DB7
:1028600010E000E0E9CF01E010E0E6CF02E010E088
:10287000E3CF843060F390E080E00E947D0B81E63E
:1028800090E00E947B0B182F882349F060E081E6DE
:1028900090E00E94FC0C812F90E00E94120C8FEFC0
:1028A0009FEF9093B5048093B40482E393E09093F8
:1028B0001305809312059E012F5F3F4F190180E899
:1028C00090E04C01821A930AC157DE4F99828882A8
:1028D000CF58D1408091820481119AC0C1010E94D9
:1028E000C90A8EE0F101DE01A35FBE4F01900D9297
:1028F0008A95E1F78EE0FE01E35FFE4FDE01A15015
:10290000BF4F01900D928A95E1F7C35FDE4F88813A
:102910009981CD50D14083350AE4900709F0A0C0D9
:10292000C150DF4F99838883CF5FD0402EE0FE01F6
:10293000E150FF4FDE01A75DBE4F01900D922A9539
:10294000E1F7C75DDE4F99838883C952D1402EE0FD
:10295000FE01E75DFE4FDE01A55EBE4F01900D92C8
:102960002A95E1F72EE0FE01E55EFE4FDE01AD5156
:10297000BF4F01900D922A95E1F7CD51DF4F99831A
:102980008883C35ED040CF50DF4F1882C15FD040F4
:1029900011E0CE50DF4F1883C25FD040CD50DF4FE3
:1029A0001882C35FD040CC50DF4F1882C45FD04044
:1029B000CB50DF4F188219821A821B82C55FD0402C
:1029C000C750DF4F1882C95FD040C650DF4F188212
:1029D000CA5FD040C550DF4F188219821A821B820D
:1029E000CB5FD0408CE1FE01ED51FF4FA6E6B4E095
:1029F00001900D928A95E1F70E945B036093620457
:102A0000709363048093640490936504109382042C
:102A1000310113E5610E711C88EA94E00E94D7052C
:102A2000181619060CF095C688EA94E00E949505E0
:102A30008D3091F32091E6033091E7038A3009F05D
:102A400078C62A5D3C4FD9011C926CE871E086E2A1
:102A500093E00E94AB2A892B79F40E942E0B0DC4BF
:102A6000CE01875D9E4F0E94110AC75DDE4F8881AF
:102A70009981C952D14065CF60E971E086E293E067
:102A80000E94AB2A892B49F501E010E0B101C80191
:102A90000E94D90B8823B9F08EE192E00E94730561
:102AA000C8010E949B0A8CE70E946E05CE01029627
:102AB0000E94270A8CE70E946E05CE0142960E9472
:102AC000270A0E94780A0F5F1F4F09301105F1F69F
:102AD00089E192E00E947C0AD0C345E050E066E9BB
:102AE00071E086E293E00E94B42A8C01892B09F000
:102AF0004AC08BE293E00E9441267C01B1010E9412
:102B0000D90B811103C085E192E0E4CF8FE092E020
:102B10000E947305C7010E949B0A8CE70E946E0504
:102B2000CE0102960E94270A8CE70E946E05CE0114
:102B300042960E94270A8CE70E946E056596DFACDC
:102B400065977E01B2E4EB0EF11CF70181917F01E4
:102B50000E94880A0F5F1F4F80E20231110581F445
:102B60000E946E058D2D0E94880A80E20E946E05EB
:102B700066968FAD6697833008F435C183E033C124
:102B80000E946E05E2CF45E050E06CE971E086E21C
:102B900093E00E94B42A8C01892B09F0CEC08BE20D
:102BA00093E00E9441267C016CE770E08BE293E0A9
:102BB0000E94A02A4701F1E08F1A910828E08216AE
:102BC000910410F4009719F48BE092E083CF25E58F
:102BD000D1011D922A95E9F721EB298340E150E0CC
:102BE000BE016E5F7F4F01960E947A0C009719F02C
:102BF0002A81211103C087E092E06CCF40E350E0CE
:102C0000BE016E5E7F4F0E947A0C5C0183E092E011
:102C1000A114B10409F45ECF6101C50101151105CC
:102C200011F080E090E06AE372E00E94862600974F
:102C300019F48FEF91E04ECF0E945F266F3F710530
:102C40008105910521F018F08BEF91E043CF02311F
:102C50001105B9F1F601EF5BFF4F60830F5F1F4F66
:102C6000BFEFCB1ADB0A03311105B9F66AE372E054
:102C700090E080E00E948626009739F583E0669612
:102C80008FAF6697FE01EA5AFF4F8CE490E581937F
:102C90009193DE01AE5BBF4F8D918193A615B70571
:102CA000D9F765968FAD6597AB968FAFAB97CE0191
:102CB0008A5A9F4F0E94030A81110FC087EF91E04B
:102CC00009CF65966FAF6597C9CF0E94412666967A
:102CD0008FAF6697843090F6D5CF85E5889D6001EB
:102CE000899DD00C11245101E5E5AE0EB11C810186
:102CF000C157DE4F88809980CF58D140C80CD91C6D
:102D0000C601800F911F68969FAF8EAF6897D8015C
:102D10006D918D01CE018A5A9F4F0E94E30CA0163F
:102D2000B10671F7809125038E151F0419F4C701B0
:102D30000E94120C84EF91E0CDCE45E050E062EAB3
:102D400071E086E293E00E94B42A892BF1F58BE2D0
:102D500093E00E9441266C017C01B1E0EB1AF1087E
:102D60008BE992E0E8E0EE16F10408F0B3CE25E539
:102D70002E9DC0012F9D900D112460E080589F4F23
:102D80000E94FC0C8AE18E9D80018F9D100D112404
:102D90007801F8EDEF1AFCEFFF0A0E5B1C4F60E0C4
:102DA000C7010E94FC0C2FEFE21AF20AE016F106AE
:102DB000B1F7809125038C151D0421F490E080E08B
:102DC0000E94120C88E992E085CE68EA71E086E202
:102DD00093E00E94AB2A892B49F482E992E00E9499
:102DE0007305809125030E948F0A47C245E050E099
:102DF0006DEA71E086E293E00E94B42A892B09F023
:102E00003FC08BE293E00E9441268C0189309105FE
:102E100018F080EF91E05ECE0097F9F0BE016A5A9B
:102E20007F4F0E94D90B8823A1F3B101C8010E94F2
:102E3000D90B8823D1F06696FFAC669742E04F1518
:102E4000A0F0809114058F1581F0602F81E690E04D
:102E50000E94FC0C61E08F2D01CD8FE790E00E9475
:102E60007B0BF82E32E0381760F7C8010E94120C75
:102E7000882319F08DEE91E02DCE89EE91E02ACED7
:102E800045E050E063EB71E086E293E00E94B42AF3
:102E9000892B59F045E050E069EB71E086E293E060
:102EA0000E94B42A892B09F05AC08BE293E00E9459
:102EB00041267C0185EE91E059E0E516F10408F029
:102EC00009CE00E210E0E114F10451F0C7010197CE
:102ED0002AE1289F8001299F100D1124085D1C4FB5
:102EE000D09026036CE48FED91E0D61611F089EDB9
:102EF00091E00E947305C7010E949B0A7CE4D712EF
:102F00002AC0C80149960E947B0B813009F586EDE5
:102F100091E00E947305035F1F4F7CE0C72ED12C08
:102F2000F12CE12C80E20E946E05C701800F911FF9
:102F30000E947B0B8F3F09F480E00E94880A8FEF8C
:102F4000E81AF80ACE14DF0469F70E94780A95C1DE
:102F500083ED91E0DECF6DE0C62ED12CE1CF45E0D0
:102F600050E06FEB71E086E293E00E94B42A892B77
:102F700059F045E050E065EC71E086E293E00E9494
:102F8000B42A892B09F090C0909026036AE372E07E
:102F90008BE293E00E9486260FEF1FEF009719F057
:102FA0000E9441268C01DE0111966D017E01BEE07A
:102FB000EB0EF11C56016AE372E090E080E00E94A3
:102FC00086260097C1F00E945F260930110580F423
:102FD0006F3F71058105910558F4ECE49E120FC016
:102FE000AC14BD0461F462307105810591053CF0BB
:102FF0008FEC91E06FCD6FEF7FEFCB01E6CFD50186
:103000006D935D01AE15BF05B1F650E2E52EF12CD2
:103010000115110561F0C80101972AE1289F70018F
:10302000299FF00C1124B8EDEB1ABCEFFB0AECE47D
:103030009E1228C04E01F2E08F0E911CC7018C1920
:103040009D099C01255F3F4F6901D4016D914D01A0
:10305000C6018A0F9B1F0E94FC0C8A149B04A9F7CF
:103060006981C70149960E94FC0C80912503801755
:10307000110629F40E94F009C8010E947D0B8CEC16
:1030800091E028CDB12CA12CF60161916F01C50111
:103090008E0D9F1D0E94FC0CFFEFAF1ABF0A2DE0A2
:1030A000A216B10489F7E1CF6BEC71E086E293E000
:1030B0000E94AB2A892BF1F48DE892E00E947305FF
:1030C00006E710E080E20E946E05C8010E947B0BBB
:1030D0008F3F61F4F801E553FF4F80810E94880A19
:1030E0000F5F1F4F0A37110569F72FCF8430B0F3F8
:1030F00083E0F4CF45E050E060ED71E086E293E0DC
:103100000E94B42A892BB9F56AE372E08BE293E05E
:103110000E9486268E010F5F1F4F6E0135E0C30EA1
:10312000D11C7801009729F00E9441268430910536
:1031300018F089E892E0CECCD7018D937D016AE347
:1031400072E090E080E00E948626EC14FD0451F7C6
:1031500046E7E42EF12CF80161918F01C7010E942E
:10316000FC0CFFEFEF1AFF0A2AE7E216F10499F7C9
:1031700086E892E0AFCC66ED71E086E293E00E94D3
:10318000AB2A892B49F48FE792E00E9473058FE701
:1031900090E00E947B0BEFCC46E050E06CED71E0DC
:1031A00086E293E00E94B42A892B79F48CE293E0C2
:1031B0000E944126833008F083E0682F8FE790E07B
:1031C0000E94FC0C8CE792E085CC44E050E060EC7F
:1031D00071E086E293E00E94B42A8C01892B09F009
:1031E00042C085E1EFE0F3E0D10101900D928A95B4
:1031F000E1F771018AE293E00115110511F090E009
:1032000080E06AE372E00E948626009719F488EC59
:1032100091E060CC0E945F266F3F710581059105AA
:1032200021F018F084EC91E055CC0231110599F0B1
:10323000D70112966C930F5F1F4FBFEFEB1AFB0A7B
:1032400003311105B9F6C1010E94030A811105C0BD
:1032500080EC91E03FCC6D8BEECFC1010E94062641
:103260008DEB91E037CC6EEE71E086E293E00E9448
:10327000AB2A892B39F40E94B4251092E7031092EF
:10328000E603CACB45E050E063EE71E086E293E0EE
:103290000E94B42A8C01892B09F04CC071018BE289
:1032A00093E00115110511F090E080E06AE372E00F
:1032B0000E948626009719F489EB91E00BCC0E94BE
:1032C0005F266F3F71058105910509F068F4262F8F
:1032D000E2E3F1E03191231751F031E4832E31E044
:1032E000932E8E169F06B1F785EB91E0F3CBF1019B
:1032F0009F0122193309201731076CF42191822E86
:10330000912CB12CA12C681579058A059B0581F7B4
:1033100081EB91E0DFCBD7016D937D010F5F1F4FF4
:103320000D30110509F0BBCFC1010E94CA258EEAFC
:1033300091E0D0CB69EE71E086E293E00E94AB2A87
:10334000892B51F48EE591E00E94CA2560E087E662
:1033500090E00E94FC0C8FCF63EF71E086E293E077
:103360000E94AB2A892B39F487E792E00E9473050B
:103370008091610438CD44E050E067EF71E086E26F
:1033800093E00E94B42A892BA1F48AE293E00E9480
:1033900041268430910518F083E792E09BCB80931F
:1033A0006104682F86E690E00E94FC0C80E792E0C2
:1033B00091CB6CEF71E086E293E00E94AB2A892BFF
:1033C00051F489E692E00E94730580911F0190E01C
:1033D0000E949B0ABACD62E072E086E293E00E940E
:1033E000AB2A892B41F06AE072E086E293E00E940A
:1033F000AB2A892B79F461E080912C03813309F0A9
:1034000060E060931F0185E690E00E94FC0C86E678
:1034100092E060CB62E172E086E293E00E94AB2A28
:10342000892B29F489E491E00E94062616CB6CE1F1
:1034300072E086E293E00E94AB2A892B09F041C03A
:1034400087EA91E00E94730580915B0490915C048F
:103450000E949B0A80E20E946E058091590490911F
:103460005A040E949B0A80E20E946E0580915704D4
:10347000909158040E949B0A80E20E946E05809100
:103480005504909156040E949B0A80E20E946E05AA
:103490008091540490E00E949B0A80E20E946E0595
:1034A00004E014E0F80181918F01882341F081E369
:1034B0000E946E05F4E006311F07A1F746CD80E3B8
:1034C000F7CF62E272E086E293E00E94AB2A892B9A
:1034D00031F481E08093ED0383E692E0FBCA44E09F
:1034E00050E066E272E086E293E00E94B42A892B03
:1034F00001F58AE293E00E944126209114052130D3
:1035000031F49C01215031092431310518F08FE547
:1035100092E0E0CA80931A040E94B20360931604FA
:103520007093170480931804909319048CE592E02B
:10353000D1CA6BE272E086E293E00E94AB2A892B4B
:1035400049F487E592E00E94730585E491E00E94CA
:10355000270AFBCC6FE272E086E293E00E94AB2A7E
:10356000892B19F489E492E0B5CA63E372E086E23C
:1035700093E00E94AB2A892B39F484E492E00E9404
:103580007305809113012FCC44E050E067E372E0B3
:1035900086E293E00E94B42A892BB9F48AE293E090
:1035A0000E9441269C01215031092431310518F037
:1035B00080E492E08FCA80931301682F84E690E044
:1035C0000E94FC0C8DE392E085CA6CE372E086E217
:1035D00093E00E94AB2A892BC1F581EA91E00E9419
:1035E000730582E10E9439030E949B0A80E20E94D7
:1035F0006E0583E10E9439030E949B0A80E20E94CB
:103600006E0502E311E0F12CD801ED908D018E2DB5
:103610000E94D402892B51F4FF2019F08CE20E9401
:103620006E058E2D0E94880AFF24F394C558DE4F44
:1036300088809980CB57D1408016910629F7F110E8
:1036400084CC8DE20E946E0580CC61E472E086E25B
:1036500093E00E94AB2A892B51F488E392E00E9408
:10366000730580912403082E000C990BB1CE44E021
:1036700050E065E472E086E293E00E94B42A892B70
:10368000E9F48AE293E00E9441268C01865A9F4F1A
:10369000853B910518F084E392E01CCA802F0E94BC
:1036A000AD0C602F82E690E00E94FC0C65EA83E698
:1036B00090E00E94FC0C81E392E00CCA67ED71E09F
:1036C00086E293E00E94AB2A892B39F48BE292E0E8
:1036D0000E9473058091140586CB6AE472E086E24D
:1036E00093E00E94AB2A892B81F061E572E086E2CB
:1036F00093E00E94AB2A892B41F068E572E086E2F4
:1037000093E00E94AB2A892B61F480912B038053B4
:1037100090911405891303C088E292E0DBC961E04F
:103720009DC880912603882309F4A7CD84E292E006
:10373000D1C92F3B31050CF06FC9A9014F5F5F4F15
:103740005093E7034093E6032A5D3C4FD9018C93E5
:1037500063C90E945B03009162041091630420918D
:10376000640430916504AB01BC01401B510B620B3A
:10377000730B77FF02C00C940724D901C80188514C
:103780009C4FAF4FBF4F8093620490936304A0930C
:103790006404B09365040E945B030091620410917D
:1037A00063042091640430916504601B710B820BEB
:1037B000930B161617061806190674F40E945B037D
:1037C00068517C4F8F4F9F4F6093620470936304E6
:1037D00080936404909365040E94B203C35ADE4F41
:1037E000688379838A839B83CD55D14083E10E948E
:1037F0003903CF59DE4F99838883C156D14082E186
:103800000E943903CD59DE4F99838883C356D14036
:103810000E94FD02BC018091ED038823A9F0109263
:10382000ED0381E08093EC03C35ADE4F88809980DA
:10383000AA80BB80CD55D1408092E8039092E903E5
:10384000A092EA03B092EB038091EC038823E9F0A5
:103850008091E8039091E903A091EA03B091EB0312
:10386000C35ADE4FA880B980CA80DB80CD55D140D5
:10387000A81AB90ACA0ADB0AD601C501843691051D
:10388000A105B10510F01092EC033091EC03C0904B
:103890006604D0906704C357DE4FD982C882CD58E2
:1038A000D140E0906804F0906904CF58DE4FF9826F
:1038B000E882C157D140E0916A0480916B04009185
:1038C0006C0410916D04CD58DE4F19830883C357E3
:1038D000D14080906E0490906F04C359DE4F99825E
:1038E0008882CD56D1405091700440917104A090CF
:1038F0007204B0907304CB59DE4FB982A882C556CA
:10390000D140B0907404C559DE4FB882CB56D14037
:10391000C0907504CE57DE4FC882C258D140D090B7
:103920007604C957DE4FD882C758D140E09077045B
:10393000CB58DE4FE882C557D140809078049090F4
:103940007904A0907A04B0907B04CD57DE4F888232
:103950009982AA82BB82C358D14090907C04CF57F1
:10396000DE4F9882C158D14090917D04A0907E0492
:10397000B0907F04C0908004D0908104C358DE4F83
:10398000A882B982CA82DB82CD57D14021E0672B61
:1039900009F020E0C957DE4FB880C758D1402B1539
:1039A000A9F0C957DE4F2883C758D140C35ADE4F0C
:1039B000C880D980EA80FB80CD55D140CD57DE4FFD
:1039C000C882D982EA82FB82C358D140C35ADE4FF3
:1039D000C880D980EA80FB80CD55D140CD57DE4FDD
:1039E00088809980AA80BB80C358D140C818D90864
:1039F000EA08FB080AE1C016D104E104F10428F04A
:103A0000CB58DE4F2883C557D140CB58DE4F1881A5
:103A1000C557D140C759DE4F1883C956D140CF573B
:103A2000DE4F8880C158D1403815A9F0CF57DE4FFE
:103A30003883C158D140C35ADE4FA880B980CA80AC
:103A4000DB80CD55D140C358DE4FA882B982CA82EF
:103A5000DB82CD57D140C35ADE4FC880D980EA807F
:103A6000FB80CD55D140C358DE4F88809980AA8015
:103A7000BB80CD57D140C818D908EA08FB080AE135
:103A8000C016D104E104F10470F1C658DE4F38834A
:103A9000CA57D140C658DE4F1881CA57D14021E0DD
:103AA0009227111101C090E0CE57DE4F8880C25896
:103AB000D14081101EC0C658DE4F9880CA57D140F1
:103AC000911006C001E0CE57DE4F0883C258D140A6
:103AD000C559DE4F1882CB56D140C857DE4F1882E9
:103AE000C858D14023C0C658DE4F9883CA57D1402A
:103AF000D1CF992391F3C559DE4F1881CB56D140D0
:103B0000112309F40AC5C559DE4F1882CB56D1409E
:103B100003E51AE4C357DE4F19830883CD58D1401B
:103B200011E0C857DE4F1883C858D140C357DE4F45
:103B300088809980CD58D140C953DF4F99828882BF
:103B4000C75CD040CF58DE4FA880B980C157D14064
:103B5000C753DF4FB982A882C95CD040C553DF4F3D
:103B6000E883CB5CD040C453DF4F8883CC5CD0402B
:103B7000CD58DE4FC880D980C357D140C353DF4FE3
:103B8000D982C882CD5CD040C359DE4FE880F9802D
:103B9000CD56D140C153DF4FF982E882CF5CD0408F
:103BA000CF52DF4F5883C15DD040CE52DF4F4883A4
:103BB000C25DD040CB59DE4F08811981C556D14036
:103BC000CD52DF4F19830883C35DD040C559DE4F06
:103BD0001881CB56D140CB52DF4F1883C55DD04002
:103BE000CE57DE4F8880C258D140CA52DF4F8882FC
:103BF000C65DD040C957DE4F9880C758D140C952E2
:103C0000DF4F9882C75DD040CB58DE4FA880C557A4
:103C1000D140C852DF4FA882C85DD040CD57DE4F9B
:103C2000C880D980EA80FB80C358D140C752DF4F9B
:103C3000C882D982EA82FB82C95DD040CF57DE4F6D
:103C4000D880C158D140C352DF4FD882CD5DD0401B
:103C5000C658DE4FE880CA57D140C252DF4FE882D3
:103C6000CE5DD040C358DE4F88809980AA80BB804B
:103C7000CD57D140C152DF4F88829982AA82BB8240
:103C8000CF5DD040112309F4CCC086E0E7ECF0E032
:103C9000EC0FFD1F3296DE01A55BBE4F01900D9229
:103CA0008A95E1F7CF58DE4FA880B980C157D1403F
:103CB000CF59DE4FC880D980C156D140CA14DB0429
:103CC00034F4CF58DE4FD982C882C157D140CD5885
:103CD000DE4FE880F980C357D140CF59DE4F0881CD
:103CE0001981C156D140E016F10634F4CD58DE4FAB
:103CF00019830883C357D140CF58DE4F88809980FD
:103D0000C157D140C55BDE4F99828882CB54D140E8
:103D1000CD58DE4FA880B980C357D140C15BDE4F7C
:103D2000B982A882CF54D14086E0FE01E55BFE4F08
:103D3000DE01AB5BBE4F01900D928A95E1F786E004
:103D4000FE01EB5BFE4FA7ECB0E0AC0FBD1F12967F
:103D500001900D928A95E1F786E0E7ECF0E0EC0F38
:103D6000FD1F3896DE01A95ABE4F01900D928A952B
:103D7000E1F7C359DE4FC880D980CD56D140CD5927
:103D8000DE4FE880F980C356D140EC14FD0434F4D2
:103D9000C359DE4FF982E882CD56D140CB59DE4F70
:103DA00008811981C556D140CD59DE4F8880998050
:103DB000C356D1400815190534F4CB59DE4F99820A
:103DC0008882C556D140C359DE4FA880B980CD56F0
:103DD000D140C95ADE4FB982A882C755D140CB59CC
:103DE000DE4FC880D980C556D140C55ADE4FD98232
:103DF000C882CB55D14086E0FE01E95AFE4FDE0174
:103E0000AF5ABE4F01900D928A95E1F786E0FE0110
:103E1000EF5AFE4FDE01A153BF4F01900D928A95DC
:103E2000E1F7CF58DE4FE880F980C157D140C75342
:103E3000DF4FF982E882C95CD040CD58DE4F08815F
:103E40001981C357D140C353DF4F19830883CD5C19
:103E5000D040C359DE4F88809980CD56D140C153A0
:103E6000DF4F99828882CF5CD040CB59DE4FA8804B
:103E7000B980C556D140CD52DF4FB982A882C35D0B
:103E8000D0408CE1FE01E953FF4FDE01A555BF4F45
:103E900001900D928A95E1F7C155DF4FC880D98016
:103EA000CF5AD040CA58DE4FD982C882C657D140B7
:103EB000CB54DF4FE880F980C55BD040C858DE4F57
:103EC000F982E882C857D140C559DE4FF880CB56F9
:103ED000D140F1100BC4CF59DE4F08811981C15672
:103EE000D1400C151D050CF457C3CD58DE4F088189
:103EF0001981C357D1400C191D09101611060CF079
:103F000092C3CF59DE4F68817981C156D1406C1977
:103F10007D09072E000C880B990B0E9406286B0167
:103F20007C01B801110F880B990B0E9406289B0198
:103F3000AC01C701B6010E945C272B013C0120E0C7
:103F400030E0A9010E94522787FD6DC320E030E0D8
:103F500040E85FE3C301B2010E94F528181634F46B
:103F6000412C512C00E8602E0FE3702ECD59DE4F0E
:103F7000C880D980C356D140C858DE4FE880F98048
:103F8000C857D140CE14DF040CF458C3CB59DE4FD0
:103F900008811981C556D1400E191F091016110646
:103FA0000CF093C3B6016E197F09072E000C880B25
:103FB000990B0E9406286B017C01B801110F880B38
:103FC000990B0E9406289B01AC01C701B6010E9413
:103FD0005C276B017C0120E030E0A9010E945227A0
:103FE00087FD73C320E030E040E85FE3C701B6011E
:103FF0000E94F528181634F4C12CD12CB0E8EB2E11
:10400000BFE3FB2EA3019201C301B2010E94FA2873
:104010004B015C01A7019601C701B6010E94FA2875
:104020009B01AC01C501B4010E94E6260E947529DE
:10403000C757DE4F688379838A839B83C958D140F1
:104040002DEC3CEC4CE45DE30E94522718160CF07A
:1040500047C32DEC3CEC4CE45DE3C757DE4F688171
:1040600079818A819B81C958D1400E94E52623E34A
:1040700033E343E75FE30E945C274B015C0120E0F0
:1040800030E040E85FE30E94F528181634F4812CF4
:10409000912CF0E8AF2EFFE3BF2EC757DE4F2881EB
:1040A00039814A815B81C958D140C501B4010E9460
:1040B0005C274B015C01A30192010E94FA282B01AD
:1040C0003C01A7019601C501B4010E94FA284B01E9
:1040D0005C0120E03EEF4FEF56E4C301B2010E94C5
:1040E000FA280E94CE277B0120E03EEF4FEF56E4F6
:1040F000C501B4010E94FA280E94CE278B01C35744
:10410000DE4FC880D980CD58D140D0926704C0928C
:104110006604CF58DE4F88809980C157D140909275
:10412000690480926804CA58DE4FA880B980C657D7
:10413000D140B0926B04A0926A04CD58DE4FC88083
:10414000D980C357D140D0926D04C0926C04C3593A
:10415000DE4F88809980CD56D14090926F04809236
:104160006E04C858DE4FA880B980C857D140B092BD
:104170007104A0927004CB59DE4FC880D980C55617
:10418000D140D0927304C0927204C559DE4FD880DA
:10419000CB56D140D0927404CE57DE4F8880C2589F
:1041A000D14080927504C957DE4F9880C758D140DE
:1041B00090927604CB58DE4FA880C557D140A0928C
:1041C0007704CD57DE4F88809980AA80BB80C35882
:1041D000D1408092780490927904A0927A04B092AF
:1041E0007B04CF57DE4F9880C158D14090927C0419
:1041F000C658DE4FA880CA57D140A0927D04C3584C
:10420000DE4F88809980AA80BB80CD57D1408092B4
:104210007E0490927F04A0928004B09281048091E9
:10422000610480FF03C0F194E194F10881FD03C0B3
:1042300011950195110980911F01811104C010E0B1
:1042400000E0F12CE12CB701FF0C880B990B0E94C8
:1042500006284B015C01C0901B01D0901C01E0902E
:104260001D01F0901E01CB59DE4FC882D982EA822F
:10427000FB82C556D140B801110F880B990B0E94E3
:1042800006282B013C01E0905D04F0905E04009153
:104290005F0410916004C359DE4FE882F9820A83FB
:1042A0001B83CD56D140CB59DE4F288139814A81BD
:1042B0005B81C556D140C501B4010E94FA286B014B
:1042C0007C01C359DE4F288139814A815B81CD56FB
:1042D000D140C301B2010E94FA289B01AC01C70181
:1042E000B6010E94E6266B017C0120E03EEF4FEF15
:1042F00056E40E94F5280FEF1FE718168CF020E017
:104300003EEF4FEF56ECC701B6010E94522701E085
:1043100010E887FD05C0C701B6010E94CE278B01BA
:10432000A3019201CB59DE4F688179818A819B81FB
:10433000C556D1400E94FA286B017C01C359DE4F5B
:10434000288139814A815B81CD56D140C501B401B4
:104350000E94FA289B01AC01C701B6010E94E52624
:104360006B017C0120E03EEF4FEF56E40E94F52800
:1043700018160CF4C0C120E03EEF4FEF56ECC70119
:10438000B6010E94522787FDBBC1C701B6010E943A
:10439000CE277B014EE8C42E44E0D42E50E2852E79
:1043A00054E0952E6BE9662E64E0762EB12CA12C9C
:1043B000D3018D913D010E94D40221E0892B09F0A7
:1043C00020E02601F6018081281729F1F40180817F
:1043D0009181A281B381C35ADE4F488159816A819C
:1043E0007B81CD55D140481B590B6A0B7B0BDB0100
:1043F000CA010897A105B10570F0D6012C93C35AE4
:10440000DE4F288139814A815B81CD55D14020839F
:10441000318342835383BFEFCB1ADB0AF201608101
:10442000C5010E94B808FFEFAF1ABF0A24E0820E50
:10443000911C3DE0A316B10409F0BACF80911F048E
:104440008823A9F00E94B20380901B0490901C0462
:10445000A0901D04B0901E04681979098A099B096F
:104460006C3371058105910510F00E94AD088090B4
:104470001405C35ADE4F8882CD55D140282D2130F6
:1044800009F0DAC1CB58DE4F8880C557D14088206B
:1044900061F080917404CC24C394D12C882339F02A
:1044A000C759DE4F1882C956D140D12CC12CB090CB
:1044B0001A04BB2079F10E94B20340901604509078
:1044C000170460901804709019046419750986091E
:1044D0009709603971408105910508F0A5C132E165
:1044E000B31609F4A4C13B1508F40FC141E190E0F3
:1044F00080E021E030E8B41609F412C1AB2DA150E0
:10450000BB0B21E030E002C0220F331FAA95E2F777
:10451000C22AD32AC701980103C1CD59DE4F888032
:104520009980C356D140CB59DE4F99828882C556B7
:10453000D140CD59DE4F5881C356D140CC59DE4FC2
:104540004881C456D140C359DE4F99828882CD56E6
:10455000D140CF59DE4FA880B980C156D140CD5847
:10456000DE4FB982A882C357D140CF59DE4FE881D0
:10457000C156D140CE59DE4F8881C256D140CF5866
:10458000DE4FB982A882C157D14001E0C559DE4F44
:104590000883CB56D140A1CACA58DE4F0881198181
:1045A000C657D140CF58DE4F88809980C157D1403F
:1045B0000819190910161106B4F5CF59DE4F688194
:1045C0007981C156D140CA58DE4FA880B980C657FC
:1045D000D1406A197B09072E000C880B990B0E94A9
:1045E00006286B017C01B801110F880B990B0E9402
:1045F00006289B01AC01C701B6010E945C272B0174
:104600003C0120E030E040E85FEB0E94522787FD4C
:104610000EC020E030E0A901C301B2010E94F528DC
:1046200018160CF0A3CC412C512C32019FCC412CFC
:10463000512C10E8612E1FEB712E98CCC858DE4F1C
:1046400008811981C857D140C359DE4F88809980AD
:10465000CD56D1400819190910161106B4F5CD59D7
:10466000DE4F68817981C356D140C858DE4FA8809B
:10467000B980C857D1406A197B09072E000C880BF6
:10468000990B0E9406286B017C01B801110F880B61
:10469000990B0E9406289B01AC01C701B6010E943C
:1046A0005C276B017C0120E030E040E85FEB0E947A
:1046B000522787FD0EC020E030E0A901C701B601F6
:1046C0000E94F52818160CF09DCCC12CD12C760137
:1046D00099CCC12CD12CA0E8EA2EAFEBFA2E92CCCB
:1046E000812C912C540124013501F3CC10E000E021
:1046F000F12CE12C04CDEE24EA94EFE7FE2E4ACE15
:10470000EE24E39470E8F72E45CE53E1B51609F494
:1047100088C064E181E090E8B612F0CE30E020E09D
:1047200041E08115B0E49B070CF440E04093110494
:1047300041E08130E0EC9E070CF040E04093120431
:1047400041E02130F0EC3F070CF040E040931304CF
:1047500041E0211550E435070CF440E04093140487
:10476000C759DE4F8880C956D140809215043A83DC
:1047700029839195819591099C838B83DE82CD82DB
:1047800046E050E065E171E0C1010E948A2A892B70
:1047900081F086E0F101A5E1B1E001900D928A95EA
:1047A000E1F70E94EA0626E030E0A10163E00E9402
:1047B0001406C559DE4F8881CB56D1400E94A9020C
:1047C000C857DE4FB880C858D140B110B7C1CF59D3
:1047D000DE4FC880D980C156D140D0925C04C092CF
:1047E0005B04CD59DE4F88809980C356D1409092AA
:1047F0005A04809259041093580400935704F0927D
:104800005604E0925504809174048093540480E02F
:1048100090E0892B11F40C946A140E9400000C940F
:104820006A148FEF9FE77ACF10921A0473CE90E04C
:1048300080E02FEF3FE774CFC35ADE4F2881CD557C
:10484000D140223009F046C180917404CB58DE4F2C
:104850008880C557D140882009F41BC1882309F4FA
:104860001AC1C759DE4F1882C956D140D12CC12C6C
:10487000A12C912CC759DE4FB880C956D140B092B7
:1048800015040E94B203409000045090010460900F
:104890000204709003049B01AC01241935094609F8
:1048A000570929013A0138E04316510461047104A3
:1048B00008F47FCF60930004709301048093020496
:1048C000909303042091F703BB2009F4E9C0211160
:1048D0000BC06093F3037093F4038093F5039093FC
:1048E000F60321E02093F203C759DE4F8880C956B2
:1048F000D1408092F703882009F12091F20322230E
:10490000C9F04090F3035090F4036090F503709069
:10491000F6039B01AC012419350946095709290101
:104920003A0134EF431631E053066104710410F08C
:104930001092F2032091F2032223E1F04090EE0363
:104940005090EF036090F0037090F103461A570AFD
:10495000680A790A41E0C35ADE4F4883CD55D140F9
:1049600014141504160417042CF0C35ADE4F1882D1
:10497000CD55D1408A2D992D0E945F082091FC03CE
:104980003091FD034091FE035091FF030E94E62603
:104990004B015C018D2D9C2D0E945F089B01AC0199
:1049A0006091F8037091F9038091FA039091FB03F1
:1049B0000E94E5262B013C01C501B4010E94CE27CF
:1049C00021E8C22E61385FEF750734F06038710559
:1049D00014F06FE770E0C62EC301B2010E94CE272B
:1049E00091E8D92E6138AFEF7A0734F0603871055D
:1049F00014F06FE770E0D62E6C2D0C2C000C770BAA
:104A0000880B990B0E9406289B01AC01C501B401DB
:104A10000E94E5266093FC037093FD038093FE03E0
:104A20009093FF036D2D0D2C000C770B880B990BC9
:104A30000E9406289B01AC01C301B2010E94E52639
:104A40006093F8037093F9038093FA039093FB0348
:104A5000C1100CC0D1100AC080911401C35ADE4F9E
:104A60008880CD55D140881509F4A3CEC35ADE4FB6
:104A70009880CD55D140909214011C821B8299825E
:104A8000CA82DB820E94EA0624E030E0A10164E0F1
:104A90008ECE8111EBCEDE2CCF2CA02E912EEACE25
:104AA000222309F421CF2091F203222309F41CCF01
:104AB0002B013C014CE3440E511C611C711C4092C3
:104AC000EE035092EF036092F0037092F1031092A4
:104AD000F2030ACFB80180E190E00E94BA0966278C
:104AE0007727601B710B8FE090E00E94BA09B70135
:104AF0008DE090E00E94BA09662777276E197F093A
:104B00008EE090E00E94BA09CB58DE4FA880C557CE
:104B1000D140AA2049F09091740481E09827C759A8
:104B2000DE4F9883C956D140C759DE4F6881C956B8
:104B3000D14081E190E00E94B8083BCE86E6A82EE5
:104B400084E0B82ED12CC12CDA82C982D5016D91B6
:104B50005D01C1010E94E30CBFEFCB1ADB0AEEE05E
:104B6000CE16D10489F733CECF93DF9380E391E063
:104B70000E947305CBE9D4E080E20E946E05899122
:104B80000E94880A84E0C83AD807B1F7DF91CF9134
:104B90000C94780AAF92BF92CF92DF92FF920F935C
:104BA0001F93CF93DF93D82FC92F0E94F0090D2FA9
:104BB0001C2F8BE9A82E84E0B82E9EE8C92E94E025
:104BC000D92EC8E6D0E0F801F1908F01F501F192FD
:104BD0005F0162E08F2D0E940803F60111926F01C0
:104BE0006F2DCE010E94FC0C2196C537D10559F7D7
:104BF0006AE587E690E0DF91CF911F910F91FF90DA
:104C0000DF90CF90BF90AF900C94FC0CEF92FF928E
:104C10000F931F93CF93DF9300D0CDB7DEB78C01F6
:104C20000E94F00985E1F801AFE0B3E001900D9238
:104C30008A95E1F780912503882321F090E080E0B8
:104C40000E947D0B109225038FE0E82E83E0F82E62
:104C500000E410E01A830983F70161917F01CE011E
:104C600001960E94E30C0F5F1F4F0535110591F768
:104C70000F900F90DF91CF911F910F91FF90EF90C8
:104C80000895FC0188279927E89421912032E9F3BF
:104C9000293010F02E30C8F32B3241F02D3239F488
:104CA000689404C00E94C726820F911D2191205351
:104CB0002A30C0F31EF4909581959F4F08951F935D
:104CC000FC0199278827BC01E89411911032E9F37F
:104CD000193010F01E30C8F31B3251F01D3249F468
:104CE000689406C00E94B226610F711D811D911D3E
:104CF000119110531A30B0F33EF490958095709551
:104D000061957F4F8F4F9F4F1F91089545E155E06B
:104D10000E948B260895FA01A191B081009719F4A1
:104D20001097E1F0CD01DC01CD010D90002011F4D0
:104D3000C00113C0FB012191222319F02015D9F7DE
:104D4000F3CFFB012191201519F41E92119606C094
:104D50002223C1F70D900020A1F7D001FA01A19301
:104D6000B0830895592F482F372F262F660F771FAE
:104D7000881F991F660F771F881F991F620F731F67
:104D8000841F951F660F771F881F991F08957AE06B
:104D9000979F902D879F802D910D11240895F9994B
:104DA000FECF92BD81BDF89A992780B50895262F30
:104DB000F999FECF1FBA92BD81BD20BD0FB6F89400
:104DC000FA9AF99A0FBE019608955058BB27AA2760
:104DD0000E94FD260C94A7280E946E2838F00E949D
:104DE000752820F039F49F3F19F426F40C946B28B1
:104DF0000EF4E095E7FB0C946528E92F0E94CC287F
:104E000058F3BA17620773078407950720F079F4FF
:104E1000A6F50C94EE280EF4E0950B2EBA2FA02DDB
:104E20000B01B90190010C01CA01A0011124FF2757
:104E3000591B99F0593F50F4503E68F11A16F04052
:104E4000A22F232F342F4427585FF3CF4695379551
:104E50002795A795F0405395C9F77EF41F16BA0B16
:104E6000620B730B840BBAF09150A1F0FF0FBB1FC4
:104E7000661F771F881FC2F70EC0BA0F621F731F0D
:104E8000841F48F4879577956795B795F7959E3F6A
:104E900008F0B0CF9395880F08F09927EE0F9795FB
:104EA000879508950E94412808F481E008950E94A2
:104EB0007E28E3950C94B8280E9470270C94A728AC
:104EC0000E94752858F00E946E2840F029F45F3F38
:104ED00029F00C94652851110C94EF280C946B2840
:104EE0000E94CC2868F39923B1F3552391F3951BC5
:104EF000550BBB27AA2762177307840738F09F5FFB
:104F00005F4F220F331F441FAA1FA9F335D00E2E67
:104F10003AF0E0E832D091505040E695001CCAF7D4
:104F20002BD0FE2F29D0660F771F881FBB1F261797
:104F300037074807AB07B0E809F0BB0B802DBF016E
:104F4000FF2793585F4F3AF09E3F510578F00C943D
:104F500065280C94EF285F3FE4F3983ED4F38695E0
:104F600077956795B795F7959F5FC9F7880F911D5E
:104F70009695879597F90895E1E0660F771F881F4A
:104F8000BB1F621773078407BA0720F0621B730BFD
:104F9000840BBA0BEE1F88F7E09508950E94D52781
:104FA0006894B1110C94EF2808950E94D42888F0D9
:104FB0009F5798F0B92F9927B751B0F0E1F0660FDD
:104FC000771F881F991F1AF0BA95C9F714C0B1301E
:104FD00091F00E94EE28B1E008950C94EE28672F1E
:104FE000782F8827B85F39F0B93FCCF3869577954D
:104FF0006795B395D9F73EF4909580957095619536
:105000007F4F8F4F9F4F0895E89409C097FB3EF460
:1050100090958095709561957F4F8F4F9F4F992305
:10502000A9F0F92F96E9BB279395F6958795779583
:105030006795B795F111F8CFFAF4BB0F11F460FF43
:105040001BC06F5F7F4F8F4F9F4F16C0882311F09B
:1050500096E911C0772321F09EE8872F762F05C0AF
:10506000662371F096E8862F70E060E02AF09A954A
:10507000660F771F881FDAF7880F9695879597F93F
:105080000895990F0008550FAA0BE0E8FEEF1616D9
:105090001706E807F907C0F012161306E407F5072C
:1050A00098F0621B730B840B950B39F40A2661F0A0
:1050B000232B242B252B21F408950A2609F4A14043
:1050C000A6958FEF811D811D089597F99F6780E850
:1050D00070E060E008959FEF80EC089500240A944A
:1050E0001616170618060906089500240A941216C3
:1050F00013061406050608950C946B280E94D42804
:10510000D8F3E894E0E0BB279F57F0F02AED3FE0AA
:1051100049EC06C0EE0FBB0F661F771F881F28F0F3
:10512000B23A62077307840728F0B25A620B730B16
:10513000840BE3959A9572F7803830F49A95BB0FFB
:10514000661F771F881FD2F790480C94B729092E45
:105150000394000C11F4882352F0BB0F40F4BF2BD2
:1051600011F460FF04C06F5F7F4F8F4F9F4F089512
:10517000EF93E0FF07C0A2EA2AED3FE049EC5FEBC6
:105180000E94FD260E94A7280F90039401FC9058CE
:10519000ECEAF0E00C94CA2957FD9058440F551FD3
:1051A00059F05F3F71F04795880F97FB991F61F0A9
:1051B0009F3F79F087950895121613061406551F20
:1051C000F2CF4695F1DF08C0161617061806991F8C
:1051D000F1CF86957105610508940895E894BB2781
:1051E00066277727CB0197F908950E94412808F494
:1051F0008FEF08950E940D290C94A7280E946E2815
:1052000038F00E94752820F0952311F00C94652841
:105210000C946B2811240C94EF280E94CC2870F376
:10522000959FC1F3950F50E0551F629FF001729F4B
:10523000BB27F00DB11D639FAA27F00DB11DAA1F5A
:10524000649F6627B00DA11D661F829F2227B00DA7
:10525000A11D621F739FB00DA11D621F839FA00D32
:10526000611D221F749F3327A00D611D231F849F82
:10527000600D211D822F762F6A2F11249F575040D9
:105280009AF0F1F088234AF0EE0FFF1FBB1F661F54
:10529000771F881F91505040A9F79E3F510580F01D
:1052A0000C9465280C94EF285F3FE4F3983ED4F308
:1052B000869577956795B795F795E7959F5FC1F7C1
:1052C000FE2B880F911D9695879597F908959F93CA
:1052D0000E947E280F9007FCEE5F0C94B82819F40A
:1052E00016F40C946B280C94B5290E94D428B8F3BA
:1052F0009923C9F3B6F39F57550B87FF0E94C32923
:105300000024A0E640EA900180585695979528F42D
:10531000805C660F771F881F20F026173707480725
:1053200030F4621B730B840B202931294A2BA6957C
:1053300017940794202531254A2758F7660F771FC1
:10534000881F20F026173707480730F4620B730BCD
:10535000840B200D311D411DA09581F7B901842FCB
:105360009158880F9695879508959F3F31F09150F9
:1053700020F4879577956795B795880F911D969539
:10538000879597F9089591505040660F771F881FB1
:10539000D2F708959F938F937F936F93FF93EF932B
:1053A0009B01AC010E94FA28EF91FF910E94DE2937
:1053B0002F913F914F915F910C94FA28DF93CF93F7
:1053C0001F930F93FF92EF92DF927B018C01689401
:1053D00006C0DA2EEF010E940D29FE01E894A59186
:1053E0002591359145915591A6F3EF010E94FD2637
:1053F000FE019701A801DA9469F7DF90EF90FF9022
:105400000F911F91CF91DF91089597FB072E16F40E
:10541000009407D077FD09D00E94762A07FC05D0BA
:105420003EF4909581959F4F0895709561957F4FBB
:105430000895A1E21A2EAA1BBB1BFD010DC0AA1FD5
:10544000BB1FEE1FFF1FA217B307E407F50720F0ED
:10545000A21BB30BE40BF50B661F771F881F991F68
:105460001A9469F760957095809590959B01AC01B1
:10547000BD01CF010895052E97FB1EF400940E94F4
:10548000522A57FD07D00E94192A07FC03D04EF478
:105490000C94522A50954095309521953F4F4F4F8F
:1054A0005F4F089590958095709561957F4F8F4FD0
:1054B0009F4F0895EE0FFF1F0590F491E02D099482
:1054C000A29FB001B39FC001A39F700D811D112445
:1054D000911DB29F700D811D1124911D08950E9490
:1054E000602AB7FF0895821B930B0895AA1BBB1B6C
:1054F00051E107C0AA1FBB1FA617B70710F0A61BD4
:10550000B70B881F991F5A95A9F780959095BC01F4
:10551000CD010895FB01DC0104C08D91019080193B
:1055200021F441505040C8F7881B990B0895FB01A6
:10553000DC0102C001900D9241505040D8F708950F
:10554000FC018191861721F08823D9F799270895C6
:105550003197CF010895FB01DC018D9101908019F5
:105560000110D9F3990B0895FB01DC014150504023
:1055700030F08D910190801919F40020B9F7881B43
:08558000990B0895F894FFCF88
:1055880000C18081000000FFFFFFFF00E100000074
:1055980000000008FF00000000FFFF0000803F013E
:1055A8000000FF01FF0300000000F1059F066406EC
:1055B80049060001030405060708090A0E0F10141E
:1055C8001500020301312E38004C5021201F1E15F2
:1055D80008142B2C0A09E0061A160407E132000108
:1055E800030405060708090A14150F0000000058EF
:1055F80005420590058E05D7059505B30500000001
:105608000045085C075C085B080D0A004745540024
:10561800504C49535400504745542000505345546A
:1056280020005044454C20005055534500505553D8
:105638004520004447455420004C47455420004429
:1056480053455420004C53455420004745535400BB
:10565800474553542000534D4F444500534D4F4444
:1056680045200050494E5320005245534554504957
:105678004E5300494E5600494E5620005354494354
:105688004B00535449434B203000535449434B205B
:10569800310052455345544B4559530053544154D6
:1056A800450043414C0042544E20005645520044A8
:1056B8004556005350440053504420004449414744
:1056C80000524F5400524F5420004D4F4445203053
:1056D800004D4F44452031004D4F444520320000D5
:00000001FF
