:100000000C949F010C94D3010C94D3010C94D30154
:100010000C94D3010C94D3010C94D3010C94D30110
:100020000C94D3010C94D3010C94B40A0C94310BAE
:100030000C94D3010C94D3010C94D3010C94D301F0
:100040000C94D3010C94D3010C94D3010C94D301E0
:100050000C94D3010C94D3010C94D3010C946A0A30
:100060000C94D3010C94D3010C94D3010C94D301C0
:100070000C94D3010C94D3010C94D3010C94D301B0
:100080000C94D3010C94D3010C94D3010C94D301A0
:100090000C94D3010C94D3010C94D3010C94D30190
:1000A0000C94D3010C94D3010C94D30105A84CCD2E
:1000B000B2D44EB93836A9020C50B9918688083CA2
:1000C000A6AAAA2ABE000000803F05010902A101DC
:1000D0000901A1008504050919012903150025015D
:1000E00075019503810275059501810305010930AC
:1000F000093109381581257F750895038106C0C02F
:1001000005010905A1018503093009311601802681
:10011000FF7F75109502810205091901291015004C
:100120002501750195108102C04F4B0043464700E1
:10013000080B000202020000090400000102020094
:100140000005240010010524010101042402060514
:100150002406000107058103100040090401000284
:100160000A00000007050202400000070583024064
:1001700000000403090412010002EF020140091209
:1001800003000001010203014A532D4B65797061A0
:1001900064004A532D4B65797061640044494147BE
:1001A0002000535441544520004F4B00455252000B
:1001B0004552520045525200455252004F4B004D9D
:1001C0004F444520004F4B0045525200524F54209F
:1001D000004F4B00455252005350442000444556B6
:1001E000204A532D4B45595041440056455220005A
:1001F0004F4B00455252004F4B00070605040100CB
:10020000080A0B0C0D0900000000240027002A003A
:100210002D003000000000002300260029002C00E3
:100220002F0000000000250028002B002E003100C8
:10023000040404040403040502020202040302028B
:10024000020206060606060604040202020404046C
:1002500008020110408040102040804080080204C5
:10026000018040201002011080102040402000003A
:10027000000200090F0000030401000C0000000050
:10028000000000000000000000000000000000006E
:1002900000000000002A2B280000000000000000E1
:1002A000000000000000000000000000002C9EB4D0
:1002B000A0A1A2A434A6A7A5AE362D3738271E1FAD
:1002C00020212223242526B333B62EB7B89F848558
:1002D000868788898A8B8C8D8E8F90919293949546
:1002E000969798999A9B9C9D2F3130A3AD35040524
:1002F000060708090A0B0C0D0E0F10111213141526
:10030000161718191A1B1C1DAFB1B0B5000501094D
:1003100006A1018502050719E029E71500250175E9
:1003200001950881029501750881039506750815E8
:100330000025730507190029738100C0CA0D112417
:100340001FBECFEFDAE0DEBFCDBF14BE0FB6F8940C
:10035000A895809160008861809360001092600091
:100360000FBE23E0A2EEB1E001C01D92A03CB20797
:10037000E1F711E0A0E0B1E0E6EDF2E402C00590A3
:100380000D92A23EB107D9F711E0CFE9D1E004C048
:100390002197FE010E941521CE39D107C9F70E948D
:1003A000170E0C9469210C94000083E08093E900FF
:1003B0008091F200882319F08AE38093E800089581
:1003C000FC0180915003882311F13FB7F89482E03B
:1003D0008093E9002091F200822F90E01816190610
:1003E00014F481E090E0882339F0289844E64093A3
:1003F0004F034091F1004083222339F02091F20015
:10040000211103C02BE62093E8003FBF08958FEF32
:100410009FEF089581508F3008F047C0E82FF0E03B
:10042000EC5EFD4F0C9415213102350223022902A6
:100430002D0255025502550238023E024202460282
:100440004C0255025002809180008F77809380008B
:100450000895809180008F7DF9CF80918000877F03
:10046000F5CF84B58F7784BD089584B58F7DFBCF9C
:10047000809190008F7780939000089580919000F4
:100480008F7DF9CF80919000877FF5CF8091C0005C
:100490008F778093C00008958091C0008F7DF9CF41
:1004A0008091C200877F8093C20008951F93CF93ED
:1004B000DF93E0E7F2E09491E1E5F2E0D491E2E34A
:1004C000F2E0C491CC23B9F0182F992319F0892FA9
:1004D0000E940A02EC2FF0E0EE0FFF1FEE5DFD4FD1
:1004E000A591B4918FB7F894EC91111108C0D095F3
:1004F000DE23DC938FBFDF91CF911F910895DE2B18
:10050000F8CFCF93DF93282F30E0F901E259FD4F68
:100510008491F901E15BFD4FD491F901E05DFD4F5C
:10052000C491CC23A1F081110E940A02EC2FF0E0CB
:10053000EE0FFF1FEC5EFD4FA591B491EC91ED2302
:1005400081E090E009F480E0DF91CF91089580E0B0
:1005500090E0FACF80E10E948102892B19F08EE0B1
:100560000C94810290E080E00895CF93DF9390E0B7
:10057000FC01E15BFD4F2491805D9D4FFC01849166
:100580008823D1F090E0880F991FFC01EA5FFD4FAE
:10059000A591B491FC01EE5DFD4FC591D4916230FF
:1005A00071F49FB7F8943C91822F809583238C93AC
:1005B000E8812E2B28839FBFDF91CF9108958FB7BD
:1005C000F894EC912E2B2C938FBFF6CF8251E82F0D
:1005D000F0E0E650FE4FE49190917B008E2F880F63
:1005E000880F80729F7D892B80937B00E770E06489
:1005F000E0937C0080917A00806480937A008091FF
:100600007A0086FDFCCF8091780090917900089562
:100610003FB7F89480914B0390914C03A0914D0308
:10062000B0914E0326B5A89B05C02F3F19F0019647
:10063000A11DB11D3FBFBA2FA92F982F8827BC013C
:10064000CD01620F711D811D911D42E0660F771F64
:10065000881F991F4A95D1F708958F929F92AF9264
:10066000BF92CF92DF92EF92FF924B015C010E940A
:1006700008036B017C010E9408036C197D098E0937
:100680009F09683E734081059105A8F321E0821A15
:100690009108A108B10888EEC80E83E0D81EE11CBD
:1006A000F11C81149104A104B10429F7FF90EF908B
:1006B000DF90CF90BF90AF909F908F9008952FB70D
:1006C000F894609147037091480380914903909199
:1006D0004A032FBF08954091250250912602209190
:1006E00023023091240242175307B4F49091E8009A
:1006F0009570E1F39091E80092FD19C08093F100AC
:10070000809125029091260201968F739927892B5B
:1007100019F48EEF8093E8008091250290912602D3
:100720000196909326028093250281E0089580E04F
:100730000895EF92FF920F931F93CF93DF93F82EBC
:10074000192FE62E042F81E0860F880F0E946B037D
:1007500083E00E946B03CF2DD12FEC0EFD2EF11CF8
:10076000CE15DF05B9F007FF13C0FE0184910E948A
:100770006B03182F80E00E946B0381232196811167
:10078000EFCFDF91CF911F910F91FF90EF900895E0
:100790008881EDCF81E0F5CFDF92EF92FF920F934A
:1007A0001F93CF93DF93D82E8A01EB017B01E40ED8
:1007B000F51ECE15DF0559F0D7FE12C0FE0184915B
:1007C0000E946B0321968111F4CF0FEF1FEFC80138
:1007D000DF91CF911F910F91FF90EF90DF900895DF
:1007E0008881EECF2FB7F89487708093E9009091BD
:1007F000E800892F807295FF04C09091F20080E498
:10080000891B2FBF08957F928F929F92AF92BF92C4
:10081000CF92DF92EF92FF920F931F93CF93DF93CC
:10082000C82E8B017A0180915003811110C08FEF87
:100830009FEFDF91CF911F910F91FF90EF90DF908D
:10084000CF90BF90AF909F908F907F9008958091B0
:10085000290280FF05C08091E00082608093E00063
:10086000CE2DDF2DD12C8AEFB82E8C2D8770982EAF
:100870008C2D8072882E8C2D8074782E9AE3A92E70
:10088000209719F4DD2009F452C08C2D0E94F20348
:1008900081110AC0BA94BB2051F261E070E080E09F
:1008A00090E00E942D03ECCF8C171D0611F00CF088
:1008B0008C2F9FB7F8949092E9002091E80025FDD5
:1008C00002C09FBFDDCF282F30E0C21BD30B882092
:1008D00029F08150A0F01092F100FBCFF801C7FC85
:1008E0000AC0815050F041914093F100FACF4491F9
:1008F0004093F10031968150D0F7020F131FDD2095
:1009000021F0A092E800D12CDCCF8091E80085FD99
:1009100007C0A092E800DD24D394209791F2F3CF92
:10092000209779F6772069F2A092E800CACF5D9807
:1009300084E680932802C7017CCF615030F020917B
:10094000F100FC0120830196F8CF289884E680937B
:100950004F03089580911B0281110DC082E08093A6
:10096000170284E08093180210921A021092190262
:1009700081E080931B0287E192E008950F931F931B
:10098000CF93DF931F92CDB7DEB782E0898342E435
:1009900050E060E371E080E80E94CC030E94AA046A
:1009A000DC0112960D911C910115110589F0D801F9
:1009B000ED91FC910280F381E02DBE016F5F7F4FCE
:1009C000C801099597FD04C0F80100851185ECCF99
:1009D00089810F90DF91CF911F910F910895CF934F
:1009E000DF93EC0180911201882331F083E00E94B3
:1009F00003041816190634F081E090E09B838A8383
:100A000080E090E0DF91CF910895CF93DF931F9224
:100A1000CDB7DEB76983DC01ED91FC910280F381F3
:100A2000E02D41E050E0BE016F5F7F4F09950F90D0
:100A3000DF91CF910895682F81E593E00C9405052F
:100A40000F931F93CF93DF938C01D0E0C0E0F801A8
:100A5000EC0FFD1F6491662341F081E593E00E9455
:100A60000505892B11F02196F2CFCE01DF91CF91B0
:100A70001F910F9108950C94D50183E00E94F20319
:100A800090E00895CF93DF931F92CDB7DEB7FC01BE
:100A90008485958597FD08C02FEF3FEF3587248724
:100AA0000F90DF91CF910895CE0101960E94E00151
:100AB000019719F4898190E0F3CF8FEF9FEFF0CF8A
:100AC0000F931F93CF93DF931F92CDB7DEB78C01A7
:100AD000FC018485958597FF0BC0CE0101960E948D
:100AE000E001019771F4898190E0F801958784878E
:100AF000F801848595850F90DF91CF911F910F911B
:100B000008958FEF9FEFF1CFFC018485958597FDC8
:100B10000BC09FB7F89482E08093E9008091F200C7
:100B20009FBF90E0019608959FB7F89482E080936C
:100B3000E9008091F2009FBF90E00895DC01FB0185
:100B400012962C911297848195812817190641F4E9
:100B500091818081813A31F49D7F81E0913009F06B
:100B600080E008958132E1F79B3029F482811F965D
:100B70008C9381E008959A3099F7828150968C93F6
:100B8000F8CFAF92BF92CF92DF92EF92FF920F9386
:100B90001F93CF93DF931F92CDB7DEB77C0169839C
:100BA0006A01590141E050E0BE016F5F7F4FFC01D7
:100BB00083810E9403048C0197FD0BC0F7018381A0
:100BC000A501B60180640E940304080F191F97FD58
:100BD0008C01C8010F90DF91CF911F910F91FF9071
:100BE000EF90DF90CF90BF90AF900895DC01FB01B4
:100BF00088E4808389E4818384E482831D969C91C8
:100C00001D979F709F5B93831D968D919C9124E00F
:100C1000969587952A95E1F78F708F5B848385E0A1
:100C20000895EF92FF920F931F93CF93DF93FB01F1
:100C30002081213871F52381223259F5DC01129689
:100C40004C91248135814217130619F5EC010B856F
:100C50001C85F12CE12C0115110589F0F801448166
:100C600055816281738180E80E94CC038F3F980791
:100C700049F0E80EF91ED8010D911C91ECCF81E0EE
:100C80008F87C701DF91CF911F910F91FF90EF9058
:100C9000089590E080E0F6CFCF93DF93CDB7DEB735
:100CA00069970FB6F894DEBF0FBECDBFFC01DB0124
:100CB0008C918F5F8C939E012D5F3F4F8DE0D9010A
:100CC0001D928A95E9F729E0298384E08A8391E0DF
:100CD0009D8383E08E832A8721E22B879C879D87D3
:100CE0009F8722E2288B27E02B8B25E02C8B8E8B95
:100CF00020E430E0388F2F8B998F82818B8395850C
:100D00008685998B8A8B838180688D8B49E150E041
:100D1000BE016F5F7F4F80E00E94CC0369960FB6E3
:100D2000F894DEBF0FBECDBFDF91CF910895CF9372
:100D3000DF9380910F02811167C081E080930202EE
:100D40008093030228E032E03093050220930402EE
:100D5000109207021092060229E231E03093FF015F
:100D60002093FE0110920A021092090210920C02C6
:100D700010920B0280930D0280930E0281EC8093FF
:100D800008020E94AA04FC01818190910202482F6E
:100D9000490F5527551F483051059CF5A281B38155
:100DA000109709F52EEF31E03383228320812093C1
:100DB00000028093010280910302820F80832091C0
:100DC0000402A22FB09105028A2F821B8917C8F452
:100DD00081813D91C82FD0E0C050DF4F38838F5FB5
:100DE0008183F2CFD90118962D913C911997211545
:100DF0003105C1F72EEF31E019963C932E931897E9
:100E0000D5CF81E080930F028EEF91E0DF91CF91FB
:100E10000895CF92DF92EF92FF920F931F93CF939B
:100E2000DF936C01EB017B01E40EF51E10E000E0A6
:100E3000CE15DF0581F069916D30D1F3D601ED91CA
:100E4000FC910190F081E02DC6010995892B19F0E4
:100E50000F5F1F4FEDCFC801DF91CF911F910F9111
:100E6000FF90EF90DF90CF900895CF93DF93EC0148
:100E70006838E0F06858FE0186E0662321F096812C
:100E8000961301C01682815031968111F6CF0E94CF
:100E90009706AE014C5F5F4F28E030E062E00E94B1
:100EA000C10581E090E0DF91CF910895862F90E019
:100EB00067FF0FC0FC01E058F10981E090E001C03C
:100EC000880FEA95EAF780959C8189238C8360E0FE
:100ED000D2CFEC85FD85E80FF91F649190E080E0AA
:100EE000662309F3862F807C803C49F48C818F7BBC
:100EF0008C836F73623309F0BECF64E6BCCF67FFAB
:100F0000F9CF8C818D7F8C836F77F4CFCF93DF9374
:100F1000EC01683858F168588E818617D1F08F81BE
:100F20008617B9F088858617A1F08985861789F01C
:100F30008A85861771F08B85861759F0FE013696E3
:100F400090E080E02191211147C08C0F9D1FFC0192
:100F500066830E949706AE014C5F5F4F28E030E049
:100F600062E00E94C10581E090E01FC0862F90E002
:100F700067FF0EC0FC01E058F10921E030E001C03C
:100F8000220FEA95EAF78C81822B8C8360E0C4CF34
:100F9000EC85FD85E80FF91F6491611109C081E0BE
:100FA00090E09B838A8390E080E0DF91CF91089569
:100FB000862F807C803C49F48C8180648C836F73A5
:100FC000623309F0A9CF64E6A7CF67FFF9CF8C8120
:100FD00082608C836F77F4CF01968630910509F09B
:100FE000B1CFDDCFEF92FF921F93CF93DF93EC0150
:100FF000162F0E9486077C01612FCE010E943507C3
:10100000C7019927DF91CF911F91FF90EF9008952D
:10101000089590E080E008958F929F92AF92BF92E2
:10102000CF92DF92EF92FF92CF93DF939C012553F3
:10103000334F27393941D0F1BC0197FF04C06627EF
:101040007727681B790BEC016C5C7C40072E000C49
:10105000880B990B0E94C11E20E036E646EE56E44E
:101060000E94171E6B017C016091130170E090E0FB
:1010700080E00E94C11E4B015C01A7019601C701DF
:10108000B6010E94B51F9B01AC01C501B4010E94CD
:10109000B51FD7FD9058DF91CF91FF90EF90DF9073
:1010A000CF90BF90AF909F908F90089560E070E0D8
:1010B000CB01F1CF262FFC01E054FD4F30813617D4
:1010C000A9F06083845D9D4FFC01628190E2960FE0
:1010D000983038F46056222351F08FEA93E00C9454
:1010E00086079CEF960F68579437A8F308958FEA08
:1010F00093E00C943507CF92DF92EF92FF92CF935B
:10110000DF93EC01A09140026B01770FEE08FF081E
:10111000FC01E054FD4F80818823E1F0AF50BB0B10
:101120002FEF3FE70E942A2124E630E040E050E024
:101130000E94F62061E02C153D054E055F050CF080
:1011400060E0CE01DF91CF91FF90EF90DF90CF90E4
:101150000C945A082A2F30E0AFEFBFE70E941B2102
:10116000E3CFCF93DF93D0E0C0E060E0CE010E94F8
:101170005A082196C231D105C1F7DF91CF91089568
:10118000DC0123E53AE42D933D9326E0EFE1F1E025
:1011900001900D922A95E1F726E0EFE1F1E0DC0104
:1011A000189601900D922A95E1F70895FC0101909F
:1011B0000020E9F73197AF01481B590BBC0181E5CD
:1011C00093E00C94EF0484E891E00C94D608CF935C
:1011D000DF930E942005EC010E94E3088C0F9D1F05
:1011E000DF91CF9108958F929F92AF92BF920F930C
:1011F0001F93CF93DF93CDB7DEB7A1970FB6F894C7
:10120000DEBF0FBECDBF19A2423008F44AE08E0106
:101210000F5D1F4F842E912CB12CA12CA5019401A0
:101220000E94D420E62FB901CA01EA30F4F4E05D4F
:10123000D801EE938D01232B242B252B79F790E0F9
:1012400080E0109719F0CD010E94D608A1960FB644
:10125000F894DEBF0FBECDBFDF91CF911F910F91EC
:10126000BF90AF909F908F900895E95CE1CFCF93AE
:10127000DF93682F70E090E080E04AE00E94F3087E
:10128000EC010E94E3088C0F9D1FDF91CF91089520
:10129000CF92DF92EF92FF92CF93DF936C01990F81
:1012A000EE08FF08F7FE17C08DE20E941B05EC0157
:1012B00066277727CB016C197D098E099F094AE0C3
:1012C0000E94F3088C0F9D1FDF91CF91FF90EF904C
:1012D000DF90CF9008954AE0C701B601DF91CF912A
:1012E000FF90EF90DF90CF900C94F308CF93DF93B3
:1012F0008CE291E00E942005CEE2D2E080E20E94E2
:101300001B05699170E090E080E04AE00E94F308DC
:1013100082E0C034D80791F780E20E941B058091DB
:101320004002DF91CF910C943709EF92FF920F9317
:101330001F93CF93DF937C018C01D0E0C0E0CE01FE
:101340000E948A1DF80181938F012196CE30D1052C
:10135000B1F7C701DF91CF911F910F91FF90EF90EF
:101360000895CF92DF92EF92FF9280934102682F0F
:10137000880F770B880B990B0E94C11E2BED3FE065
:1013800049E450E40E94B51F20E030E044E353E418
:101390000E94171E6B017C010E94121E60931B01AC
:1013A00070931C0180931D0190931E01C701B6012B
:1013B0000E942220609321037093220380932303D1
:1013C00090932403FF90EF90DF90CF900895FF92C9
:1013D0000F931F93CF93DF93EC01F62E08811981B1
:1013E000C8010E948A1DF81621F06F2DC8010E94C5
:1013F000921DCE01DF91CF911F910F91FF90089523
:10140000EF92FF920F931F93CF93DF9300D0CDB74E
:10141000DEB78C010E94B10885E1F801ACE2B2E0D0
:1014200001900D928A95E1F78CE2E82E82E0F82E89
:1014300000E410E01A830983F70161917F01CE0176
:1014400001960E94E7090F5F1F4F0535110591F7BF
:101450000F900F90DF91CF911F910F91FF90EF9020
:101460000895CF93DF9300D0CDB7DEB7082F162FA6
:101470000E94B10880E690E09A838983602FCE01B4
:1014800001960E94E709112331F089E291E00E9460
:10149000E7080E94D50164E670E080E090E00E94D9
:1014A0002D0368EC70E080E090E00E942D03109224
:1014B0000108109200081092FF0A1092FE0A88E1BB
:1014C00098E00FB6F894A895809360000FBE9093B3
:1014D0006000FFCF1F920F920FB60F9211242F932F
:1014E0003F938F939F93AF93BF93809147039091C6
:1014F0004803A0914903B0914A033091460323E089
:10150000230F2D3758F50196A11DB11D20934603D9
:101510008093470390934803A0934903B0934A03F1
:1015200080914B0390914C03A0914D03B0914E03D9
:101530000196A11DB11D80934B0390934C03A09382
:101540004D03B0934E03BF91AF919F918F913F9107
:101550002F910F900FBE0F901F90189526E8230F24
:101560000296A11DB11DD2CF1F920F920FB60F92FE
:1015700011242F933F934F935F936F937F938F9398
:101580009F93AF93BF93CF93EF93FF93C091E100ED
:101590008091E100837F8093E100C3FF0FC0109230
:1015A000E90081E08093EB001092EC0082E38093ED
:1015B000ED001092500388E08093F000C2FF1AC043
:1015C0000E94D50180912802882341F08091280251
:1015D000815080932802811101C05D9A80914F0350
:1015E000882341F080914F03815080934F038111F4
:1015F00001C0289AC4FF23C08091E2008E7E8160E2
:101600008093E2008091E1008F7E8093E1008091E1
:1016100029028E7E806180932902FF91EF91CF9104
:10162000BF91AF919F918F917F916F915F914F91FA
:101630003F912F910F900FBE0F901F901895C0FFF4
:10164000ECCF8091E2008E7E80618093E2008091F9
:10165000E1008E7E8093E100809129028E7E816080
:10166000DACF1F920F920FB60F921124CF92DF9212
:10167000EF92FF920F931F932F933F934F935F939C
:101680006F937F938F939F93AF93BF93EF93FF934A
:10169000CF93DF93CDB7DEB76C97DEBFCDBF10928F
:1016A000E9008091E80083FF25C068E0CE014596FF
:1016B0000E949D0482EF8093E8008D8987FF39C0E6
:1016C0009091E80090FFFCCF982F907609F034C1FC
:1016D0009E894F89588D2F89F88C911131C080389F
:1016E00061F580912A028093F1001092F1008EEF53
:1016F0008093E8006C960FB6F894DEBF0FBECDBFA6
:10170000DF91CF91FF91EF91BF91AF919F918F9119
:101710007F916F915F914F913F912F911F910F9109
:10172000FF90EF90DF90CF900F900FBE0F901F9023
:1017300018959EEF9093E800C7CF1092F100D5CF97
:10174000913059F48111D3CF4130510581F6809108
:101750002A028D7F80932A02CACF933049F48111E7
:10176000C6CF4130510519F680912A028260F2CF2E
:10177000953041F48091E80080FFFCCF20682093F1
:10178000E300B5CF963009F0A9C00B8D1C8D22E087
:101790001092E9001092260210922502F2122EC039
:1017A00010922402109223020E94BE041F8299E02C
:1017B0009983FA8291E09E8390EA98879AEF9987BD
:1017C0002091250230912602275F3F4F3C832B83D7
:1017D0008D831092E9001092260210922502109338
:1017E00024020093230249E050E0BE016F5F7F4F67
:1017F00080E00E94CC030E94BE0479CF10932402A3
:10180000009323020E94AA04DC0112960D911C9100
:101810000115110509F451C1D801ED91FC91048025
:10182000F581E02DBE016B5E7F4FC80109950097E1
:1018300009F03EC1F80100851185EACFF3E0FF12FF
:101840000EC08F89882309F440C0823061F440E8DB
:1018500069E082E991E00E949903811148CF81E219
:101860008093EB0047CF813029F440E869E088E8B5
:1018700091E0F1CF833099F70E94AA04DC0112961F
:10188000ED90FC908E010F5F1F4F6801E114F10491
:1018900079F0D701ED91FC910680F781E02DB80138
:1018A000C7010995080F111DF701E084F184EECFFF
:1018B000D8011C92F60101900020E9F73197BF0191
:1018C0006C197D0940E0C601C6CF62E771E0FB01FB
:1018D000449150E080E80E94CC0309CF973009F48E
:1018E000BECF983021F481E08093F10000CF993091
:1018F00009F0FDCE837009F0B2CFE1E0F1E081E0C4
:1019000031E096E32191222371F08093E900309336
:10191000EB00DF0111972C912093EC009093ED00E8
:101920008F5F873079F78EE78093EA001092EA00A4
:101930008F8980935003DBCE8B8D9C8D1092E900B4
:101940001092260210922502909324028093230283
:10195000898D811192C08E899D89913A49F4813295
:1019600009F07DCF47E050E06BE071E080E0B3CF5D
:10197000913209F074CF833269F48F89988DB0E089
:10198000A0E08093070190930801A0930901B09310
:101990000A01ADCE803269F48091E80082FFFCCF6D
:1019A00067E08BE091E00E949D048BEF8093E8005C
:1019B0009ECE823209F09BCE8F8980931201EEEF8A
:1019C000FFE7859194918B3F9C4D51F1E0E0F8E069
:1019D00080910B0190910C01A0910D01B0910E012D
:1019E000803B9440A105B105F1F48091120180FD86
:1019F0001AC0EE3F8AE0F80789F587E797E79183F9
:101A00008083809160008093270288E19BE00FB67D
:101A1000F894A895809360000FBE9093600067CE05
:101A2000EEEFFAE0D5CF808191818737974709F0B3
:101A30005ECEA8958091600088618093600080915F
:101A4000270280936000EE3F2AE0F20789F0809140
:101A5000FE0A9091FF0A9183808349CE8081918113
:101A60008737980751F29093FF0A8093FE0AC5CFFB
:101A70001092FF0A1092FE0A3ACE0E94AA04DC01DC
:101A800012960D911C910115110509F4E8CED801AB
:101A9000ED91FC910190F081E02DBE016B5E7F4FD6
:101AA000C8010995811123CEF80100851185EBCF7E
:101AB000181619060CF41BCED2CEF1E0FF12BECEE2
:101AC00066E771E004CFFC01A385B485109771F43B
:101AD0007487638785859685DB0114962D913C91EB
:101AE000820F931F968785870895DC018D919C91C5
:101AF00011970097D1F76D937C93ECCFCF93DF9341
:101B0000EC0180E690E00E948A1D9FEF980F9230D2
:101B100020F01882DF91CF91089588838130F1F40D
:101B20009091F601911112C01092F1011092F00102
:101B300020E031E03093F3012093F20129E230E01C
:101B40003093F5012093F4018093F6010E949706EB
:101B500060EF71E0DF91CF910C94630D8091E8010B
:101B6000811113C01092E3011092E2018AEC90E01F
:101B70009093E5018093E40186E390E09093E70180
:101B80008093E60181E08093E8010E94970662EE6F
:101B900071E0E0CF109254031092530388EE93E06B
:101BA000A0E0B0E08093550390935603A0935703B1
:101BB000B09358038AE691E09093520380935103C7
:101BC0008FEF9FEF90935E0380935D031092B203BB
:101BD0001092B1038CE791E09093B0038093AF0330
:101BE0008091A703811113C01092A2031092A10348
:101BF0008DE093E09093A4038093A3038FE290E0A1
:101C00009093A6038093A50381E08093A7030E948D
:101C1000970661EA73E00E94630D8DE892E090936D
:101C2000BC038093BB038DEB93E00C947E0DCF93AC
:101C3000DF93CDB7DEB7C55FD1090FB6F894DEBF2D
:101C40000FBECDBF789484B5826084BD84B58160B9
:101C500084BD85B5826085BD85B5816085BD809177
:101C60006E00816080936E001092810080918100EF
:101C700082608093810080918100816080938100E7
:101C800080918000816080938000809191008260CB
:101C90008093910080919100816080939100809168
:101CA00090008160809390008091C1008460809357
:101CB000C1008091C10082608093C1008091C10009
:101CC00081608093C1008091C30081608093C300D4
:101CD0008091C00082608093C0008091C2008160CA
:101CE0008093C20080917A00846080937A00809112
:101CF0007A00826080937A0080917A00816080937C
:101D00007A0080917A00806880937A001092500364
:101D100010922A02109229028091D700816080934C
:101D2000D70080EA8093D80089B5806189BD89B5E4
:101D3000826089BD09B400FEFDCF61E070E080E003
:101D400090E00E942D038091D8008F7C8061809369
:101D5000D8008091E000807F8093E0008091E100D6
:101D60008E7E8093E1008DE08093E200559A209A68
:101D700062E08EE00E94B50262E080E10E94B5025E
:101D800062E370E080E090E00E942D030E94AA02CE
:101D9000892B39F50E945F036B017C010E94AA0226
:101DA000892BE1F40E945F036C197D098E099F095C
:101DB000683B7B408105910588F387E797E790931F
:101DC00001088093000888E19BE00FB6F894A8957D
:101DD000809360000FBE90936000FFCF81E08093FE
:101DE0002B0262E08EE00E94B50262E080E10E9478
:101DF000B50200E411E021E331E0CD51DF4F39833A
:101E00002883C35ED04062E0CD51DF4FA881B98105
:101E1000C35ED0408D91CD51DF4FB983A883C35E9F
:101E2000D0400E94B502CD51DF4F88809980C35EBB
:101E3000D0400815190539F706E6E02E01E0F02E2E
:101E400009E511E062E0D8018D918D010E94B50293
:101E5000E016F106B9F761E082E00E94B50280E089
:101E60000E94560282E690E00E948A1D182F83E6A7
:101E700090E00E948A1D853A21F4163A14F01B3531
:101E80000CF010E0812F0E94B10984E690E00E94DE
:101E90008A1D9FEF980F943108F088E0809313011A
:101EA0001CE2E12E12E0F12E00E410E0C8010E94D5
:101EB0008A1DF70181937F010F5F1F4F05351105C3
:101EC000A9F780912C0290912D028C34904529F431
:101ED0008091400284518C3448F085E1E4E4F1E0E3
:101EE000ACE2B2E001900D928A95E1F7CE014D96F9
:101EF0000E9495098EE0FE017D96DE01AE55BF4F32
:101F000001900D928A95E1F78D8D9E8D83359A44CF
:101F100009F0EDC1CC55DF4F88809980C45AD0407C
:101F2000C453DF4F99828882CC5CD040CA55DF4FC2
:101F3000A880B980C65AD040C853DF4FB982A88262
:101F4000C85CD040C855DF4F28803980C85AD0407F
:101F5000C655DF4FE880F980CA5AD040CC52DF4FD7
:101F6000F982E882C45DD040C455DF4F08811981F1
:101F7000CC5AD040C255DF4F88809980CE5AD0408D
:101F8000C653DF4F99828882CA5CD040B8E0CB2E1E
:101F9000D12C412C512C3201812C912C540183E104
:101FA0000E94E602092E000CAA0BBB0B880E991E9C
:101FB000AA1EBB1E82E10E94E602092E000CAA0B9B
:101FC000BB0B480E591E6A1E7B1E65E070E080E068
:101FD00090E00E942D0321E0C21AD10801F7A8E089
:101FE000CA2ED12CE12CF12CC501B401A701960118
:101FF0000E94F620C853DF4F88809980C85CD0408B
:10200000C401990CAA0BBB0B49015A01881A990A01
:10201000AA0ABB0AC301B201A70196010E94F620D9
:10202000C801012E000CAA0BBB0B821B930BA40B47
:10203000B50BC853DF4FE880F980C85CD0402E183C
:102040003F08C453DF4F28813981CC5CD040E21A6D
:10205000F30AE214F3040CF47101A701FF0C660B00
:10206000770BC653DF4F28813981CA5CD040201BD3
:10207000310BCC52DF4FE880F980C45DD0400E199F
:102080001F09021713070CF48901012E000C220B03
:10209000330B4A375105610571050CF44BC1759539
:1020A0006795579547950A371105210531050CF4B9
:1020B00046C13595279517950795081719072A07DB
:1020C0003B078CF475016401B7FE07C0CC24DD2406
:1020D0007601C818D908EA08FB08C816D906EA0626
:1020E000FB060CF431C1CC24DD247601C81AD90AD0
:1020F000EA0AFB0A0C151D052E053F05ACF4B7FFD7
:1021000002C0D701C60195018401B7FE07C00027B0
:1021100011279801081919092A093B0908171907F5
:102120002A073B070CF412C1481559056A057B05BF
:102130000CF40EC180912B02882369F08091BD03BD
:1021400090E0019663E070E00E94C0209091BD0392
:1021500060E0981309C38FEF9FEF90935E03809325
:102160005D038DE892E09093BC038093BB03809164
:102170004503811184C0CE018B5A9F4F0E9495095F
:102180008EE0FE01EB5AFF4FDE01A858BF4F0190D1
:102190000D928A95E1F78EE0FE01E858FF4FDE01CF
:1021A000A659BF4F01900D928A95E1F7EA968EAD40
:1021B0009FADEA9783350AE4900709F0CBC0AC964F
:1021C0009FAF8EAFAC972EE0FE01E659FF4FDE01C8
:1021D000AC56BF4F01900D922A95E1F7CC56DF4FD8
:1021E00099838883C459D0402EE0FE01EC56FF4FFE
:1021F000DE01AA57BF4F01900D922A95E1F72EE01C
:10220000FE01EA57FF4FDE01D99601900D922A9503
:10221000E1F79AAF89AF28961FAE289711E029966B
:102220001FAF29972A961FAE2A972B961FAE2B9782
:102230002F961CAE1DAE1EAE1FAE2F9760961FAE22
:10224000609761961FAE619765961CAE1DAE1EAE7F
:102250001FAE65978CE1FE01F996A9E2B3E001900B
:102260000D928A95E1F70E9408036093250370930D
:10227000260380932703909328031093450382E657
:10228000682E712C93E6C92ED12C5524539424E644
:10229000A22EB12C32ED832E32E0932E81E593E015
:1022A0000E948405181619060CF078C281E593E0A7
:1022B0000E9442058D3091F32091A2023091A30239
:1022C0008A3009F05BC22E5B3D4FD9011C9267E852
:1022D00071E082E492E00E945221892B09F046C00D
:1022E0000E9476091092A3021092A202D7CFCE01CB
:1022F00001960E94C008AB80BC80C453DF4FB982F6
:10230000A882CC5CD040ED80FE80C853DF4FF982BC
:10231000E882C85CD0402F80388409851A85CC5269
:10232000DF4F19830883C45DD0400B851C858D84E5
:102330009E8426CE4CE350E060E070E0B4CE0CE327
:1023400010E020E030E0B9CE80E000CF82E0FECEA9
:1023500081E0FCCECE018C569F4F0E94C008CC5627
:10236000DF4F88819981C459D04038CF44E050E094
:102370006BE871E082E492E00E945B218C01892B82
:1023800009F055C085E1ECE2F2E0DE01AB5ABF4F47
:1023900001900D928A95E1F7FE01EB5AFF4F7F0104
:1023A00086E492E00115110511F090E080E068EB01
:1023B00071E00E94411D009729F484EB91E00E9496
:1023C000E70890CF0E941A1D6F3F710581059105A6
:1023D00021F018F080EB91E0F2CF02311105D9F035
:1023E000D70112966C930F5F1F4FBFEFEB1AFB0ADA
:1023F00003311105A9F667968EAD9FAD67978C34B2
:10240000904531F4AA968FADAA9784518C3438F058
:102410008CEA91E0D4CFAA966FAFAA97E4CFCE0111
:102420008B5A9F4F0E94000A89EA91E0C8CF60E969
:1024300071E082E492E00E945221892B29F484E425
:1024400091E00E94000A4CCF6AE971E082E492E0D8
:102450000E945221892B09F042C082EA91E00E9439
:10246000200580911F03909120030E94480980E27B
:102470000E941B0580911D0390911E030E94480934
:1024800080E20E941B0580911B0390911C030E9417
:10249000480980E20E941B058091190390911A035C
:1024A0000E94480980E20E941B058091180390E079
:1024B0000E94480980E20E941B0500EC12E0D8014E
:1024C0008D918D01882349F081E30E941B058016C0
:1024D0009106A9F70E94E30805CF80E3F6CF60EAF2
:1024E00071E082E492E00E945221892B29F45092FB
:1024F000A90287EF91E063CF44E050E064EA71E025
:1025000082E492E00E945B21892B01F586E492E04F
:102510000E94FC1C2091BD03213031F49C0121500C
:1025200031092431310518F083EF91E048CF8093D1
:10253000D6020E945F036093D2027093D30280930D
:10254000D4029093D50280EF91E039CF69EA71E02F
:1025500082E492E00E945221892B49F48BEE91E0B3
:102560000E94200580E491E00E94D608B3CF6DEA76
:1025700071E082E492E00E945221892B19F48DEDE2
:1025800091E01DCF61EB71E082E492E00E94522164
:10259000892B49F488ED91E00E9420058091130178
:1025A0000E9437099FCE44E050E065EB71E082E481
:1025B00092E00E945B21892BE1F486E492E00E9484
:1025C000FC1C9C01215031092431310518F084EDA7
:1025D00091E0F5CE809313016796BFAEAEAE6797DC
:1025E000682FCE018B5A9F4F0E94E70981ED91E041
:1025F000E6CE6AEB71E082E492E00E945221892BE0
:10260000E1F58CE991E00E94200582E10E94E6025A
:102610000E94480980E20E941B0583E10E94E602B5
:102620000E94480980E20E941B0501E311E0E12CB1
:10263000F801F1908F018F2D0E948102892B71F496
:10264000EE2019F08CE20E941B056F2D70E090E0E7
:1026500080E04AE00E94F308EE24E394CD51DF4F7E
:1026600028813981C35ED0402017310709F7E11076
:1026700031CF8DE20E941B052DCF6FEB71E082E41C
:1026800092E00E945221892B61F48CEC91E00E942F
:10269000200580914102082E000C990B0E944809E8
:1026A00019CF44E050E063EC71E082E492E00E94D4
:1026B0005B21892B39F586E492E00E94FC1C8C0199
:1026C000865A9F4F853B910518F088EC91E077CEB4
:1026D000802F0E94B10967967FAE6EAE6797602F1C
:1026E000CE018B5A9F4F0E94E7096796DFAECEAEB0
:1026F000679765EACE018B5A9F4F0E94E70985ECE8
:1027000091E05DCE68EC71E082E492E00E9452219B
:10271000892B39F48FEB91E00E9420058091BD0355
:102720003FCF6DEC71E082E492E00E945221892B50
:1027300081F064ED71E082E492E00E945221892BE5
:1027400041F06BED71E082E492E00E945221892B0E
:1027500069F48091470280539091BD03891303C0AF
:102760008CEB91E02CCE61E00E94310A8091420214
:10277000882309F4B7CD88EB91E021CE2F353105C0
:102780000CF08CCDA9014F5F5F4F5093A302409393
:10279000A2022E5B3D4FD9018C9380CD0E9408038D
:1027A00000912503109126032091270330912803DF
:1027B000AB01BC01401B510B620B730B77FDA8C72B
:1027C000D901C80188519C4FAF4FBF4F809325035B
:1027D00090932603A0932703B09328030E94080335
:1027E000009125031091260320912703309128039F
:1027F000601B710B820B930B161617061806190631
:1028000074F40E94080368517C4F8F4F9F4F609370
:1028100025037093260380932703909328030E9437
:102820005F03CC52DF4F688379838A839B83C45DC7
:10283000D04083E10E94E602C853DF4F998388832A
:10284000C85CD04082E10E94E602C653DF4F998304
:102850008883CA5CD0400E94AA02BC018091A90270
:102860008823A9F01092A90281E08093A802CC529B
:10287000DF4F88809980AA80BB80C45DD040809261
:10288000A4029092A502A092A602B092A702809103
:10289000A8028823E9F08091A4029091A502A0915A
:1028A000A602B091A702CC52DF4FE880F9800A81DE
:1028B0001B81C45DD040E81AF90A0A0B1B0BD80132
:1028C000C70184369105A105B10510F01092A80248
:1028D0003091A8020091290310912A03CC50DF4FB8
:1028E00019830883C45FD04080902B0390902C0301
:1028F000C852DF4F99828882C85DD040E0912D0395
:1029000080912E03A0902F03B0903003C453DF4F6B
:10291000B982A882CC5CD040E0903103F0903203C1
:10292000C053DF4FF982E882C05DD040509133033D
:10293000409134030091350310913603C652DF4FA6
:1029400019830883CA5DD040209037031091380363
:10295000C251DF4F1883CE5ED04080903903CE51F4
:10296000DF4F8882C25ED04090903A03C452DF4F5E
:102970009882CC5DD040E0903B03F0903C03009106
:102980003D0310913E03C651DF4FE882F9820A836E
:102990001B83CA5ED040F0903F03C751DF4FF882DF
:1029A000C95ED040909140038090410390904203D3
:1029B000A0904303B0904403CB51DF4F88829982AB
:1029C000AA82BB82C55ED04021E0672B09F020E0DF
:1029D000CE51DF4F9880C25ED0402915A9F0CE516C
:1029E000DF4F2883C25ED040CC52DF4FE880F980B1
:1029F0000A811B81C45DD040C651DF4FE882F98255
:102A00000A831B83CA5ED040CC52DF4FC880D98076
:102A1000EA80FB80C45DD040C651DF4F888099803A
:102A2000AA80BB80CA5ED040C818D908EA08FB0853
:102A30000AE1C016D104E104F10428F0C452DF4FCA
:102A40002883CC5DD040C452DF4F3880CC5DD0406D
:102A5000C751DF4F1881C95ED0403117A9F0C75167
:102A6000DF4F3883C95ED040CC52DF4F88809980D9
:102A7000AA80BB80C45DD040CB51DF4F8882998251
:102A8000AA82BB82C55ED040CC52DF4FC880D980BD
:102A9000EA80FB80C45DD040CB51DF4F88809980B5
:102AA000AA80BB80C55ED040C818D908EA08FB08D8
:102AB0000AE1C016D104E104F10450F1CF51DF4F17
:102AC0003883C15ED040CF51DF4F1881C15ED04006
:102AD00021E09227111101C090E0C251DF4F8880A0
:102AE000CE5ED04081101AC0CF51DF4F9880C15EBA
:102AF000D040911006C001E0C251DF4F0883CE5E86
:102B0000D040212CC151DF4F1882CF5ED0401AC077
:102B1000CF51DF4F9883C15ED040D5CF992391F339
:102B2000222009F463C4212C03E51AE4CC50DF4FC2
:102B300019830883C45FD04011E0C151DF4F18836F
:102B4000CF5ED040CC50DF4FE880F980C45FD040EA
:102B5000FE8EED8EC852DF4F08811981C85DD040CE
:102B600018A30F8FE9A38AA3C453DF4F88809980ED
:102B7000CC5CD0409CA28BA2C053DF4FA880B98010
:102B8000C05DD040BEA2ADA25FA348A7C652DF4F32
:102B9000E880F980CA5DD040FAA6E9A62BA6C2510A
:102BA000DF4FF880CE5ED040FCA6CE51DF4F0881CB
:102BB000C25ED0400DA7C452DF4F1881CC5DD0401B
:102BC0001EA7C651DF4F88809980AA80BB80CA5E4D
:102BD000D0408FA698AAA9AABAAAC751DF4F988059
:102BE000C95ED0409BAACF51DF4FA880C15ED040C4
:102BF000ACAACB51DF4FE880F9800A811B81C55E0A
:102C0000D040EDAAFEAA0FAB18AF222009F4C2C033
:102C100086E0FE017F96DE01AA54BF4F01900D921F
:102C20008A95E1F7C852DF4F08811981C85DD0400D
:102C3000C853DF4F88809980C85CD04080169106C9
:102C400034F4C852DF4F99828882C85DD040C453A3
:102C5000DF4FA880B980CC5CD040C853DF4FE880FC
:102C6000F980C85CD040AE14BF0434F4C453DF4FC5
:102C7000F982E882CC5CD040C852DF4F08811981CC
:102C8000C85DD040CA54DF4F19830883C65BD0406B
:102C9000C453DF4F88809980CC5CD040C654DF4F4E
:102CA00099828882CA5BD04086E0FE01EA54FF4FD9
:102CB000DE01A055BF4F01900D928A95E1F786E0A5
:102CC000FE01E055FF4FDE015F9601900D928A955F
:102CD000E1F786E0FE01B596DE01AE53BF4F0190ED
:102CE0000D928A95E1F7C053DF4FA880B980C05D8F
:102CF000D040C653DF4FE880F980CA5CD040EA1468
:102D0000FB0434F4C053DF4FF982E882C05DD04049
:102D1000C652DF4F08811981CA5DD040C653DF4FCC
:102D200088809980CA5CD0400815190534F4C652D1
:102D3000DF4F99828882CA5DD040C053DF4FA880A0
:102D4000B980C05DD040CE53DF4FB982A882C25C4B
:102D5000D040C652DF4FE880F980CA5DD040CA53E8
:102D6000DF4FF982E882C65CD04086E0FE01EE5378
:102D7000FF4FDE01A454BF4F01900D928A95E1F7F9
:102D800086E0FE01E454FF4FDE01959601900D921E
:102D90008A95E1F7C852DF4F08811981C85DD0409C
:102DA00018A30F8FC453DF4F88809980CC5CD0402C
:102DB0009CA28BA2C053DF4FA880B980C05DD040D9
:102DC000BEA2ADA2C652DF4FE880F980CA5DD040F6
:102DD000FAA6E9A68CE1FE017D96DE01119601902E
:102DE0000D928A95E1F70D811E81C352DF4F198341
:102DF0000883CD5DD0408B849C84C152DF4F998283
:102E00008882CF5DD0402110D6C3C853DF4FA88041
:102E1000B980C85CD040A016B1060CF422C3C453DC
:102E2000DF4F08811981CC5CD040C352DF4FE8806E
:102E3000F980CD5DD0400E191F09101611060CF057
:102E400057C3B5016E197F09072E000C880B990B2B
:102E50000E94C11E6B017C01B801110F880B990BF8
:102E60000E94C11E9B01AC01C701B6010E94171E42
:102E70002B013C0120E030E0A9010E940D1E87FDDE
:102E800037C320E030E040E85FE3C301B2010E94B5
:102E9000B01F181634F4412C512C00E8602E0FE3BB
:102EA000702EC653DF4FE880F980CA5CD040C15213
:102EB000DF4F08811981CF5DD040E016F1060CF498
:102EC00022C3C652DF4F08811981CA5DD040C1526A
:102ED000DF4F88809980CF5DD040081919091016FE
:102EE00011060CF057C3B70168197909072E000CB9
:102EF000880B990B0E94C11E6B017C01B801110F58
:102F0000880B990B0E94C11E9B01AC01C701B60141
:102F10000E94171E6B017C0120E030E0A9010E9495
:102F20000D1E87FD37C320E030E040E85FE3C701B6
:102F3000B6010E94B01F181634F4C12CD12CB0E891
:102F4000EB2EBFE3FB2EA3019201C301B2010E944D
:102F5000B51F4B015C01A7019601C701B6010E9494
:102F6000B51F9B01AC01C501B4010E94A11D0E94C7
:102F70003020C051DF4F688379838A839B83C05F91
:102F8000D0402DEC3CEC4CE45DE30E940D1E181685
:102F90000CF00BC32DEC3CEC4CE45DE3C051DF4F77
:102FA000688179818A819B81C05FD0400E94A01D89
:102FB00023E333E343E75FE30E94171E4B015C0109
:102FC00020E030E040E85FE30E94B01F181634F4C0
:102FD000812C912CF0E8AF2EFFE3BF2EC051DF4FC4
:102FE000288139814A815B81C05FD040C501B4012D
:102FF0000E94171E4B015C01A30192010E94B51FA4
:103000002B013C01A7019601C501B4010E94B51F27
:103010004B015C0120E03EEF4FEF56E4C301B201EB
:103020000E94B51F0E94891E7B0120E03EEF4FEFFA
:1030300056E4C501B4010E94B51F0E94891E8B0190
:10304000CC50DF4F88809980C45FD04090922A0393
:1030500080922903C852DF4FA880B980C85DD04054
:10306000B0922C03A0922B03C352DF4F888099802B
:10307000CD5DD04090922E0380922D03C453DF4F3C
:10308000A880B980CC5CD040B0923003A0922F03CE
:10309000C053DF4F88809980C05DD040909232034A
:1030A00080923103C152DF4FA880B980CF5DD040FC
:1030B000B0923403A0923303C652DF4F88809980C8
:1030C000CA5DD04090923603809235032092370338
:1030D000C251DF4F9880CE5ED04090923803CE51DF
:1030E000DF4FA880C25ED040A0923903C452DF4FA8
:1030F000B880CC5DD040B0923A03C651DF4F888093
:103100009980AA80BB80CA5ED04080923B03909297
:103110003C03A0923D03B0923E03C751DF4F98801D
:10312000C95ED04090923F03CF51DF4FA880C15E6F
:10313000D040A0924003CB51DF4F88809980AA8075
:10314000BB80C55ED0408092410390924203A09222
:103150004303B0924403B701FF0C880B990B0E9404
:10316000C11E4B015C0120911B0130911C0140915B
:103170001D0150911E01C453DF4F288339834A83B8
:103180005B83CC5CD04066277727601B710B072ED2
:10319000000C880B990B0E94C11E2B013C01E09092
:1031A0002103F09022030091230310912403C053C4
:1031B000DF4FE882F9820A831B83C05DD040C4538D
:1031C000DF4F288139814A815B81CC5CD040C501C9
:1031D000B4010E94B51F6B017C01C053DF4F2881F1
:1031E00039814A815B81C05DD040C301B2010E9438
:1031F000B51F9B01AC01C701B6010E94A11D6B0167
:103200007C0120E03EEF4FEF56E40E94B01F1816FD
:103210000CF4D6C120E03EEF4FEF56ECC701B601EB
:103220000E940D1E87FDD1C1C701B6010E94891EF3
:103230007B01A3019201C453DF4F688179818A81A8
:103240009B81CC5CD0400E94B51F2B013C01C05338
:10325000DF4F288139814A815B81C05DD040C50143
:10326000B4010E94B51F9B01AC01C301B2010E94D1
:10327000A01D4B015C0120E03EEF4FEF56E40E94A1
:10328000B01F0FEF1FE718168CF020E03EEF4FEF56
:1032900056ECC501B4010E940D1E01E010E887FD47
:1032A00005C0C501B4010E94891E8B014BE0C42EEC
:1032B00043E0D42E57ED852E52E0952E69E5662E1B
:1032C00061E0762EB12CA12CD3018D913D010E949D
:1032D000810221E0892B09F020E02601F60180819E
:1032E000281729F1F40180819181A281B381CC5208
:1032F000DF4F488159816A817B81C45DD040481B82
:10330000590B6A0B7B0BDB01CA010897A105B105BC
:1033100070F0D6012C93CC52DF4F288139814A813D
:103320005B81C45DD0402083318342835383BFEFF0
:10333000CB1ADB0AF2016081C5010E945A08FFEF37
:10334000AF1ABF0A24E0820E911C3DE0A316B1041F
:1033500009F0BACFC090BD0341E0C412EEC1C4521F
:10336000DF4F8880CC5DD040882041F080913703CA
:10337000CC24C394D12C882319F0312CD12CC12C0E
:10338000B090D602BB2079F10E945F034090D20238
:103390005090D3026090D4027090D50264197509E0
:1033A00086099709603971408105910508F0BDC112
:1033B00032E1B31609F4BCC13B1508F40BC141E17D
:1033C00090E080E021E030E8B41609F40EC1AB2DA6
:1033D000A150BB0B21E030E002C0220F331FAA95A1
:1033E000E2F7C22AD32AC8019701FFC0C653DF4FB4
:1033F00088809980CA5CD040C652DF4F998288820B
:10340000CA5DD040C653DF4F5881CA5CD040C55317
:10341000DF4F4881CB5CD040C053DF4F9982888218
:10342000C05DD040C853DF4FA880B980C85CD04091
:10343000C453DF4FB982A882CC5CD040C853DF4F61
:10344000E881C85CD040C753DF4F8881C95CD04059
:10345000C852DF4FB982A882C85DD040222423948D
:1034600051CBC352DF4F08811981CD5DD040C85286
:10347000DF4F88809980C85DD0400819190910165F
:103480001106B4F5C853DF4F68817981C85CD0401C
:10349000C352DF4FA880B980CD5DD0406A197B0947
:1034A000072E000C880B990B0E94C11E6B017C013A
:1034B000B801110F880B990B0E94C11E9B01AC0132
:1034C000C701B6010E94171E2B013C0120E030E02D
:1034D00040E85FEB0E940D1E87FD0EC020E030E04B
:1034E000A901C301B2010E94B01F18160CF0D9CC7B
:1034F000412C512C3201D5CC412C512C10E8612E9D
:103500001FEB712ECECCC152DF4F08811981CF5DE8
:10351000D040C053DF4FA880B980C05DD0400A19A9
:103520001B0910161106B4F5C653DF4F6881798167
:10353000CA5CD040C152DF4FE880F980CF5DD040F7
:103540006E197F09072E000C880B990B0E94C11E73
:103550006B017C01B801110F880B990B0E94C11EF1
:103560009B01AC01C701B6010E94171E6B017C01D3
:1035700020E030E040E85FEB0E940D1E87FD0EC0AA
:1035800020E030E0A901C701B6010E94B01F181663
:103590000CF0D9CCC12CD12C7601D5CCC12CD12C9E
:1035A000A0E8EA2EAFEBFA2ECECC812C912C540160
:1035B000240135012FCD10E000E0F12CE12C40CDAD
:1035C000EE24EA94EFE7FE2E34CEEE24E39470E886
:1035D000F72E2FCE53E1B51609F4A4C064E181E0C3
:1035E00090E8B612F4CE30E020E041E08115B0E47E
:1035F0009B070CF440E04093CD0241E08130E0ECC9
:103600009E070CF040E04093CE0241E02130F0EC08
:103610003F070CF040E04093CF0241E0211550E419
:1036200035070CF440E04093D0023092D102679607
:103630003FAF2EAF679791958195910969969FAF9E
:103640008EAF69976B96DFAECEAE6B9746E050E0DB
:1036500065E171E0CE018B5A9F4F0E944521892B75
:10366000A1F086E0FE01EB5AFF4FA5E1B1E0019029
:103670000D928A95E1F70E94970626E030E0AE01B0
:103680004B5A5F4F63E00E94C105822D0E94560293
:10369000C151DF4F9880CF5ED0409920C9F089E2B8
:1036A000A82E83E0B82ED12CC12C6796DFAECEAE0B
:1036B0006797D5016D915D01CE018B5A9F4F0E9496
:1036C000E709BFEFCB1ADB0AEEE0CE16D10469F7AB
:1036D000C853DF4F88809980C85CD0409092200307
:1036E00080921F03C653DF4FA880B980CA5CD040C8
:1036F000B0921E03A0921D03F0921C03E0921B03E4
:1037000010931A03009319038091370380931803D1
:1037100080E090E0892B11F40C94B7100E94000017
:103720000C94B7108FEF9FE75ECF1092D6025BCE5E
:1037300090E080E02FEF3FE758CF62E0C61231C142
:1037400080913703C452DF4F8880CC5DD040882001
:1037500009F403C1811109C1D02EB12EAE2C9F2CCA
:103760003092D1020E945F034090BC025090BD0293
:103770006090BE027090BF029B01AC012419350914
:103780004609570929013A0138E0431651046104FA
:10379000710408F47ACF6093BC027093BD028093E9
:1037A000BE029093BF022091B302332009F4DFC020
:1037B00021110BC06093AF027093B0028093B102ED
:1037C0009093B20221E02093AE023092B3023320F4
:1037D00009F12091AE022223C9F04090AF0250902F
:1037E000B0026090B1027090B2029B01AC0124194A
:1037F00035094609570929013A0134EF431631E0EA
:1038000053066104710410F01092AE022091AE02D2
:103810002223A1F04090AA025090AB026090AC022B
:103820007090AD02461A570A680A790ACC24C394EC
:1038300014141504160417040CF0C12C8A2D992DAC
:103840000E940C082091B8023091B9024091BA024E
:103850005091BB020E94A11D2B013C018D2D9B2D7F
:103860000E940C089B01AC016091B4027091B502FA
:103870008091B6029091B7020E94A01D4B015C019D
:10388000C301B2010E94891E21E8322E61384FEF38
:10389000740734F06038710514F06FE770E0362E6D
:1038A000C501B4010E94891E91E8D92E61385FEFED
:1038B000750734F06038710514F06FE770E0D62EAC
:1038C000632D032C000C770B880B990B0E94C11EF3
:1038D0009B01AC01C301B2010E94A01D6093B8021C
:1038E0007093B9028093BA029093BB026D2D0D2C98
:1038F000000C770B880B990B0E94C11E9B01AC0139
:10390000C501B4010E94A01D6093B4027093B5027A
:103910008093B6029093B702311007C0D11005C052
:10392000809114018C1509F4B0CEC09214016996EF
:103930001FAE1EAE69976696CFAE669767963FAE8E
:1039400067976896DFAE68970E94970624E030E09C
:10395000AE014B5A5F4F64E096CE882309F4FCCE4B
:10396000D12CB12CA12C912CFBCE312CF9CF2223C0
:1039700009F42BCF2091AE02222309F426CF2B018C
:103980003C014CE3440E511C611C711C4092AA0284
:103990005092AB026092AC027092AD021092AE02F5
:1039A00014CFB70180E190E00E947B08662777275B
:1039B0006E197F098FE090E00E947B08B8018DE0CE
:1039C00090E00E947B0866277727601B710B8EE0D2
:1039D00090E00E947B08C452DF4F8880CC5DD040CD
:1039E000882021F03090370381E03826632D81E173
:1039F00090E00E945A0849CEFC0188279927E89454
:103A000021912032E9F3293010F02E30C8F32B3207
:103A100041F02D3239F4689404C00E94821D820F57
:103A2000911D219120532A30C0F31EF49095819569
:103A30009F4F08951F93FC0199278827BC01E894A4
:103A400011911032E9F3193010F01E30C8F31B3217
:103A500051F01D3249F4689406C00E946D1D610F3B
:103A6000711D811D911D119110531A30B0F33EF458
:103A700090958095709561957F4F8F4F9F4F1F91C7
:103A800008954EEB53E00E94461D0895FA01A1915E
:103A9000B081009719F41097E1F0CD01DC01CD0160
:103AA0000D90002011F4C00113C0FB0121912223CD
:103AB00019F02015D9F7F3CFFB012191201519F446
:103AC0001E92119606C02223C1F70D900020A1F787
:103AD000D001FA01A193B0830895592F482F372FB1
:103AE000262F660F771F881F991F660F771F881F65
:103AF000991F620F731F841F951F660F771F881F02
:103B0000991F08957AE0979F902D879F802D910DA2
:103B100011240895F999FECF92BD81BDF89A992795
:103B200080B50895262FF999FECF1FBA92BD81BDA9
:103B300020BD0FB6F894FA9AF99A0FBE019608952F
:103B40005058BB27AA270E94B81D0C94621F0E94E0
:103B5000291F38F00E94301F20F039F49F3F19F4DC
:103B600026F40C94261F0EF4E095E7FB0C94201F1E
:103B7000E92F0E94871F58F3BA176207730784075B
:103B8000950720F079F4A6F50C94A91F0EF4E095A2
:103B90000B2EBA2FA02D0B01B90190010C01CA0107
:103BA000A0011124FF27591B99F0593F50F4503EB2
:103BB00068F11A16F040A22F232F342F4427585FA4
:103BC000F3CF469537952795A795F0405395C9F7BC
:103BD0007EF41F16BA0B620B730B840BBAF0915074
:103BE000A1F0FF0FBB1F661F771F881FC2F70EC013
:103BF000BA0F621F731F841F48F4879577956795E6
:103C0000B795F7959E3F08F0B0CF9395880F08F0D1
:103C10009927EE0F9795879508950E94FC1E08F44A
:103C200081E008950E94391FE3950C94731F0E9450
:103C30002B1E0C94621F0E94301F58F00E94291FF7
:103C400040F029F45F3F29F00C94201F51110C948F
:103C5000AA1F0C94261F0E94871F68F39923B1F3B3
:103C6000552391F3951B550BBB27AA2762177307A2
:103C7000840738F09F5F5F4F220F331F441FAA1F36
:103C8000A9F335D00E2E3AF0E0E832D091505040F2
:103C9000E695001CCAF72BD0FE2F29D0660F771FA0
:103CA000881FBB1F261737074807AB07B0E809F086
:103CB000BB0B802DBF01FF2793585F4F3AF09E3F0B
:103CC000510578F00C94201F0C94AA1F5F3FE4F379
:103CD000983ED4F3869577956795B795F7959F5F4E
:103CE000C9F7880F911D9695879597F90895E1E09A
:103CF000660F771F881FBB1F621773078407BA07F9
:103D000020F0621B730B840BBA0BEE1F88F7E09553
:103D100008950E94901E6894B1110C94AA1F0895F2
:103D20000E948F1F88F09F5798F0B92F9927B7519D
:103D3000B0F0E1F0660F771F881F991F1AF0BA954F
:103D4000C9F714C0B13091F00E94A91FB1E00895E5
:103D50000C94A91F672F782F8827B85F39F0B93FD7
:103D6000CCF3869577956795B395D9F73EF4909502
:103D70008095709561957F4F8F4F9F4F0895E89480
:103D800009C097FB3EF490958095709561957F4FA3
:103D90008F4F9F4F9923A9F0F92F96E9BB27939551
:103DA000F695879577956795B795F111F8CFFAF461
:103DB000BB0F11F460FF1BC06F5F7F4F8F4F9F4F92
:103DC00016C0882311F096E911C0772321F09EE8F0
:103DD000872F762F05C0662371F096E8862F70E056
:103DE00060E02AF09A95660F771F881FDAF7880F30
:103DF0009695879597F90895990F0008550FAA0B86
:103E0000E0E8FEEF16161706E807F907C0F01216ED
:103E10001306E407F50798F0621B730B840B950BF0
:103E200039F40A2661F0232B242B252B21F4089545
:103E30000A2609F4A140A6958FEF811D811D0895E2
:103E400097F99F6780E870E060E008959FEF80EC4D
:103E5000089500240A9416161706180609060895F0
:103E600000240A94121613061406050608950C94ED
:103E7000261F0E948F1FD8F3E894E0E0BB279F57CE
:103E8000F0F02AED3FE049EC06C0EE0FBB0F661FD5
:103E9000771F881F28F0B23A62077307840728F05B
:103EA000B25A620B730B840BE3959A9572F78038C4
:103EB00030F49A95BB0F661F771F881FD2F7904882
:103EC0000C947220092E0394000C11F4882352F0F4
:103ED000BB0F40F4BF2B11F460FF04C06F5F7F4F36
:103EE0008F4F9F4F0895EF93E0FF07C0A2EA2AED9E
:103EF0003FE049EC5FEB0E94B81D0E94621F0F90EB
:103F0000039401FC9058ECEAF0E00C94852057FDF6
:103F10009058440F551F59F05F3F71F04795880F37
:103F200097FB991F61F09F3F79F0879508951216CE
:103F300013061406551FF2CF4695F1DF08C016167A
:103F400017061806991FF1CF86957105610508942B
:103F50000895E894BB2766277727CB0197F9089542
:103F60000E94FC1E08F48FEF08950E94C81F0C9455
:103F7000621F0E94291F38F00E94301F20F09523F5
:103F800011F00C94201F0C94261F11240C94AA1FCE
:103F90000E94871F70F3959FC1F3950F50E0551F46
:103FA000629FF001729FBB27F00DB11D639FAA278E
:103FB000F00DB11DAA1F649F6627B00DA11D661FDD
:103FC000829F2227B00DA11D621F739FB00DA11DFE
:103FD000621F839FA00D611D221F749F3327A00DB8
:103FE000611D231F849F600D211D822F762F6A2F54
:103FF00011249F5750409AF0F1F088234AF0EE0FB9
:10400000FF1FBB1F661F771F881F91505040A9F7E5
:104010009E3F510580F00C94201F0C94AA1F5F3F17
:10402000E4F3983ED4F3869577956795B795F79521
:10403000E7959F5FC1F7FE2B880F911D9695879599
:1040400097F908959F930E94391F0F9007FCEE5F28
:104050000C94731F19F416F40C94261F0C94702002
:104060000E948F1FB8F39923C9F3B6F39F57550BDE
:1040700087FF0E947E200024A0E640EA900180583D
:104080005695979528F4805C660F771F881F20F05F
:1040900026173707480730F4621B730B840B20295F
:1040A00031294A2BA69517940794202531254A27B4
:1040B00058F7660F771F881F20F026173707480725
:1040C00030F4620B730B840B200D311D411DA09544
:1040D00081F7B901842F9158880F96958795089597
:1040E0009F3F31F0915020F4879577956795B7956C
:1040F000880F911D9695879597F908959150504096
:10410000660F771F881FD2F708959F938F937F9331
:104110006F93FF93EF939B01AC010E94B51FEF914A
:10412000FF910E9499202F913F914F915F910C94A4
:10413000B51FDF93CF931F930F93FF92EF92DF9200
:104140007B018C01689406C0DA2EEF010E94C81F23
:10415000FE01E894A5912591359145915591A6F3DD
:10416000EF010E94B81DFE019701A801DA9469F7DA
:10417000DF90EF90FF900F911F91CF91DF91089505
:1041800097FB072E16F4009407D077FD09D00E9404
:10419000312107FC05D03EF4909581959F4F0895FD
:1041A000709561957F4F0895A1E21A2EAA1BBB1B43
:1041B000FD010DC0AA1FBB1FEE1FFF1FA217B307F3
:1041C000E407F50720F0A21BB30BE40BF50B661F09
:1041D000771F881F991F1A9469F7609570958095CD
:1041E00090959B01AC01BD01CF010895052E97FB71
:1041F0001EF400940E940D2157FD07D00E94D42088
:1042000007FC03D04EF40C940D2150954095309549
:1042100021953F4F4F4F5F4F089590958095709532
:1042200061957F4F8F4F9F4F0895EE0FFF1F0590B1
:10423000F491E02D0994A29FB001B39FC001A39F08
:10424000700D811D1124911DB29F700D811D1124CF
:10425000911D08950E941B21B7FF0895821B930BA7
:104260000895AA1BBB1B51E107C0AA1FBB1FA617BD
:10427000B70710F0A61BB70B881F991F5A95A9F70F
:1042800080959095BC01CD010895FB01DC0104C02F
:104290008D910190801921F441505040C8F7881B3E
:1042A000990B0895FB01DC018D910190801901109B
:1042B000D9F3990B0895FB01DC014150504030F0D7
:1042C0008D910190801919F40020B9F7881B990B82
:0642D0000895F894FFCFF1
:1042D60000C18081000000FFFFFFFF00E100000039
:1042E60000000008FF00000000FFFF0000803F0004
:1042F60000FF01FF03000000009E054C061106F6B4
:10430600050001030405060708090A0E0F10141517
:10431600312E31004C5021201F1E1508142B2C0A5B
:1043260009E0061A160407E1320001030405060730
:1043360008090A14150F000000000505EF043D05E5
:104346003B0584054205600500000000F2070907E9
:10435600090808080D0A0047455400534554200033
:1043660052455345544B4559530053544154450007
:1043760043414C0042544E20005645520044455697
:1043860000535044005350442000444941470052D2
:104396004F5400524F5420004D4F4445004D4F445A
:1043A600452030004D4F44452031004D4F444520B7
:0243B6003200D3
:00000001FF
